:020000040800F2
:1010000000500020415A00083F5A00083D5A00088D
:101010003D5A00083D5A00083D5A000800000000F3
:101020000000000000000000000000003F5A00081F
:101030003F5A0008000000003F5A00083F5A0008CD
:101040003D5A00083D5A00083D5A00083D5A000824
:101050003D5A00083D5A00083D5A00083D5A000814
:101060006D3400083D5A00083D5A00083D5A0008FA
:101070003D5A00083D5A00083D5A00083D5A0008F4
:101080003D5A00083D5A00083D5A00083D5A0008E4
:101090009D4000083D5A00083D5A00083D5A00088E
:1010A00045420008854200083D5A00083D5A0008A4
:1010B000851D00083D5A00083D5A00083D5A0008A9
:1010C0003D5A00083D5A00083D5A00083D5A0008A4
:1010D0003D5A00083D5A00083D5A00083D5A000894
:1010E0003D5A00083D5A00083D5A00083D5A000884
:1010F0003D5A00083D5A00083D5A00083D5A000874
:101100003D5A00083D5A00083D5A00083D5A000863
:101110003D5A00083D5A00083D5A00083D5A000853
:101120003D5A00083D5A00083D5A00083D5A000843
:101130003D5A00083D5A00083D5A00083D5A000833
:101140003D5A00083D5A00083D5A00083D5A000823
:10115000F8B5122001F004F8144B0227054609CB1C
:10116000184490FBF7F4142000F0FAFF064615200F
:1011700000F0F6FF304490FBF7F068434011221A6C
:101180000B4D2044521144113946284622EAE2729E
:1011900004F05FFAB4F5805F22462846BDE8F840C7
:1011A000A8BF4FF48052042104F053BAF801002084
:1011B0000008004070B5552000F0D8FF044610200C
:1011C00001F0E8FB02F026F90146502000F0D6FFBE
:1011D00002F0CEFD02F01EF9632814D8042001F0BD
:1011E000B3FB28B1052001F0AFFB08B901240AE0E8
:1011F000042001F0A9FB30B9052001F0A5FB00286F
:1012000018BF4FF0FF34042001F09EFB0546052077
:1012100001F09AFB854208BF0024204602F062FCE0
:10122000062001F091FB48B1032001F08DFB28B1AD
:10123000072001F089FB08B1012100E000216020B6
:1012400000F09CFF022001F07FFB344D064620B1E8
:10125000334B4FF0FF321A6017E0302000F086FF6A
:1012600038B901F071FB80B102F0D4F82C4B186052
:101270000BE0304601F068FB10B12B78002B48D012
:10128000002001F061FB0028E2D0002001F05CFBAF
:1012900021462870552000F071FF002001F054FB1A
:1012A0000146592000F06AFF012001F04DFB014684
:1012B0005A2000F063FF022001F046FB01465B204C
:1012C00000F05CFF032001F03FFB01465C2000F0D2
:1012D00055FF042001F038FB01465D2000F04EFF71
:1012E000052001F031FB01465E2000F047FF06209B
:1012F00001F02AFB01465F2000F040FF082001F0CA
:1013000023FB0146612000F039FFBDE8704002F088
:101310008BBE02F07FF8024B1860B1E7CC010020D1
:10132000CC0300202DE9F04F3E2085B000F01EFFD9
:10133000B24B01901A684FF0000A01321A60186827
:1013400002F0D2FCD046AE4EAE4FDFF8BC925FFA50
:101350008AF5A81DC0B202F0E7F9019B44014FEAEB
:101360008A0B1BB947F82A40FFF7F2FE57F80B002B
:10137000241A05F11400C0B200F0F2FE640194FBDF
:10138000F0F405F141002146C0B200F0FFFE56F82E
:10139000041F002CB8BF6442A142B8BF2146D9F84F
:1013A00000B03160BBF1000F0AD11622514305F1A4
:1013B000440049113160C0B200F0E8FEC6F800B048
:1013C0002402A0450AF1010AB8BFA046BAF1020FF3
:1013D000BDD18D4B1B68002B40F09980512000F04F
:1013E000BFFE0746502000F0BBFE0446412000F03F
:1013F000B7FE0546422000F0B3FE06463F2000F04F
:10140000AFFE824B7F011B88DFF818925B0197FBD0
:10141000F3FB16235843471102F0F2FE3146024611
:10142000284602F01FFB7A4AD9F800101068494399
:101430004043491101EB6010039201F0E7FB0BFB05
:1014400007F77F1100FB07F14FF47A7E491191FBFA
:10145000FEF10BFB01F14B113C2194FBF1F4039ADB
:1014600002931368C92103FB07F56D110BFB05F50A
:101470004C436D116E014FEA641A96FBFAFA5E0155
:1014800096FBF0F6D9F8001026EAE67601FB07F4A1
:10149000641194FBFEF4202E4FF03E00A8BF2026DE
:1014A00095FBFEF500F062FE0BFB04F402284FEA08
:1014B0006414039A0ADC1168162301FB0BF149112D
:1014C00059434020491100F061FE039A11684820F9
:1014D00000F05CFED9F80010492000F057FE3946B4
:1014E000432000F053FE31464D2000F04FFE2946C8
:1014F0004A2000F04BFE21464B2000F047FE0299A7
:101500004C2000F043FE51464E2000F03FFE3E4A84
:10151000404C13680133DBB21360236873B91120A8
:1015200001F038FA3A2000F021FE0546502000F084
:101530001DFE400095FBF0F5256001E0013B2360B6
:10154000354B364C1B78002B54D0354D1D202E6862
:1015500000F00CFE06FA00F080442868C0EB080892
:101560001D2000F003FE48FA00F028601B2000F068
:10157000F7FD2268D30203EB0020801AC01220601E
:101580001C2000F0F3FD29682468019B641A604365
:10159000032B4FEA601406D1C4F548635943642312
:1015A000491191FBF3F10912402000F0EFFD5620A4
:1015B00000F0D6FD02F08CFBB4EB401F05DB56209B
:1015C00000F0CEFD02F084FB44011E2000F0C8FDB7
:1015D00024EAE474844203DD1E2000F0C1FD0446C9
:1015E000204602F013FE21463C2005B0BDE8F04F36
:1015F00000F0CCBD236005B0BDE8F08FD80100201D
:1016000004020020F8010020E0010020F06F000833
:10161000B8030020F0010020F4010020D0010020D8
:1016200004020020BC0300202DE9F04F3E2087B0CB
:1016300000F09CFD05461A2000F098FD80463320FE
:1016400000F08EFD0090342000F08AFD83461820C3
:1016500000F086FD8246162000F082FD044602203E
:1016600000F07EFD8146012000F07AFD0646002054
:1016700000F076FD0746352000F072FD019017203E
:1016800000F074FD0290052002F04EF8F9214001AF
:1016900090FBF1F1582000F079FD022002F044F8AF
:1016A000C349029A0B6800EB8300C01A8010821AAB
:1016B000920292FBF4F4009B0860A3424FF00E00EC
:1016C00001DCA34502DA01F051F901E001F058F91B
:1016D000A24509DA00213E2000F050FD132001F060
:1016E00045F9052002F006FB019A022392FBF3F371
:1016F0009C4206DAAF4B1A6841F288339A4200F2F4
:101700008E80B9F1000F0CDDC9EB04035B0193FB84
:10171000F9F97F0109F1200997FBF9F709FB06F6B2
:10172000761121463F2000F031FD3146472000F080
:101730002DFD3946462000F029FD304601F0DAFA49
:10174000781101F0D1FA002001F0EEFF04900120A1
:1017500001F0EAFF0590022001F0F6F804998346B3
:10176000522000F00BFD0599532000F007FD0021E9
:1017700004A802F0BDF928B9132001F0F7F8012000
:1017800002F0B8FA012105A802F0B2F906462320BA
:1017900000F0ECFC012807D1059904A802F0CEF96D
:1017A000002846D0002E44D0552000F0DFFC10B9B0
:1017B000814B1B6804935A460599049802F0EAF994
:1017C000064601F027FE02F045FA8246562000F058
:1017D000C7FC02F07DFA074601F01CFE02F04EFA4B
:1017E00081462D2000F0C2FC002800F012822D203E
:1017F00000F0BCFC012803D1BBF1000F00F009820E
:101800002D2000F0B3FC02281AD1BBF1000F17D134
:10181000584601F099F8002840F0FB8110E01320B1
:1018200001F0A4F80F2001F0ABF8072002F062FAF3
:1018300067E7132001F09AF8012002F05BFAB3E7A2
:1018400030465E4A13680392002B0ADD5C4A126838
:10185000934206DD002E03DB03D04E4580F2DE818D
:101860004846632F0EDC002804DB0646BE42A8BFB4
:101870003E4603E07E428642B8BF0646132001F092
:1018800075F800E006463146542000F077FC382019
:1018900000F06CFC0646392000F068FC0090372010
:1018A00000F064FC0190042001F03EFF8346032019
:1018B00001F03AFF434F02903B68DFF814A1DFF8D4
:1018C0001491032B48D8DFE803F0021026351520C9
:1018D00001F056F8142001F053F801230421029876
:1018E0003B6002F007F8002738E0152001F03EF8D1
:1018F000142001F045F80023022205215846CAF8B9
:101900000030C9F8003002933A6001F0F3FF029B07
:101910000746184622E0152001F032F8142001F0A5
:1019200025F80323052158463B6001F0E3FF0746F5
:10193000002013E0152001F019F8142001F016F82A
:101940000023052158463B6001F0D4FF04210746DF
:10195000029801F0CFFF01E000200746DAF80030DE
:10196000194A9F42B8BF1F46D9F80030CAF8007024
:101970009842B8BF18461368824603EBC733DB1B97
:10198000DB131360114AC9F80000136803EB8043AE
:101990001B1A9B141360019B012B03D0022B1BD03D
:1019A000421100E07A11009B06FB02321AE000BFF0
:1019B000DC010020D8010020C0030020CC0300205F
:1019C0000004002010020020D40100201402002096
:1019D000E401002000020020502000F0C1FB009B29
:1019E00000FB063282F3100206219D4803F031FE0F
:1019F0003946562000F0CAFB5146572000F0C6FB7E
:101A00000A2001F0A5FC012D40F0A780042000F081
:101A1000A7FB8146072000F0A3FB0746542000F0F7
:101A20009FFBB0F1000A42DB01F016FD58B1C7F58B
:101A300048600AFB00F020F01F034FF4486093FB5E
:101A4000F0F0074401E007EB4A07BAF5C86F2CDB5A
:101A5000052000F085FB8346032000F081FB06464D
:101A60004F2000F07DFB0090012000F079FB009AF0
:101A7000AAF5C86A8242C6BFB618A6EB4006B61AD7
:101A80007600760196FBF0F0C9EB0B034FEA4A0AA9
:101A9000584303FB0AF364225B1193FBF2F30BEB55
:101AA000601099448145A8BF8146122029E0292071
:101AB00000F056FB064601F0CFFC40B10AFB07FAE6
:101AC00068482AF01F0A9AFBF0F0074401E0CAF1C7
:101AD000000701F081FC8642C9F1000906D901F036
:101AE0007BFC4001B0FBF6F677437F092A2000F02B
:101AF00037FB4042B8424FF0120002DC00F036FFE4
:101B000001E000F03DFF3C2000F02AFBC000B7F5EB
:101B1000486FD4BFC71900F548673C2000F020FB90
:101B2000391AC9103C2000F031FB3B2000F018FBB3
:101B300009EBC0093B2000F013FBC0EB0901C91001
:101B40003B2000F023FB3C2000F00AFB02F05EFB90
:101B50003B2000F005FB02F05FFB062000F0F4FEE6
:101B600038B3032000F0F0FE18B3542000F0FEFA62
:101B700000281EDC352000F0F3FAA04219DC042016
:101B800000F0E2FE00284DD0052000F0DDFE002828
:101B900048D0082000F0D8FE002843D1B8F1020F49
:101BA00040DDB8F1040F54D1362000F0D9FAA0423C
:101BB0003FDD2D4C95B9322329465120236000F09A
:101BC000DDFA284602F0EEFC0D2000F0D9FE039A63
:101BD0004FF0FF331360254B1D703EE02368002B50
:101BE00013D101F0EFF802F0D5FD2846033D02F0D5
:101BF000D9FC012D1D4B8CBF0025012513201D7024
:101C000000F0BEFE4FF0FF3301E026DD013B236014
:101C100023E0B2455046B8BF304612E6632F7FF747
:101C200025AE30E6012000F08FFE0028C1D04FF035
:101C300001080D2000F09AFE132000F0A1FE0F20F5
:101C400000F09EFE41463E2000F098FA02F070F847
:101C5000AFE7B8F1030FACD1EBE707B0BDE8F08F09
:101C60000008004080F3FFFFEC010020F401002099
:101C70003B2838B505D100F073FABDE8384002F0D2
:101C8000CBBA3C2805D100F06BFABDE8384002F031
:101C9000BDBAFFF75DFA082000F068FAC0B201F0A3
:101CA0000BFA092000F062FAC0B201F0A7F80C208C
:101CB00000F05CFA80B201F0E5F90A2000F050FA79
:101CC00000F0F0FF0B2000F04BFA00F0F1FF1320C2
:101CD00000F04CFA00F0D0FE1F2000F047FA1E4D35
:101CE0001E4C2860202000F041FA2060212000F0E6
:101CF0003DFA6860222000F039FA6060272000F089
:101D000035FA174B1860252000F030FA154B186093
:101D1000262000F02BFA144B1860282000F026FA39
:101D2000124B18602B2000F021FA114B18602E2066
:101D300000F016FA0F4B18602F2000F017FA0E4B28
:101D400018602C2000F00CFA0C4B1860242000F0D6
:101D50000DFA0B4B186038BDC0030020D0030020E3
:101D6000F4030020DC030020F0030020EC0300203B
:101D700000040020F8030020E4030020D803002022
:101D8000C8030020014B186800F0AEB9E80100203C
:101D900000B589B000F048F800F0E2F801F002FD6B
:101DA00000F0A4FD00F08AF800F0B4F801F01EF88D
:101DB000174800F041FA02F0C1F801F031FE64204A
:101DC000FFF756FF134B188800F09AFF4FF0804141
:101DD000684600F033F9104B684664220F49C3F897
:101DE00000D000F051F968464FF47A720C4900F0C7
:101DF0004BF942F210720B49684600F045F90F208A
:101E000000F0B4FD00F01EFA002009B05DF804FBFC
:101E100000480040F06F0008E8010020251300088A
:101E200029160008B511000808B503F025F90420AB
:101E300003F00EF9022003F0F7F81E4B1E4A40F2A1
:101E400002301A6003F019FD40F2033003F015FD73
:101E50004FF4417003F011FD40F2053003F00DFD29
:101E600040F2923003F009FD40F20B3003F005FD23
:101E70004FF4607003F001FD40F2813003F0FDFC8F
:101E800040F2823003F0F9FC4FF4207003F0F5FCCF
:101E900040F2093003F0F1FC40F2862003F0EDFC43
:101EA0004FF4407003F0E9FCBDE8084040F299307F
:101EB00003F0E3BC0CED00E00003FA0510B5134C91
:101EC0004FF4806302220321114802F0EBFF204609
:101ED0004FF4E13103F07AFC2046082103F08AFC3C
:101EE00020464FF4005103F08EFC20460C2103F0F5
:101EF00096FC2046002103F08CFC2046002103F0D4
:101F000094FC2046BDE8104003F095BC004800401A
:101F1000000C014008B5192003F0E2FD1021192042
:101F200003F0ECFD182003F0DBFD0021182003F086
:101F3000E5FD082003F0D4FD0021082003F0DEFDBC
:101F40001C2003F0CDFDE0211C2003F0D7FD142060
:101F500003F0C6FDBDE80840F021142003F0CEBD1B
:101F600010B5334C204603F0C5F90021204603F09C
:101F7000A8F9204603F0A0F920460622022103F02A
:101F8000C9F920460622042103F0C4F906221146AD
:101F9000204603F0BFF92046022103F087FA2046CD
:101FA000042103F083FA2046062103F07FFA20463D
:101FB000022103F095FA2046042103F091FA20460D
:101FC000062103F08DFA2046022103F0D3FA2046C1
:101FD000042103F0CFFA2046062103F0CBFA204675
:101FE000012103F068FB2046002103F08DF94FF436
:101FF0008051204603F08CF9204604F5823403F02A
:1020000074F920464FF460730222032102F04AFF64
:102010004FF4E06302220321064802F043FF20460A
:10202000BDE810404FF460430222032102F03ABFA2
:1020300000080040000801407047000038B5044621
:102040000D46A161084603F037F9284603F043F92D
:10205000284640F2CF2103F057F928464FF6FF718A
:1020600003F056F94FF6FF73064A23826382A38278
:10207000E382002322606260A260E260E3612046A6
:1020800038BD00BF39200008F8B5C3690446032BEA
:102090000F46164625DC806903F02CF9114DE369E3
:1020A0000122E95CA06903F035F9E3690022E95CEB
:1020B000A06903F0CEFAE369022103F1080244F8B3
:1020C0002370994024F81260A06903F0E3F800211E
:1020D000A06903F0F6FAA06903F007F9E369013398
:1020E000E361F8BD1C5B00082DE9F041054600F1F5
:1020F00010060024022707FA04F84146A86903F0F5
:10210000D2F870B14146A86903F0D3F8AB693188C1
:10211000343353F824200A4443F8242055F824305B
:1021200098470134042C06F10206E4D1BDE8F081A1
:1021300010B5094C1C2303FB0043DC688C4209DC0E
:102140001B69994206DC054B43F82010FFF790FD10
:10215000002010BDFF2010BD1C6000080000002002
:10216000014B53F82000704700000020024B53F849
:1021700020004011704700BF00000020024B4901C1
:1021800043F82010704700BF00000020014B43F8C7
:102190002010704700000020F8B50546084E0024C6
:1021A0001C2707FB04632946586800F013FB08B995
:1021B000E0B2F8BD0134642CF3D16520F8BD00BF56
:1021C0001C60000810B5074A00231C2101FB0324F2
:1021D000A469844201D1D8B210BD0133642BF5D17A
:1021E000652010BD1C600008024B1C2202FB003061
:1021F000704700BF1C600008044A1C2303FB002337
:10220000D8681B69C01A18BF012070471C600008FD
:10221000074A0849002352F8040C18B152F8080C78
:1022200041F823000133642B02F11C02F3D1704703
:102230003860000800000020014B1860704700BFA4
:10224000900100202DE9F74FDFF8F8800026344692
:10225000B24637463546C146DFF8E4B02021D8F80B
:10226000000003F004FB70B1D9F8000003F0F7FAA6
:10227000C3B21946D9F80000019303F0E1FA019BBB
:102280000A2B08D109E00821D8F8000003F0EFFA82
:102290000028E9D1E2E70D2B18D13CB1636838463C
:1022A00026460024BA46984727461CE0002DD5D084
:1022B000D9F800301F4D15F8011F29B118460193B8
:1022C00003F0BEFA019BF6E70D46C7E77E2D0CDD55
:1022D000D8F80050184C14F8011F19B1284603F023
:1022E000AFFAF8E70C462546B8E7212B4FF000027D
:1022F00009D101920EB93546B0E773685046984748
:10230000019A1546AAE70BF8053001350BF80520B0
:10231000002FA3D1094C216819B1094800F05AFADD
:1023200018B923681BB91C4698E70834F3E7044F33
:102330002F4493E70B6B0008266B0008406B0008E6
:10234000180200209001002008B5054B01461868CE
:10235000431C03D089B203F073FA002008BD00BF0C
:1023600090010020704708B503F0B2FB01F01CBDDE
:10237000044B0548196853F8042C083B1B6801F00E
:10238000B5B900BFF0F7FF1FD06B00082DE9F0438F
:1023900087B000F086FA03780546632B03D101F07D
:1023A000BBFD304858E00026B1466FF001044FF005
:1023B00065082021284600F025FA037807461BB956
:1023C000032C01D0284847E0A11C87F8009005D1D4
:1023D0002E78A6F17402564256410BE0631C284643
:1023E00003D1FFF7D9FE804604E000F043FA02ABC8
:1023F00043F824000134042C07F10105D9D1B8F1C8
:10240000650F28D0059B02A900930EC9404616B15E
:1024100001F03AFD01E001F045FD431D042B13D806
:10242000DFE803F00C0F0906030002990F480DE0E6
:1024300003990F480AE004990E4807E002990E48F4
:1024400004E002990D4801E001460D4807B0BDE8DF
:10245000F04301F04BB90B4807B0BDE8F04301F081
:1024600045B900BFD96B0008FB6B00080E6C000873
:10247000226C0008366C00084A6C0008726C000878
:102480008E6C0008B76C000810B5084801F02EF9F2
:102490000024E0B2FFF7A8FE0134826841680448D6
:1024A00001F024F9642CF4D110BD00BFCB6C0008FE
:1024B000ED6C000870B50024E5B22846FFF794FEE5
:1024C00046682846FFF74CFE013402463146034871
:1024D00001F00CF9642CEFD170BD00BFF76C00085F
:1024E00070B500F0DEF904462C21204600F08AF990
:1024F00005460023067803702046FFF74DFE2C4664
:10250000652804F8016B06D0FFF72AFE014605484E
:1025100001F0ECF802E0044801F0E8F82B782C2BED
:10252000E2D070BDFB6C0008B76C00082DE9F743E2
:10253000194801F0DBF800252027EEB23046FFF7FE
:1025400053FED0F80480D0F8089004463046FFF7D8
:1025500007FE4B46009042463946104801F0C6F847
:102560003046FFF749FE40B1236804F10C010093A7
:102570000EC90B4801F0BAF802E00A4801F0B6F8BB
:102580000135642D4FF02C07D7D1074803B0BDE8C3
:10259000F04301F0ABB800BF006D0008026D000809
:1025A000326D00086F6D0008766D000873B50E4837
:1025B00001F09CF80D4801F099F80024E6B230468D
:1025C000FFF712FE05463046FFF716FE38B16B697D
:1025D000074800932B69EA68696801F087F80134BD
:1025E000642CEBD102B070BD7C6D0008936D0008C7
:1025F000AF6D000808B501F0BBF90146044801F0D1
:1026000075F801F05DFCBDE80840024801F06EB8C5
:10261000C26D0008DE6D000810B500F042F900F050
:10262000CBFADF28044608DC01463E20FFF7AEFD6A
:10263000601101F0B7FF034800E00348BDE8104017
:1026400001F054B8EE6D0008016E000808B53E2098
:102650000021FFF793FDBDE80840014801F046B8AE
:10266000176E000808B5FFF7D3FDBDE80840014824
:1026700001F03CB82A6E00082DE9F04385B000F067
:1026800010F9044600F0F6F820210646204600F036
:10269000B9F803782BB9274805B0BDE8F04301F03D
:1026A00025B80025A846441C2C21204600F0AAF895
:1026B000074690F8009080F800802046FFF76CFDF8
:1026C0003C46652804F8019B05D004AB2B4403F875
:1026D0000C0C013502E0184801F008F83B782C2B6F
:1026E00001D1092DE0DD154803F0B9F82021134888
:1026F00003F0BDF8D0B9002E01DC721C16D10446DF
:102700000F4FA5420BD001AB185DFFF729FD3946ED
:1027100002460C4800F0EAFF01340B4FF1E70B488A
:1027200000F0E4FF731CE1D0013EDFE705B0BDE837
:10273000F08300BF3C6E0008B76C00080048004002
:102740005A6E00085B6E0008606E0008586E000844
:1027500038B500F0A6F82021044600F053F80378BD
:102760000BB90F480FE0002300F8013B00F024FAFA
:1027700005462046FFF710FD65280AD02946FFF7D9
:10278000D7FC20B90748BDE8384000F0AFBF064885
:10279000F9E72146BDE83840044800F0A7BF00BF74
:1027A000626E00087D6E0008866E00089B6E000851
:1027B00008B501F035F918B9FFF75AFA034800E0F7
:1027C0000348BDE8084000F091BF00BFB26E0008AA
:1027D000C66E000810B5013810F8013F0C4623B151
:1027E00011F8012B0AB19342F6D02078C01A18BF15
:1027F000012010BD02460346981A13F8011B002958
:10280000FAD170470346184613F8012B0AB18A42E1
:10281000F9D170470029F0B5034605DA2D2003F8F9
:10282000010B4942012001E003D000201C46C71AD9
:1028300004E03022027041700120F0BD91FBF2FEF5
:10284000254602FB1E11303105F8011BBEF10001C7
:102850001E4605EB070001DD2C46EFE700232B7039
:10286000B44206D93378227806F8012B04F80139EE
:10287000F6E7F0BD30B5037800212D2B06BF0130FF
:102880004FF0FF340124431E0A2513F8012F303A7C
:10289000D0B2092802D805FB0121F6E704FB01F0BC
:1028A00030BD10B503780446202B00F10100F9D0AB
:1028B0007BB12046FFF79EFF013820448442034647
:1028C00002D300225A7004E01A780138202AF5D089
:1028D000F7E7204610BD043812F1FF3204D351F857
:1028E000043B40F8043FF7E77047000070B5124C16
:1028F000124E14F8023C052B1CD0013BDBB2032B1B
:102900009DBF0F480F4AC55C002599BFF15CD25CA2
:102910000222294634F8043C54F8080C02F0C2FAAA
:10292000012D05D134F8041C54F8080C02F060FCA9
:102930000834DEE770BD00BF346F0008E46F0008A4
:10294000EC6F0008E86F0008074B10B503EBC004FC
:10295000A18853F8300002F050FCA388184214BF3D
:102960000120002010BD00BF2C6F0008034B03EBBB
:10297000C002918853F8300002F03ABC2C6F000876
:10298000034B03EBC002918853F8300002F032BCD5
:102990002C6F0008034B03EBC002918853F8300002
:1029A00002F02EBC2C6F0008024B400933F91000D6
:1029B000704700BFF86F0008034BC0F58040C0F3BC
:1029C0004A1033F910007047F86F0008002910B55D
:1029D00005D10028ACBF00204FF4004010BDBDBFA2
:1029E00040424942042400240028DFBF43420846F5
:1029F000194602348842DEBF0B1A401819464FEAC6
:102A0000C13191FBF0F0C0F1000100FB01F14FF486
:102A10008E624FEAE13102FB01F24FEAE23202F547
:102A2000815202F1090201FB02F24FEAE23202F5A1
:102A3000F85202F10B0201FB02F34FEAE33303F514
:102A4000595303F10C0301FB03F34FEAE33303F59E
:102A5000224303F1FC0300FB03F0D8BF0134C01391
:102A60006403023004EBA00080B210BD014B18607B
:102A7000704700BFAC020020014B1860704700BFD8
:102A80009C02002091420B46A8BF13468A42B8BF61
:102A90000A468242B8BF02468342D4BFD0181018FB
:102AA00040107047F0B5244A431132F9133085B015
:102AB000019300F5AA435533C3F34A13A0F5AA4086
:102AC00032F913305638C0F34A10029332F91030FD
:102AD00001AC0393194B1988002354F823204A436F
:102AE000D21344F823200133032BF6D101A807C8E1
:102AF000FFF7C8FF00229446114B12491E88124B63
:102B00004FF4803E1D68C5F5803754F822301B1AFB
:102B100044F822303344AB4241F8043F02D2C1F8BA
:102B200000C003E0BB4288BFC1F800E00132032AC5
:102B3000EBD105B0F0BD00BFF86F0008AC0200207B
:102B4000980200209C0200209C020020024B4FF4BF
:102B500000421A80704700BF980200200029B4BFCD
:102B60004FF0FF32012270B5054601FB02F46423E9
:102B700001324FEA641104F01F0403FB04F404BFA4
:102B80002D2305F8013B06460A222846FFF742FEA0
:102B90006411092C4FF02E022A5405EB000398BF54
:102BA000302203F101009CBF5A70981C0A22214672
:102BB000FFF730FE304670BDF0B5037800242D2BB2
:102BC00006BF01304FF0FF3501250A27024612F8F3
:102BD000013BA3F13001CEB2092E03D807FB041448
:102BE0001046F3E773B10A210F46002310F8012FB6
:102BF000303AD6B2092E05D8520192FBF1F2794350
:102C00001344F3E703EB44106843F0BDB0F57A7F5B
:102C100034BF0423082320FA03F3202B38BF2023DA
:102C20004001B0FBF3F21A445208991A01291346E5
:102C3000F7D810467047000010B5154C154B2468A6
:102C40001B68A04228BF4343134A38BF00211268C3
:102C500021BF02EB932359436423B1FBF3F10F4BE4
:102C60001C680F4BA1421B6828BF2146A3F52072A8
:102C700090420AD91B1A23EAE3735A014FF42073D6
:102C800092FBF3F349014B439912084610BD00BF74
:102C9000B4020020B0020020BC020020B8020020D4
:102CA000C0020020014B1860704700BFB402002032
:102CB000014B1860704700BFC0020020064B074A56
:102CC0001B6812689B1A064A9B021268B3FBF2F358
:102CD000044A1360704700BFB8020020BC02002005
:102CE00094010020B0020020014B1860FFF7E6BFFE
:102CF000BC020020014B1860FFF7E0BF94010020E8
:102D0000014B1860FFF7DABFB802002008B527486A
:102D100002F080FA264B25481988890002F0F8FA5B
:102D2000244B1B78022B0BD12349042002F000FE18
:102D30000021042002F0C2FD042002F0DDFD02E0CB
:102D4000042002F0E3FD0321184802F02FFD0122C8
:102D50000021164802F0DFFC02220121134802F094
:102D6000DAFC0F220021114802F0ADFC0F220121F4
:102D70000E4802F0A8FC00210C4802F0FDFC0121E5
:102D80000A4802F0F9FC094802F0AFFA04230122D4
:102D90000021094802F086F880230122002107481B
:102DA00002F080F8064B00221A7008BD00040040B3
:102DB000C4020020990100200014014000080140D5
:102DC000E4020020064B01221A704FF6FF73054AF9
:102DD0001360054A138053809380D380138170471A
:102DE00098010020D8020020CC020020FFF7EABFA3
:102DF000014B1878704700BFE402002030B5954BB6
:102E000085B01A780446824200F022811870431E71
:102E1000012B02D8FFF77AFF1AE100286FD18E4804
:102E200002F0F8F947218C4802F06EFA4FF6FF7174
:102E3000894802F06DFA884802F04DFA042186486C
:102E400002F0B4FC0121844802F0A7FC7021824802
:102E500002F0B4FC0F21804802F096FC21460E22BD
:102E60007D4802F030FC214601227B4802F053FCF1
:102E70007A4A21461368784843F00203136002F04F
:102E80007BFC4FF40071744802F004FA724802F0BF
:102E900036FA0121704802F00EFC6F4802F025FA64
:102EA00006216F4802F083F96E4A06216C4802F051
:102EB00087F96D4A06216A4802F08BF94FF4807257
:102EC0000621674802F048F94FF480620621644801
:102ED00002F036F905220621614802F083F9062145
:102EE0005F4802F045F906215D4802F04AF90621E3
:102EF0005B4802F053F9042002F008FDA8E0032823
:102F000012D1554802F086F9042002F0FFFC214658
:102F100004230022554801F0C5FF802300222146EA
:102F2000534801F0BFFF90E0042840F09180514BDE
:102F300018680190504801F0CAFC01AA21464E4889
:102F400001F027FD4FF4E0414B4801F063FC002203
:102F50000621494801F085FC00220721464801F07E
:102F600080FC3D4802F056F947213B4802F0CCF97D
:102F70004FF6FF71384802F0CBF9374802F0B0F94C
:102F800007220621344802F0C5F90621324802F032
:102F9000F1FA314802F090F92F4802F09CF9012132
:102FA0002D4802F088FB2346002203212F4801F020
:102FB00079FF0022114640232D4801F073FF0022C3
:102FC000802311462A4801F06DFF204602F09EFC46
:102FD000294801F00AFD0023284A0293029B9342EC
:102FE00003DC029B01330293F8E7234801F0FDFC68
:102FF0000023224A0393039B934203DC039B013388
:103000000393F8E701211C4801F070FC02210546FA
:10301000194801F06BFC04462A460121164801F0CC
:10302000CBFC22460221144801F0C6FC2A460321AB
:10303000114801F0C1FC04210F48224601F0BCFCFC
:103040004FF480410C4801F0E5FB0D4B01221A7052
:1030500005B030BD9901002000040040200400406C
:103060000000024034040040CC0200200014014063
:1030700000080140F87F0008002401407F3801006B
:10308000E4020020094B1A8882420DD018804FF4C8
:10309000803393FBF0F0064B1860064B1B78013B26
:1030A000012B01D8FFF732BE704700BFC4020020D9
:1030B000C802002099010020014B1880704700BF12
:1030C000F40200202DE9F8438A4B05461E78002EB5
:1030D0005ED1894B894E1A68894B92B21868894B28
:1030E000B6461C681A60A242C8BF0534A41A002262
:1030F0004FF6FF73114636F81170BFB29F4298BF6A
:1031000036F811303EF8117098BF9BB2BFB29742AB
:1031100028BF36F8112001F1010128BF92B205291C
:10312000E9D17949002CD5BF0E68002601360E6022
:10313000D8BF0E600968C4BF744F3E70B1F57A7F86
:10314000C2BF724901260E70B2EBC30F04D91BB186
:10315000062000F0CFFD10E003EB430393426C4EDA
:1031600001D2326009E06B4A3368178881B2C91A0C
:1031700003FA07F28B18FB403360674B674A1B6802
:1031800011885D4305FB0414A4B21480BDE8F883E4
:10319000042E54D1624F614C3B78624D31466248F7
:1031A00093B102F027F828220621604802F051FA74
:1031B00000215E4802F085FA5C4802F096F8002390
:1031C0003B702B88238037E002F012F80121584829
:1031D00001F08CFB03218046554801F087FB02215A
:1031E0008044534801F082FB31468146504801F04B
:1031F0007DFB09EB00014046FFF7E8FB012320803F
:1032000021883B7022882B884A48C91A9A1A93B29F
:1032100089B28B4228BF0B463E4A23F00F0344215C
:10322000076816884B4307FA06F2D21B02EB6313BA
:10323000F340036023882B802388BDE8F883032EA6
:1032400035D13D4B3D4D1A680F2442F080021A6083
:103250003B4A116841F4802111600021186840F454
:1032600000001860286800F04000A0400143186882
:1032700014F1FF3440F080001860EFD2136843F07F
:1032800004031360C1F38F2324492E4A0B800B885B
:1032900012889BB21B019BB20B800B8809889B1A7A
:1032A000521A9BB292B2934228BF134617E01F4CAA
:1032B000204602F004FA244B00041B8817499B00A7
:1032C000B0FBF3F080B208800B8820689AB21D4BE7
:1032D000C0061B884ABF0A88D31A9B1A9BB20F4AA2
:1032E0001188184A1180194A11680B441360BDE80F
:1032F000F88300BF9901002070000240CC0200203A
:1033000034040040DC020020E0020020980100208C
:10331000D8020020F4020020C8020020C6020020CB
:10332000E5020020E60200200014014000040040F5
:1033300000240140E8020020100801400808014074
:1033400010140140EC020020C4020020F002002012
:10335000094B1B7813F0FB0F0DD000280BDD074A3B
:103360004FF47A7311684B43B3FBF0F0044BC00A7F
:10337000186000231360704799010020F0020020BC
:10338000E802002038B50E4B05461B780D4C9BB962
:103390000D4802F094F90D4B1B7843B10C4B1B68A0
:1033A00058430C4B1B68B0FBF3F080B200E01846AA
:1033B000238805FB003000E0208880B238BD00BFC4
:1033C00099010020C602002000040040980100205E
:1033D000C8020020D8020020084B187858B9084BC2
:1033E0001B7853B9074B1888074B1B685843074B8A
:1033F000B3FBF0F07047064B186870479901002046
:1034000098010020C4020020D80200200048E801F2
:10341000E80200200A4B187858B90A4B1B786BB9A0
:10342000094B1888094B1B685843094BB3FBF0F054
:103430007047084B18683C2358434009704700BF49
:103440009901002098010020C4020020D802002029
:1034500000879303E8020020034B18780238022803
:103460008CBF0020012070479901002008B504207E
:1034700002F058FA0021034802F023F9024B01221E
:103480001A7008BD00040040E402002028B103685F
:10349000197003680133036070470846FEF754BF94
:1034A0002DE9F843141E80460D460FDD0A46501BD9
:1034B00012F8011B0029FAD18442CCBF241A0C4611
:1034C00013F0020F0CBF2027302700E02027DB0776
:1034D0000CD42646002E05DD39464046FFF7D6FFC0
:1034E000013EF7E724EAE473E41A00E000235E1BE0
:1034F00006EB050915F8011B19B14046FFF7C6FF99
:10350000F6E72546002D05DD39464046FFF7BEFFAC
:10351000013DF7E7002CACBF09EB040009F1000006
:10352000BDE8F8832DE9F04385B00746DDF830802B
:10353000DDF834900D4651B930238DF804308DF804
:1035400005104B46424601A9FFF7AAFF3AE033B106
:103550000A2A06D1002904DA4D42012002E0184669
:1035600000E00020002304AE06F8013D0E9B3A3B2C
:103570005DB1B5FBF2F102FB1155092DC8BFED1885
:10358000303506F8015D0D46F2E798B1B8F1000F4D
:103590000AD019F0020F07D02D213846FFF776FF29
:1035A00008F1FF38012406E02D2306F8013C002431
:1035B000013E00E004464B46424631463846FFF79E
:1035C0006FFF204405B0BDE8F08300002DE9F04313
:1035D00007460E461446DFF810918BB000254FF0D9
:1035E0000A08337823B1252B72D17378711C2BB95B
:1035F000002F74D03B6800221A7070E0252B66D033
:103600002D2B06BFB11C012300230A78481C302A49
:1036100003D143F002030146F7E7002208780E4683
:10362000A0F1300E5FFA8EFCBCF1090F01F101012F
:1036300002D808FB02E2F1E7732805D121680434BF
:10364000002908BF49463EE064280DD1214661208B
:103650008DE80C00029001230A22096838460434E0
:10366000FFF760FF054438E0782802D12146612049
:1036700003E0582807D1214641208DE80C00029034
:1036800000231022E9E7752806D161208DE80C009F
:10369000214602900023DFE766280AD1216807A8A7
:1036A000059304920434FFF759FA059B049A07A97D
:1036B00009E0632811D1216804348DF81810002125
:1036C0008DF8191006A93846FFF7EAFECAE70E463C
:1036D00031783846FFF7DAFE0135013681E72846B2
:1036E0000BB0BDE8F08300BFFC7F00080FB407B546
:1036F00004AA52F8041B00200192FFF767FF03B0F1
:103700005DF804EB04B07047884205DD914208DCA7
:103710009042A8BF10467047904203DC9142A8BF78
:103720001146084670470000124B13B503EB4000EA
:1037300000F13003002433F8102C33F8201C33F848
:10374000300CFFF7E1FF2DF814000134042C03F1D5
:103750003003F0D1BDF80230BDF800001844BDF8C8
:1037600004301844BDF806301844C0F38F0002B08E
:1037700010BD00BFF6020020012806D0022809D0A3
:1037800070B907290CDCC8B27047012908DC01F1C7
:10379000080003E0052903DC01F10A00C0B270470C
:1037A0001020704770B54A4886B001F08BF8484841
:1037B00001F092F8464801F0ABF8454801F091F865
:1037C0000121434801F069F8414801F013F8002352
:1037D000404A0193019B934203DC019B0133019317
:1037E000F8E73B4801F020F8394801F030F83A4D4D
:1037F000002615F8022CF4B2032A2FD0012A15F85E
:10380000013C12D009D3022A17D1012101FA03F396
:1038100000229BB2114631480DE0012202FA03F367
:1038200000229BB211462E4805E002FA03F3002263
:1038300011462C489BB201F035FB15F8011C15F818
:10384000020CFFF799FF06AB234403F8100C264B3C
:10385000002223F8142001360235CAE702AA2146C5
:103860001B4801F05AF81A4801F0C9F81F4A012113
:103870001F4801F0A5FC1C4A01211D4801F0A9FCCC
:103880004FF4807201211A4801F066FC4FF4806207
:103890000121174801F054FC04EB4402920001217D
:1038A000134801F09FFC0121114801F061FC012146
:1038B0000F4801F066FC01210D4801F06FFC04483F
:1038C00001F089F8024800F09DFF06B070BD00BF0E
:1038D000002401407F3801000580000800100140ED
:1038E00000080140000C0140F60200204C24014079
:1038F000000002400529F0B522D84FF6FF721B4C9C
:1039000009016518EF68AE7A3B88012E18BF0122C5
:103910001A4495F809E092B2002575450CD2012EA3
:1039200037F8153002D1984203DC0BE00EB9834220
:103930000CDD01351A46F0E7214448684001F0BD2E
:103940000020F0BD181A40019B1A02E0C01A400185
:10395000D31A40015B0190FBF3F36218127A6158AD
:10396000534305FB0215C3EB4510F0BDD88000089A
:1039700070B5ADF5806D01F0C5FB0024E5B22846B9
:10398000FEF73AFC08B9054602E07F2C27D10FE08C
:103990007F2C0DD00DEBC4034DF8345000205D603A
:1039A00001F0B8FB002001F0B5FB0134FE90EFE719
:1039B00002F018F8022002F00BF8174801F034FA70
:1039C000154C164D04F17843A3F5FE3320465DF8FF
:1039D0000310043402F026F8AC42F3D116E0284676
:1039E000FEF702FC8369064628464DF83430FEF7A0
:1039F000B7FB0DEBC4035860B06901F08BFB2846A0
:103A0000FEF7AEFB01F086FB0134B7E701F0FCFFE7
:103A1000FE980DF5806D70BD00FC010800000208E5
:103A200038B50E4C01F06EFBFE21204601F078FB0C
:103A3000D4F8F83398420DD1094D2068FEF7C2FB47
:103A4000652802D06168FEF7A1FB0834AC42F4D1CE
:103A5000002038BD4FF0FF3038BD00BF00FC01082A
:103A6000F8FF0108F8B5044610460F461646FEF763
:103A70009BFF194B1D6845433046FEF79DFF49F2F9
:103A8000CC3344F6E61249F6C4467B436243DB136B
:103A900003EBE23101FB05F204FB00F3D2130F4FFD
:103AA00002EBE33373436C43D7F800E048434FEA3B
:103AB0008E0202EBE333E413094ACEEB0303C4EBBB
:103AC000E0319B1071433B601768BB0003EBE131B1
:103AD000C91B89101160F8BD9C010020B8030020AB
:103AE000BC030020014B1860704700BF9C01002000
:103AF000104B114A53F8213052F8212010B593424F
:103B0000C2BF11461A460B46016801F1C8049C4227
:103B100003DB02F1C804A14202DD0360002010BDF6
:103B2000994201DA036002E08A42B8BF02600120D4
:103B300010BD00BFD0030020C003002070B5134E9D
:103B4000134D74686A686423944207DD891A4B43F5
:103B5000A11A93FBF1F1C1F1640104E0091B4B438D
:103B6000111B93FBF1F10368346864221B1B5A4359
:103B70002B681B1B92FBF3F3C91A0029B8BF4942FB
:103B80000A29C6BF04600020012070BDC0030020C8
:103B9000D0030020F0B512B1254B1C6802E0254B84
:103BA0001C686442244E254F73688B420CDAC91A94
:103BB0004FF0640C0CFB01F57968C91A95FBF1F123
:103BC0004C4394FBFCF4013C1D4B36681D68801B84
:103BD00005F1640141433B68981B91FBF0F3581BCE
:103BE0000028184B0ADD1E68B04205DB164909683B
:103BF00031448842A8BF0846186001E000211960DE
:103C0000002812490FDA6043404290FBF5F40B683C
:103C1000A34205DB0E4A12689B1A9C42B8BF1C46A1
:103C20000C602046F0BD002AF1D10A60F0BD00BF53
:103C3000DC030020EC030020C0030020D0030020A0
:103C4000F4030020E0030020C8030020E803002064
:103C5000F0030020064B1B68181A064B1B685843DC
:103C6000054B1B689842A8BF18464011704700BF1B
:103C700000040020F8030020D80300200F4A104B56
:103C800010B51968146804FA01F318440D4B001BB1
:103C90001B6808411060181A0B4B1B6858430B4BEC
:103CA000B0F5486F1B68A8BF4FF448605B425B01EA
:103CB0009842B8BF1846401110BD00BFFC03002059
:103CC000E4030020CC030020F8030020EC030020D4
:103CD000B0F52A6F06DB40F6A1239842D4BF32200C
:103CE0000020704764207047014B1860704700BF88
:103CF0000404002030B50A4C235C83B9094B1D68CD
:103D00006DB10949094A0B6802F8330002EBC3029E
:103D100055600122134403F0030322540B6030BDAD
:103D2000080400200404002014040020A001002046
:103D300000231946024A99540133082BFBD17047DE
:103D400008040020074B10B403EBC1021479064AA3
:103D500053F8313052F82420014610BC0348FFF7D5
:103D6000C5BC00BFB881000870820008F881000857
:103D700070B50A4C0A4E0B4D2368326893420CD042
:103D800005EBC30215F833105068FFF7DBFF23681B
:103D9000013303F003032360EEE770BD100400203D
:103DA00014040020A001002070B50A4D6B6823B9EF
:103DB000BDE870400848FFF799BC2E4600242B1937
:103DC000586828B1315D0834FFF7BCFF202CF6D1CC
:103DD00070BD00BFA0010020088200082DE9F0415D
:103DE000002590460C462E46471A45450ADA2068BB
:103DF00001F090F90646E01954F8041B01F012FE98
:103E00000135F2E73046BDE8F081F0B5B2F5006F5C
:103E1000059F2ADA3F2B2BDC202F2CDC057800268F
:103E20004FF0240EB54209DD0EFB0604B4F804C0C1
:103E3000624501D104340AE00136F3E70A2D20D0AF
:103E4000242606FB05060135B280341D0570A278D4
:103E50000A2A13D004EB820529710699013269718F
:103E6000AB71EF71A2700078F0BD4FF0FF30F0BD84
:103E70006FF00100F0BD6FF00200F0BD6FF00400C4
:103E8000F0BD6FF00300F0BD13B5049C8DE8180081
:103E900013460A4601460248FFF7B7FF02B010BDBD
:103EA0001804002013B5049C8DE8180013460A4638
:103EB00001460248FFF7A9FF02B010BD84050020AB
:103EC00013B5104C01F01EF901F08CFD022001F039
:103ED0007FFD204600F0A8FF5B220B492046FFF73C
:103EE0007DFF5B2209490A48FFF778FF02A941F8E4
:103EF000040D01220748FFF771FF01F085FD02B0B4
:103F000010BD00BF00F8010818040020840500203F
:103F10006CF90108D8FA010800231A4610B50548C3
:103F2000054CE1188A71C1182433B3F5B47F8A7146
:103F3000F7D110BD840500201804002030B58BB0E7
:103F4000FFF7EAFF284B1C6801F0DCF8B621274890
:103F500001F0E6F8844209D15B2224492448FEF7A7
:103F6000BAFC5B2223492448FEF7B5FC234B002111
:103F70001A6823481A604FF40063022200F092FF8F
:103F80004FF400611E4801F033F94FF480530222D0
:103F900003211B4800F086FF1A4800F035FD092375
:103FA00006934FF4A0030024012505934FF400234A
:103FB00004932A46234621460894079403940294C6
:103FC000019400950F4800F02BFD21468DE830004C
:103FD000234622460B4800F0FCFD0A4802210BB0A4
:103FE000BDE8304000F002BED8FA010800F8010830
:103FF000180400206CF90108840500200400014029
:10400000000801400064004007B50023D2B20191CE
:10401000009201461A46034800F0ECFD03B05DF83B
:1040200004FB00BF006400402DE9F7431A4C002553
:10403000A37873B326460095019500274FF0010839
:10404000A3789F421EDA04EB870999F80400FEF773
:1040500087F899F905305843F37908FA03F3013BDF
:1040600003EA6010B3791F2B05D9203B9840019BD0
:104070001843019003E09840009B184300900137DB
:104080000436DDE70822694634F8240BFFF7BCFF4D
:10409000CEE703B0BDE8F0831C0400202DE9F04713
:1040A0008AB00DF11A0303930DF11B0302930DF176
:1040B00019030025019308AC06AB2A460093294654
:1040C00007AB4B480595049400F002FE294648488A
:1040D00000F0F2FD40F20162079B93424CD1BDF823
:1040E0002110B1F5005F0DD19DF82300632809D898
:1040F0009DF82030402B27D10999FEF719F8F0B927
:10410000232327E0A1F54053B3F5C05F28D29DF8E3
:104110002300632824D89DF82030402B25D19DF81A
:10412000265011F4804F9DF824209DF825300095ED
:10413000C1F30A0111D0FFF7B5FE0028E0DA8023B1
:104140008DF820302B4B0FE0222B0ED1FEF708F814
:10415000432309908DF8203007E0FFF795FEECE748
:1041600080238DF82030244B09930822214640F209
:104170008150FFF749FF38E0204F24213A78AA42C6
:1041800033DD01FB0576B088834205D14FF000088E
:10419000B2464FF001091BE00135F0E7B37AF27A3D
:1041A0001F2B1AD9099C203BDC4009FA02F3013B82
:1041B000234005EBC502424407EB820292F9091045
:1041C000107A59434911FDF7B3FF08F1010804368D
:1041D0009AF806309845E1DB07E0089809FA02F200
:1041E000013AD84002EA0003E3E70AB0BDE8F087ED
:1041F000006400403000090600000206840500202B
:10420000014B188880B27047F8060020014B1860F7
:10421000704700BF04070020064B074A1B6812883E
:1042200000FA03F393FBF2F3044A5B111380044B8F
:1042300018607047F46F00080A0700200807002084
:10424000F406002008B580210D4801F027F8002170
:104250003E20FDF793FF1320FEF788FB0620FEF7B4
:1042600073FB08B9032006E00320FEF76DFB08B9D5
:10427000042000E00020BDE80840FFF73BBD00BF80
:10428000002C01402DE9F84F9A4801F018FA9A4A9B
:104290000546136823F001031360984A1368144617
:1042A000591E012902D9052B40F0BC805520FDF78D
:1042B0005DFF934B0746D3F80090924BDFF8648282
:1042C0001E78FEF7FFFE2368C6EB0906052BF6B243
:1042D0008D4C10D18D4B21881A688D4B002A1B887C
:1042E000C8F8002007FB03139BB2238062DA002387
:1042F000C8F800305EE0FFF7AFF88346002839D0F9
:10430000FEF776FD38B30920FDF730FF042804D00E
:104310000620FDF72BFF814601E04FF001090D203B
:10432000FDF724FF1FFA80FA0020FFF72BF8002F7B
:10433000B8BF8AF4004A09FB00A080B22080FFF7D2
:104340004BF800FB09F02188C8F8000089B263200F
:10435000FDF714FF2EE06D4B21881B6803FA09F26C
:10436000C8F800306B4B1B8892FBF3F35B1103FB27
:1043700007131DE00620FDF7F9FE82463846FFF7D9
:1043800001F88146FFF728F8604B63491B6800FB82
:104390000A305F4B00281A880B88C8F8000007FB1A
:1043A00002339BB20B800AFB0933B8BFC8F800B0D8
:1043B0009BB22380594BD8F8000019684911FEF7C9
:1043C0003BFC8146FEF752FB49465120FDF7D6FEE5
:1043D000D8F800104F20FDF7D9FE2088504C80B24D
:1043E000FEF760FB2368F34023606368F34063607B
:1043F000B9F1000F05D027B1A36823FA06F6A6602D
:1044000003E00023A3606360236022680021394831
:1044100001F01FF962680221364801F01AF9A2681A
:10442000042155E0DA1E012A17D8364B512019789D
:104430003A4B1A6864238A40521192FBF3F201232B
:104440008B40A3F163018A42A8BFA3F1640222EA70
:10445000E2742146FDF792FE38E0062B3BD12B4B50
:104460002B491868284B09881E461C882D4A214470
:10447000002889B21980B8BF00231060B8BF13604C
:1044800011684F20FDF782FE308880B2FEF78CFA6B
:104490000446308880B2FEF787FA204B40421B6802
:1044A000002103FB04F24343642492FBF4F293FBE8
:1044B000F4F41D4B52111B7802F50042641104F50F
:1044C00000441A410B481C4101F0C3F82246022166
:1044D000084801F0BEF8074801F0F1F8401B002839
:1044E000B8BF4042482190FBF1F1BDE8F84F62208F
:1044F000FDF744BE002C0140102C0140FC060020BA
:10450000F46F00080C070020F8060020F4060020D5
:10451000080700200A070020F006002004070020FA
:10452000A0020020100700200007002010B50D4C4D
:104530000021204601F01EF82046022101F01AF861
:104540002046042101F016F82046012101F012F85E
:104550002046032101F00EF82046BDE81040052159
:1045600001F008B8002C014010B50D4C0021204688
:1045700001F025F82046022101F021F8204604210F
:1045800001F01DF82046012101F019F82046032111
:1045900001F015F82046BDE81040052101F00FB8E4
:1045A000002C014008B5154B18600138052804D8C7
:1045B000DFE800F01F1F13171F07BDE80840FFF7D3
:1045C000D3BFFFF7B3FF04210D4800F0F8FFBDE8AB
:1045D000084005210A4800F0F2BFFFF7C5FF03219C
:1045E00002E0FFF7C1FF02210548BDE8084000F0E6
:1045F000C1BFBDE80840FFF799BF00BFFC0600201F
:10460000002C0140F8B55D4B07465D481C780E460E
:1046100000F070FE20215A4800F053FE584800F088
:104620004BFE46F66802574B01251A60682205FAD0
:1046300004F45A60CEB10021514800F076FF022107
:104640004F4800F072FF04214D4800F06EFF2946EC
:104650004B4800F06AFF0321494800F066FF05213E
:10466000474800F062FF032518E03146444800F057
:1046700037FF0221424800F033FF0421404800F098
:104680002FFF29463E4800F02BFF03213C4800F055
:1046900027FF05213A4800F023FF0225384800F0A3
:1046A000EDFF374800F0E5FF354800F0ECFF3448F7
:1046B00000F0EEFF324800F0F0FF314800F0F2FF6A
:1046C00039462F4800F0F3FF00212D4800F09CFFF1
:1046D00002212B4800F098FF0421294800F094FFA4
:1046E0000121274800F090FF0321254800F08CFFAE
:1046F0000521234800F088FF0121214800F0DBFF5D
:1047000080211F4800F0D5FD01211D4800F0C2FDA9
:1047100080211B4800F0BEFDA4B20021184800F023
:10472000F3FD2146164800F0F3FD0121144800F086
:10473000EDFD00221146124800F08BFF00220221FD
:104740000F4800F086FF002204210D4800F081FF91
:104750000B4800F0CAFD2A464FF4E06303210A48E3
:1047600000F0A0FB4FF460432A460321074800F005
:1047700099FB0748B0FBF4F080B2F8BD0C070020AD
:10478000002C0140182C014000080140000C0140A1
:104790000051250238B50F20FDF7E8FC0F4C0B3017
:1047A00020701120FDF7E2FC05461020FDF7DEFC2D
:1047B0000146A8B2FFF726FF094B1880094B1A687B
:1047C000094B1B68934093FBF0F0084B4011188095
:1047D0002378D21A064B1A7038BD00BF0C07002090
:1047E0000A070020F46F0008F406002008070020E4
:1047F000000700208368DB075EBF836843F0010386
:10480000836070478368DB0742BF836843F001031E
:1048100083607047836823F4E043194381608368B1
:1048200043F4004383607047836800F1080243F05B
:104830000803836013681B07FCD47047836843F048
:104840000403836070478068C0F38000704708B538
:104850000246FFF7F3FF1046FFF7F5FF0028FAD1F5
:1048600008BD092910B50BD8046901EB41010723E4
:104870008B4024EA030302FA01F11943016110BDE0
:104880000A39C46801EB410107238B4024EA030382
:1048900002FA01F11943C16010BD0022134610B5A0
:1048A00001FA02F403321E2A43EA0403F8D1036139
:1048B000002201FA02F40332182A43EA0403F8D171
:1048C000C36010BD836823F00103836070474368B1
:1048D00043F4805343607047436843F480734360FC
:1048E0007047836823F400638360704701390329AC
:1048F0000CD8DFE801F002040608C06B04E0006C8D
:1049000002E0406C00E0806C00B27047002070470D
:10491000836843F00203836070471029F0B537D8ED
:10492000002426462746254601238B422AD8062BFB
:1049300098BF92F800E002F101029CBF0EFA04FE5B
:1049400046EA0E06A3F1070EBEF1050F9FBF12F84F
:1049500001ECA4F11E0C0EFA0CFE47EA0E07A3F1BF
:104960000D0EBEF1050F9EBF12F801ECA4F13C0C38
:104970000EFA0CFE03F1010398BF45EA0E05DBB207
:104980000534D2E7013945EA0155C562076346633C
:10499000F0BD042970B50EDC54180F250023944295
:1049A00005D014F8016DAE403343053DF7E70139FA
:1049B00043EA0153836370BD013903290AD8DFE854
:1049C00001F0020406084261704782617047C261CB
:1049D000704702627047836800F1080243F4800365
:1049E000836013685B02FCD47047836800F108029F
:1049F00043F40013836013689B02FCD47047836800
:104A000043F4807383607047044B98420CBF40F2BC
:104A1000192040F21A2000F03EBF00BF00640040A1
:104A20002DE9F34104689DF820C024F002040460DD
:104A300004689DF824E044F0010404604FF6FF741C
:104A40009DF828709DF83C509DF840600194019CB1
:104A5000013C019414B14468E407F8D5D0F804800F
:104A6000041D18F0010F69D04FF00008C0F81C8039
:104A700019B1016841F0800102E0016821F0800174
:104A800001601AB1026842F0400202E0026822F0BE
:104A9000400202601BB1036843F0200302E0036898
:104AA00023F0200303600368BCF1000F02D043F041
:104AB000100301E023F0100303600368BEF1000F50
:104AC00002D043F0080301E023F008030360036809
:104AD00017B143F0040301E023F004030360C3694A
:104AE00016B143F0004301E023F00043C361C36902
:104AF00015B143F0804301E023F08043C3610E9B76
:104B00000D99013BC3F309030B430C99C2690B4395
:104B10000B990B431343C361036823F00103036044
:104B20004FF6FF730193019B013B019313B123687F
:104B3000DB07F8D4406800F0010000E0012002B07B
:104B4000BDE8F081F0B5D0F80052012445F0010530
:104B50008C40C0F80052E543D0F81C629DF82070EC
:104B60002E40C0F81C621AB1D0F80C22224302E099
:104B7000D0F80C222A40C0F80C221BB1D0F8043225
:104B8000234302E0D0F804322B40C0F80432059BE6
:104B900000EBC101C1F84032069BC1F84432079BCB
:104BA0002BB1D0F814322343C0F8143204E0D0F80B
:104BB00014321D40C0F8145227B1D0F81C321C43E7
:104BC000C0F81C42D0F8003223F00103C0F80032D4
:104BD000F0BD1FB59DF81C400394069C8DE81C0099
:104BE00000230122FFF7AEFF04B010BD4369194353
:104BF00041617047F0B5044680689DF814E04001BB
:104C0000069D08D4A068000109D4A068C0000AD499
:104C10004FF0FF30F0BD4FF4C07C002006E04FF4B1
:104C2000C87C012002E04FF4D07C02201AB1C900F8
:104C300041F0040100E0490544F80C102BB154F890
:104C40000C2042F0020244F80C2004EB0C035A68DA
:104C50000EF00F0122F00F025A605A680EF1FF3E6B
:104C60000A435A60BEF1070F1FD8DFE80EF01B1889
:104C700015110E0B0804EA79002762F31F67AA7961
:104C800062F317476A7962F30F272A7962F30707FD
:104C9000EA78002662F31F66AA7862F317466A78FC
:104CA00062F30F262A7862F307069E60DF601A68B7
:104CB00042F001021A60F0BD21B9C36843F020033D
:104CC000C3607047036943F020030361704700002D
:104CD0002DE9F3470E4605462F490DF1080A03C991
:104CE0000AE903000AEB860151F8081CDDF8289058
:104CF00055F801A0DDF82CE01AF0040A1BBF4FF0B4
:104D0000010A89F800A089F800A055F801900ABFAF
:104D100055F801904FEAD9094FEA5959C3F8009064
:104D20006B58681813F0020318BF01238EF8003087
:104D30004368DDF830801B0A88F800304368DDF8EE
:104D400034C00F9F03F00F030E9C8CF8003017B196
:104D500043681B0C3B808168C368C1F30720217046
:104D60006070C1F30740C1F30761E170C3F307212D
:104D700023716171C3F30741C3F30763A070A1718D
:104D8000E37132B13146284602B0BDE8F047FFF783
:104D900093BF02B0BDE8F0877C820008064B18681C
:104DA000064B1B889BB2B3F5007F82BF044B1B6888
:104DB000184300F0350070470C200240E0F7FF1F59
:104DC0004C20024038B504460D4600F025FE124B3B
:104DD0001B889BB2B3F5007F04D9104B9C4201D9CC
:104DE0000F4A00E00F4A136843F001031360258067
:104DF00000F012FE084B1B889BB2B3F5007F04D96C
:104E0000064B9C4201D9064A00E0064A136823F08B
:104E10000103136038BD00BFE0F7FF1FFFFF070865
:104E2000502002401020024010B5044600F0F4FD6E
:104E3000164B1B889BB2B3F5007F09D9144B9C42DB
:104E400006D9144B1A6842F002021A60124A05E0B1
:104E5000124B1A6842F002021A60114A14601A6872
:104E600042F040021A6000F0D7FD084B1B889BB24D
:104E7000B3F5007F04D9064B9C4201D9054A00E0F6
:104E8000064A136823F00203136010BDE0F7FF1F0A
:104E9000FFFF07085020024054200240102002402B
:104EA000142002402DE9F0434FF6E07796469C46E9
:104EB0000268436800254FF00F084CFA05F4E40738
:104EC00019D5072DACB28BBF3C4616461E46A40032
:104ED00098BFA4B208FA04F926EA090604F1020907
:104EE0000EFA09F901FA04F449EA04043443082DDE
:104EF0002CBF2346224601350437102DBFB2DCD12A
:104F000002604360BDE8F083024A136843F0807397
:104F10001360704700100240062822D8DFE800F036
:104F200004090E13181A1C000F4B1868C0F34060D8
:104F300070470D4B1868C0F3C06070470A4B186883
:104F4000C0F340707047084B1868C0F3404070478A
:104F5000054B02E0054B00E0054B1868C0F340002C
:104F600070470020704700BF001002402010024030
:104F700024100240024608B51046FFF7CDFF002876
:104F8000FAD008BD06281FD8DFE800F004060B1091
:104F900015171900FFF7B8BF0C4A136843F0806378
:104FA00011E00A4A136843F080530CE0074A136883
:104FB00043F4803307E0054A02E0054A00E0054A71
:104FC000136843F001031360704700BF00100240F4
:104FD0002010024024100240034A136823F0030308
:104FE00018431060704700BF04100240034A136862
:104FF00023F4701343EA80401060704704100240AD
:10500000034A136823F4803343EA0040106070477A
:1050100004100240034A136823F4003343EA40407B
:105020001060704704100240034A136823F44043A1
:1050300043EA80301060704704100240034A13684E
:1050400023F4605343EAC02010607047041002400C
:10505000034A136823F4E06343EA002010607047BA
:1050600004100240034A136823F0F00343EA0010DF
:10507000106070470410024008B50420FFF782FF5B
:105080000420FFF777FF0020FFF7A6FF0320FFF7BC
:1050900079FF0320FFF76EFF0120FFF79DFF00203F
:1050A000FFF7E0FF0320FFF7BFFF0420FFF7D0FF6B
:1050B0000020FFF7C3FF022000F08AFC0720FFF763
:1050C00095FF0120FFF79CFF0020FFF7A3FFFFF7EC
:1050D0001BFF0020FFF74EFF0220FFF77DFF044B70
:1050E000044A05491360054A1160054A136008BD6A
:1050F00000A24A04C001002000512502C401002082
:10510000C8010020024A136843F00103136070478E
:1051100008300240014B18601868704700300240A8
:1051200010B5064A00238B4204DA50F823400133BD
:105130001460F8E7014B186810BD00BF0030024052
:1051400014230139594308300B5823F440630B50A2
:105150000B581A430A507047142301395943083039
:105160000B5823F440730B500B581A430A507047E6
:1051700014230139594308300B5843F080030B5076
:10518000704714230139594308300B5843F020036A
:105190000B500B5823F480430B50704714230139F4
:1051A000594308300B5843F001030B507047142348
:1051B0000139594308300B5823F001030B50704755
:1051C0001423013903FB01008368DB0758BF026128
:1051D00070471423013903FB01008368DB0758BFC4
:1051E000426170470139142359430C300A5070470B
:1051F0000161704709040161704780680840704789
:10520000C36803EA010221EA030141EA02410161A4
:10521000704700001C4B984228D00DD8A3F50063BE
:1052200098421DD003F5806398421CD0B0F1804FA6
:1052300029D14FF4007024E0144B98421CD004D8BC
:10524000A3F58063984214D07047114B984204D064
:1052500003F50063984212D0704740F28B1010E0C3
:1052600040F201200DE040F202200AE040F203206B
:1052700007E04FF4017004E040F2052001E040F245
:105280008D1000F008BB7047000C00400014004077
:10529000002C0140C3681943C1607047C36823EA0A
:1052A0000101C160704703690B4214BF0120002057
:1052B0007047C94301617047036843F0800303608E
:1052C0007047036801F0600123F060030360036826
:1052D0000B4303607047036823F0100303607047BB
:1052E000036843F0080303607047036843F0010359
:1052F00003607047036823F001030360704743684D
:1053000023F0080343607047816270470163704770
:10531000C1627047062900F2C880DFE811F007007B
:10532000C6003600C6006800C6009600836923F0F8
:105330000303836183698361836923F0700383615D
:10534000072A00F2B280DFE802F03304080C1014E0
:10535000181C836943F0100347E0836943F020037E
:1053600043E0836943F030033FE0836943F0400347
:105370003BE0836943F0500337E0836943F0600307
:1053800033E0836943F070032FE0836923F44073B3
:10539000836183698361836923F4E0438361072A1E
:1053A00000F28380DFE802F004060A0E12161A1ECD
:1053B00083691AE0836943F4805316E0836943F4F8
:1053C000005312E0836943F440530EE0836943F4D1
:1053D00080430AE0836943F4A04306E0836943F411
:1053E000C04302E0836943F4E04383617047C369CB
:1053F00023F00303C361C369C361C36923F070036E
:10540000C361072A51D8DFE802F03204080C1014F7
:10541000181CC36943F0100346E0C36943F020033E
:1054200042E0C36943F030033EE0C36943F0400308
:105430003AE0C36943F0500336E0C36943F06003C8
:1054400032E0C36943F070032EE0C36923F4407374
:10545000C361C369C361C36923F4E043C361072A1D
:1054600023D8DFE802F004060A0E12161A1EC369DA
:105470001AE0C36943F4805316E0C36943F4005350
:1054800012E0C36943F440530EE0C36943F4804320
:105490000AE0C36943F4A04306E0C36943F4C04390
:1054A00002E0C36943F4E043C3617047062916D89C
:1054B000DFE801F0041508150D151100836943F0AC
:1054C000080302E0836943F4006383617047C369A2
:1054D00043F0080302E0C36943F40063C36170470B
:1054E000062921D8DFE801F0041408180C1C10006C
:1054F000036A23F0020316E0036A23F0200312E09C
:10550000036A23F400730EE0036A23F400530AE0F5
:10551000036A23F0080306E0036A23F0800302E035
:10552000036A23F4006303627047062921D8DFE889
:1055300001F0041408180C1C1000036A43F0020365
:1055400016E0036A43F0200312E0036A43F4007399
:105550000EE0036A43F400530AE0036A43F00803D1
:1055600006E0036A43F0800302E0036A43F4006349
:1055700003627047062921D8DFE801F004140818F7
:105580000C1C1000036A43F0010316E0036A43F0A9
:10559000100312E0036A43F480730EE0036A43F4DD
:1055A00080530AE0036A43F0040306E0036A43F011
:1055B000400302E0036A43F48063036270470629F4
:1055C00021D8DFE801F0041408180C1C1000036A4D
:1055D00023F0010316E0036A23F0100312E0036ACC
:1055E00023F480730EE0036A23F480530AE0036A15
:1055F00023F0040306E0036A23F0400302E0036A99
:1056000023F4806303627047062921D8DFE801F0A4
:1056100004080C1014181C00436823F4807316E06F
:10562000436823F4007312E0436823F480630EE0C0
:10563000436823F400630AE0436823F4805306E0E0
:10564000436823F4005302E0436823F4804343603B
:10565000704706290CD8DFE801F0040B060B080B95
:105660000A004263704782637047C26370470264F6
:105670007047436C43F4004343647047436C23F426
:10568000804343647047436C43F400534364704762
:10569000436C43F4805343647047436C43F40063AA
:1056A00043647047436C43F4806343647047436CC6
:1056B0001943416470474369194341617047406A27
:1056C000704741627047032924D8DFE801F0020ADD
:1056D000131B836923F0F0038361836943EA021299
:1056E00006E0836923F470438361836943EA0232ED
:1056F00082617047C36923F0F003C361C36943EA61
:10570000021206E0C36923F47043C361C36943EA2C
:105710000232C261704701F0FD03012B02F0030267
:1057200004D1531E012B98BF82F00302032922D813
:10573000DFE801F002091219836923F00303836192
:1057400083691A4306E0836923F4407383618369A4
:1057500043EA022282617047C36923F00303C361F5
:10576000C3691A4306E0C36923F44073C361C36984
:1057700043EA0222C2617047036A8900012202FAE9
:1057800001F10B4303627047836823F47063836005
:10579000836843EA012181607047836811B143F453
:1057A000004301E023F4004383607047836823F0E3
:1057B000070383608368194381607047836823F01F
:1057C000700383608368194381607047064A074B02
:1057D00090421B6804BF064B1B6801EB4303490062
:1057E000B3FBF1F38360704700380140C40100202F
:1057F000C8010020C36808290CBF23F4805343F478
:105800008053C3607047036923F440531943016117
:105810007047C36823F4C0631943C1607047C3680D
:1058200023F00C031943C1607047436923F44073AC
:10583000194341617047C36843F40053C360704724
:1058400038B504460D4600F00EF829462046BDE85E
:10585000384000F000B8C1F308014160704740686B
:10586000C0F30800704703681B06FCD57047036847
:105870000B4214BF012000207047430903F180430D
:1058800003F504331A6800F01F00012101FA00F04B
:10589000104318607047430903F1804303F5043354
:1058A0001968012200F01F0002FA00F040EA01022C
:1058B0001A601A6822EA00001860704701290BD0AC
:1058C00002D302290DD070470A4A136803431360BC
:1058D000536823EA00000AE0064A136823EA00033B
:1058E00002E0044A1368034313605368184350608E
:1058F000704700BF08040140034A13680343136064
:10590000536818435060704700040140C043044A84
:10591000136803401360536818405060704700BF1D
:1059200000040140014B1860704700BF140401409F
:105930002DE9F04FDFF888C0DFF88880DFF8889025
:10594000DFF888A000224FF0010E0F270EFA02F3B5
:1059500003422AD0174B994211D005D849450CD0A3
:10596000514512D1022311E0134B994209D06145F0
:1059700009D0414509D1042308E0012306E00323AF
:1059800004E0052302E0062300E000230B4C22F094
:105990000306344402F00305AD00266807FA05FB50
:1059A00026EA0B06AB401E4326600132102ACDD1F9
:1059B000BDE8F08F00140140001C014008000140C8
:1059C0000020014000180140000C0140001001407F
:1059D000034A136823F0070318431060704700BFA1
:1059E00000200240054A136843F080031360044B13
:1059F000044A1A6002F188321A607047102002408F
:105A00000420024023016745024A136843F08003E3
:105A1000136070471020024008B5FFF7BFF9C307B5
:105A2000FBD408BD38B505460C4689B2FFF7CAF964
:105A3000210CA81CBDE83840FFF7C4B9FEE7704749
:105A4000184C1949194800225318834203D213599C
:105A500053500432F8E7164A0021934202D21960EB
:105A60000433FAE7134A144C1368144D43F40073DB
:105A70001360AC4203D254F8043B9847F9E7104C4A
:105A8000104DAC4203D254F8043B9847F9E7FCF7B9
:105A90007FF90D4C0D4DAC4203D254F8043B9847AE
:105AA000F9E700BF8882000800000020CC01002038
:105AB0001407002014ED00E08482000884820008AE
:105AC0008482000888820008888200088882000892
:105AD000014A024B1A60FEE70400FA050CED00E0F3
:105AE00043099B0003F1604300F01F00012203F50E
:105AF000614302FA00F0186070470000432893BF2A
:105B000000F16040044B00F00F0000F564408CBFD2
:105B1000C1540170704700BF14ED00E0000204069C
:105B20004D6F746F7200626F6F7374006469670009
:105B3000667765616B007564636E6F6D0066706398
:105B40006F6E73740066736C69706D696E00667356
:105B50006C69706D617800706F6C657061697273EB
:105B600000616D706D696E002500656E63666C7412
:105B700000656E636D6F646500303D53696E676CE0
:105B8000652C20313D41422C20323D41425A2C208F
:105B9000333D5350492C20343D5265736F6C76650C
:105BA0007200666D696E00666D6178006E756D6974
:105BB0006D7000496D702F7265760073796E636F3A
:105BC000667300736E736D00323D4B545938332D3C
:105BD0003131302C20333D4B545938342D31333052
:105BE00000496E7665727465720070776D667271C9
:105BF00000303D31372E366B487A2C20313D382E1F
:105C0000386B487A2C20323D342E344B487A2C2085
:105C1000333D322E326B487A2C20343D312E316B9D
:105C2000487A0070776D706F6C00303D4143544886
:105C30004947482C20313D4143544C4F570064653F
:105C4000616474696D65006F6375726C696D006D78
:105C5000696E70756C736500696C316761696E009F
:105C60006469672F4100696C326761696E00756411
:105C7000636761696E006469672F56007564636FBE
:105C80006673007564636C696D00736E736873008E
:105C9000303D4A43757276652C20313D53656D6900
:105CA0006B726F6E00436861726765720063686152
:105CB0007267656D6F646500303D4F66662C2033FA
:105CC0003D426F6F73742C20343D4275636B0063EB
:105CD0006861726765637572006368617267656B9E
:105CE0007000636861726765666C740063686172F6
:105CF00067656D6178005468726F74746C650070CC
:105D00006F746D696E00706F746D617800706F7480
:105D1000326D696E00706F74326D617800706F74EF
:105D20006D6F646500303D53696E676C65526567E1
:105D3000656E2C20313D4475616C4368616E6E6503
:105D40006C007468726F7472616D7000252F313051
:105D50006D7300526567656E0062726B6E6F6D7079
:105D60006564616C0062726B706564616C72616D18
:105D7000700062726B6E6F6D0062726B6D617800A5
:105D800062726B72616D707374720062726B6F75A8
:105D900074004175746F6D6174696F6E0069646C35
:105DA0006573706565640072706D0069646C65741C
:105DB00068726F746C696D0069646C656D6F6465A1
:105DC00000303D616C776179732C20313D6E6F62DC
:105DD00072616B652C20323D637275697365007367
:105DE000706565646B70007370656564666C7400E3
:105DF0006372756973656D6F646500303D427574DB
:105E0000746F6E2C20313D5377697463680044656C
:105E1000726174696E6700626D736C696D68696741
:105E20006800626D736C696D6C6F77007564636D8B
:105E3000696E007564636D617800436F6E746163B1
:105E4000746F7220436F6E74726F6C00756463734D
:105E5000770075646373776275636B0041757820B2
:105E600050574D0070776D66756E6300303D746DF0
:105E7000706D2C20313D746D7068732C20323D7331
:105E8000706565640070776D6761696E006469674D
:105E90002F430070776D6F6673007370656564677C
:105EA00061696E0072706D2F6B487A00546573746F
:105EB000696E670066736C697073706E7400616DF3
:105EC000706E6F6D0076657273696F6E006F706DC6
:105ED0006F646500303D4F66662C20313D52756E13
:105EE0002C20323D4D616E75616C52756E2C2033E5
:105EF0003D426F6F73742C20343D4275636B2C20D0
:105F0000353D53696E652C20363D416348656174AB
:105F1000007564630069646300696C3100696C3208
:105F20000075616300696C31726D7300696C327267
:105F30006D7300626F6F737463616C630064696793
:105F4000697400667765616B63616C630069640006
:105F50006971006B57006B5641007066004E6D0012
:105F6000667374617400706F7400706F74320070C7
:105F70006F746E6F6D00646972002D313D5245562D
:105F80002C20303D4E45555452414C2C20313D463D
:105F9000574400746D70687300C2B04300746D7034
:105FA0006D00756175780064696E5F637275697301
:105FB000650064696E5F73746172740064696E5F1A
:105FC0006272616B650064696E5F6D70726F740000
:105FD00064696E5F666F72776172640064696E5F98
:105FE000726576657273650064696E5F656D63796D
:105FF00073746F700064696E5F6F637572006469BB
:106000006E5F626D7300746D5F6D656173007573B3
:1060100000616E676C6500C2B0000000205B000884
:10602000265B00082C5B000800000000A076120030
:1060300080D4000001000000205B0008305B0008F5
:10604000A95E000800000000007D0000400B000079
:1060500002000000205B0008365B00087A5C000844
:1060600000000000007D0000000000004E00000065
:10607000205B00083D5B0008A95E000800000000EE
:10608000007D0000007D00003C000000205B000857
:10609000455B0008A95E0008000000004001000008
:1060A0002000000025000000205B00084E5B000877
:1060B000A95E000800000000400100006000000030
:1060C00021000000205B0008575B00085A6E0008A2
:1060D000200000000002000040000000200000003E
:1060E000205B0008615B0008685B0008000000009E
:1060F000800C00004001000004000000205B00084C
:106100006A5B00085A6E00080000000000020000F0
:106110002000000006000000205B0008715B000802
:10612000795B000800000000800000000000000013
:106130004B000000205B0008A25B0008A95E00087D
:1061400000000000003200002000000022000000DB
:10615000205B0008A75B0008A95E000800000000A3
:10616000007D00000019000009000000205B00080D
:10617000AC5B0008B35B00080001000000000400F5
:10618000800700000F000000205B0008BB5B0008D8
:106190002C5B000800000000E0FF1F000000000072
:1061A00046000000205B0008C35B0008C85B0008D5
:1061B0004000000060000000400000002E000000D1
:1061C000E15B0008EA5B0008F15B000800000000EA
:1061D00080000000200000000D000000E15B0008CE
:1061E000235C00082A5C000800000000200000007A
:1061F0000000000034000000E15B00083E5C000885
:106200002C5B000800000000E01F0000E007000019
:106210000E000000E15B0008475C0008645C0008B9
:106220000000E0FF00002000800C000016000000CD
:10623000E15B00084F5C00082C5B000800000000D8
:10624000E0FF0100007D000018000000E15B000895
:10625000585C0008605C000880F3FFFF800C0000C1
:10626000960000001B000000E15B0008665C00086F
:10627000605C000880F3FFFF800C000096000000C7
:106280001C000000E15B00086E5C0008765C000802
:1062900000000000E0FF0100C50000001D0000003C
:1062A000E15B00087C5C00082C5B0008000000003B
:1062B000E0FF0100000000004D000000E15B00086D
:1062C000835C00087A5C000800000000007D00008C
:1062D0008043000030000000E15B00088A5C000899
:1062E000905C00080000000020000000000000009A
:1062F0002D000000A55C0008AD5C0008B85C00083B
:106300000000000080000000000000004A000000C3
:10631000A55C0008CF5C0008645C00080000000079
:10632000400600000000000047000000A55C0008D7
:10633000D95C00082C5B000800000000800C000005
:10634000000A000048000000A55C0008E25C0008AC
:106350002C5B00080000000040010000000100006C
:1063600049000000A55C0008EC5C0008685B0008C0
:1063700000000000600C0000400B00004F00000017
:10638000F65C0008FF5C00082C5B000800000000C1
:10639000E0FF01000000000011000000F65C0008B2
:1063A000065D00082C5B000800000000E0FF010013
:1063B000E0FF010012000000F65C00080D5D00081F
:1063C0002C5B000800000000E0FF0100E0FF01007E
:1063D0003F000000F65C0008155D00082C5B00081B
:1063E00000000000E0FF0100E0FF010040000000AD
:1063F000F65C00081D5D0008255D00080000000037
:10640000200000000000000052000000F65C0008C0
:10641000425D00084C5D000820000000800C000078
:10642000800C000051000000535D0008595D000819
:10643000685B000880F3FFFF00000000C0F9FFFF69
:1064400026000000535D0008655D00084C5D0008F3
:1064500020000000800C0000800C000044000000C0
:10646000535D0008725D0008685B000800000000D2
:10647000800C0000C003000013000000535D000802
:10648000795D0008685B000800000000800C0000D7
:10649000C003000031000000535D0008805D00086B
:1064A000A95E00080000000000320000400100006A
:1064B00027000000535D00088B5D0008685B000842
:1064C00080F3FFFFE0FFFFFFC0F9FFFF4300000084
:1064D000925D00089D5D0008A75D000880F3FFFF46
:1064E000007D000080F3FFFF36000000925D000891
:1064F000AB5D0008685B000800000000800C000035
:106500004006000041000000925D0008B85D0008F0
:10651000C15D000800000000400000000000000015
:1065200042000000925D0008DF5D00085A6E00081E
:1065300000000000800C0000080000003500000092
:10654000925D0008E75D00085A6E00080000000038
:1065500000020000A000000039000000925D000869
:10656000F05D0008FB5D0008000000002000000056
:10657000000000003E0000000E5E0008175E0008EC
:10658000685B000800000000800C0000400600006E
:10659000370000000E5E0008225E0008685B0008FD
:1065A00080F3FFFF00000000E0FFFFFF3800000065
:1065B0000E5E00082C5E00087A5C000800000000F7
:1065C000007D0000403800002A0000000E5E000838
:1065D000335E00087A5C000800000000007D0000C7
:1065E000004100002B0000003A5E00084C5E0008ED
:1065F0007A5C000800000000007D000040290000D7
:10660000140000003A5E0008525E00087A5C000840
:1066100000000000007D00008043000050000000EA
:106620005C5E0008645E00086C5E0008000000000C
:1066300040000000000000003A0000005C5E00081E
:10664000855E00088D5E00082000E0FFE0FF1F006F
:10665000800C0000280000005C5E0008935E0008CB
:106660002C5B00082000E0FFE0FF1F00000000009E
:10667000290000005C5E00089A5E0008A45E000825
:1066800000000000E0FF1F0000EE02003B000000E1
:10669000AC5E0008B45E0008A95E000880F3FFFF4E
:1066A000007D00000000000000000000AC5E00085B
:1066B000BE5E0008685B000800000000800C00005F
:1066C0000000000000000000AC5E0008C55E00088D
:1066D0005A6E000800000000000000007400000076
:1066E0000000000000000000CD5E0008D45E00083D
:1066F000000000000000000000000000000000009A
:1067000000000000115F00087A5C00080000000033
:106710000000000000000000000000000000000079
:10672000155F0008645C0008000000000000000025
:10673000000000000000000000000000195F0008D9
:10674000645C000800000000000000000000000081
:1067500000000000000000001D5F0008645C0008ED
:106760000000000000000000000000000000000029
:1067700000000000215F00087A5C000800000000B3
:106780000000000000000000000000000000000009
:10679000255F0008645C00080000000000000000A5
:1067A0000000000000000000000000002C5F000856
:1067B000645C000800000000000000000000000011
:1067C0000000000000000000335F00083D5F00088B
:1067D00000000000000000000000000000000000B9
:1067E00000000000435F0008A95E000800000000F0
:1067F0000000000000000000000000000000000099
:106800004D5F0008645C000800000000000000000C
:10681000000000000000000000000000505F0008C1
:10682000645C0008000000000000000000000000A0
:106830000000000000000000E55D0008535F000854
:106840000000000000000000000000000000000048
:1068500000000000515F0008565F000800000000C3
:106860000000000000000000000000000000000028
:106870000C600008565F00080000000000000000E7
:106880000000000000000000000000005A5F000847
:106890005A6E000800000000000000000000000028
:1068A00000000000000000000F5F00085D5F0008AE
:1068B00000000000000000000000000000000000D8
:1068C00000000000605F0008A95E000800000000F2
:1068D00000000000000000000000000000000000B8
:1068E0007F5E0008A75D00080000000000000000B7
:1068F0000000000000000000000000006E5D0008C5
:106900002C5B0008000000000000000000000000F8
:106910000000000000000000665F00082C5B00081B
:106920000000000000000000000000000000000067
:10693000000000006A5F00082C5B000800000000F7
:106940000000000000000000000000000000000047
:106950006F5F0008685B0008000000000000000096
:10696000000000000000000000000000765F00084A
:106970007A5F000800000000000000000000000036
:106980000000000000000000935F0008995F00080D
:1069900000000000000000000000000000000000F7
:1069A000000000009D5F0008995F000800000000E3
:1069B00000000000000000000000000000000000D7
:1069C000A25F00087A5C00080000000000000000E0
:1069D000000000000000000000000000A75F0008A9
:1069E0005A6E0008000000000000000000000000D7
:1069F0000000000000000000B25F00085A6E0008AE
:106A00000000000000000000000000000000000086
:106A100000000000BC5F00085A6E00080000000083
:106A20000000000000000000000000000000000066
:106A3000C65F00085A6E0008000000000000000059
:106A4000000000000000000000000000D05F00080F
:106A50005A6E000800000000000000000000000066
:106A60000000000000000000DC5F00085A6E000813
:106A70000000000000000000000000000000000016
:106A800000000000E85F00085A6E000800000000E7
:106A900000000000000000000000000000000000F6
:106AA000F55F00085A6E00080000000000000000BA
:106AB000000000000000000000000000FE5F000871
:106AC0005A6E0008000000000000000000000000F6
:106AD0000000000000000000066000080E600008D2
