:020000040800F2
:1010000000500020E1550008DF550008DD550008BC
:10101000DD550008DD550008DD5500080000000022
:10102000000000000000000000000000DF55000884
:10103000DF55000800000000DF550008DF550008FC
:10104000DD550008DD550008DD550008DD550008B8
:10105000DD550008DD550008DD550008DD550008A8
:10106000812F0008DD550008DD550008DD5500081A
:10107000DD550008DD550008DD550008DD55000888
:10108000DD550008DD550008DD550008DD55000878
:10109000953B0008DD550008DD550008DD550008CA
:1010A000313D0008713D0008DD550008DD550008A0
:1010B000691F0008DD550008DD550008DD550008F2
:1010C000DD550008DD550008DD550008DD55000838
:1010D000DD550008DD550008DD550008DD55000828
:1010E000DD550008DD550008DD550008DD55000818
:1010F000DD550008DD550008DD550008DD55000808
:10110000DD550008DD550008DD550008DD550008F7
:10111000DD550008DD550008DD550008DD550008E7
:10112000DD550008DD550008DD550008DD550008D7
:10113000DD550008DD550008DD550008DD550008C7
:10114000DD550008DD550008DD550008DD550008B7
:10115000F8B5132000F0F2FF144B0227054609CB27
:10116000184490FBF7F4152000F0E8FF064616201F
:1011700000F0E4FF304490FBF7F068434011221A7E
:101180000B4D2044521144113946284622EAE2729E
:1011900003F0E6FFB4F5805F22462846BDE8F8403C
:1011A000A8BF4FF48052042103F0DABFCC01002025
:1011B000000800402DE9F04F3B2085B000F0C4FF4F
:1011C000B14B01901A684FF0000A01321A6018689A
:1011D00002F0E2FAD046AD4EAD4FDFF8B8925FFABA
:1011E0008AF5A81DC0B202F025F8019B44014FEA20
:1011F0008A0B1BB947F82A40FFF7AAFF57F80B00E4
:10120000241A05F11500C0B200F098FF640194FBA8
:10121000F0F405F13E002146C0B200F0A5FF56F8FB
:10122000041F002CB8BF6442A142B8BF2146D9F8C0
:1012300000B03160BBF1000F0AD11622514305F115
:10124000420049113160C0B200F08EFFC6F800B014
:101250002402A0450AF1010AB8BFA046BAF1020F64
:10126000BDD18C4B1B68002B40F099804F2000F0C3
:1012700065FF07464E2000F061FF04463E2000F067
:101280005DFF05463F2000F059FF06463C2000F078
:1012900055FF814B7F011B88DFF814925B0197FBA0
:1012A000F3FB16235843471102F020FD3146024656
:1012B000284602F073F9794AD9F8001010684943BA
:1012C0004043491101EB6010039201F0A9FB0BFBB5
:1012D00007F77F1100FB07F14FF47A7E491191FB6C
:1012E000FEF10BFB01F14B113C2194FBF1F4039A4D
:1012F00002931368C92103FB07F56D110BFB05F57C
:101300004C436D116E014FEA641A96FBFAFA5E01C6
:1013100096FBF0F6D9F8001026EAE67601FB07F412
:10132000641194FBFEF4202E4FF03B00A8BF202652
:1013300095FBFEF500F008FF0BFB04F402284FEAD2
:101340006414039A0ADC1168162301FB0BF149119E
:1013500059433D20491100F007FF039A11684620C8
:1013600000F002FFD9F80010472000F0FDFE3946DA
:10137000412000F0F9FE31464B2000F0F5FE2946F1
:10138000482000F0F1FE2146492000F0EDFE0299D0
:101390004A2000F0E9FE51464C2000F0E5FE3D4AAF
:1013A0003F4C13680133DBB21360236873B911201B
:1013B00001F04AFA372000F0C7FE05464E2000F043
:1013C000C3FE400095FBF0F5256001E0013B236082
:1013D000344B354C1B78002B51D0344D1E202E68D9
:1013E00000F0B2FE06FA00F080442868C0EB08085E
:1013F0001E2000F0A9FE48FA00F028601C2000F032
:101400009DFE2268D30203EB0020801AC0122060E8
:101410001D2000F099FE23682C681C1B60434411BA
:101420002146392000F0A0FE019B3D20032B01BF87
:101430002B68C4F548615943642306BF491191FBE9
:10144000F3F12968091200F08FFE542000F076FEB7
:1014500002F096F9B4EB401F05DB542000F06EFE5D
:1014600002F08EF9440124EAE470B0F5406FA8BFA1
:101470004FF4406005B0BDE8F04F02F03DBC236082
:1014800005B0BDE8F08F00BFD8010020FC010020AE
:10149000CC010020F00100209C6A0008BC03002061
:1014A000E8010020EC010020F4010020FC010020F4
:1014B000C003002070B5532000F046FE0446102003
:1014C00001F0C2F901F03AFD01464E2000F044FE61
:1014D00002F0A6F901F032FD632814D8042001F0CF
:1014E0008DF928B1052001F089F908B901240AE035
:1014F000042001F083F930B9052001F07FF90028BC
:1015000018BF4FF0FF34042001F078F9054605209C
:1015100001F074F9854208BF0024204602F07EF8ED
:10152000062001F06BF948B1032001F067F928B1FA
:10153000072001F063F908B1012100E000215E20DD
:1015400000F00AFE022001F059F9344D064620B1A0
:10155000334B4FF0FF321A6017E02E2000F0F4FDFD
:1015600038B901F04BF980B101F0E8FC2C4B186060
:101570000BE0304601F042F910B12B78002B48D037
:10158000002001F03BF90028E2D0002001F036F9FC
:1015900021462870532000F0DFFD002001F02EF9D5
:1015A0000146572000F0D8FD012001F027F901463F
:1015B000582000F0D1FD022001F020F90146592009
:1015C00000F0CAFD032001F019F901465A2000F08D
:1015D000C3FD042001F012F901465B2000F0BCFDC0
:1015E000052001F00BF901465C2000F0B5FD062056
:1015F00001F004F901465D2000F0AEFD082001F085
:10160000FDF801465F2000F0A7FDBDE8704002F044
:1016100087BA01F093FC024B1860B1E7C8010020C3
:10162000D00300202DE9F04F3B2087B000F08CFD67
:1016300005461B2000F088FD0090312000F07EFD63
:101640008346322000F07AFD8246192000F076FDB4
:101650008146172000F072FD0446022000F06EFD66
:101660008046012000F06AFD0646002000F066FD7D
:101670000746182000F068FD0190052001F0DAFD12
:10168000F822410191FBF2F1562000F06DFD02209D
:1016900001F0D0FDA84A019B116800EB8100401ABF
:1016A0008010C31A9B0293FBF4F4A34510604FF023
:1016B0000E0001DCA24502DA01F0B2F801E001F00F
:1016C000B9F8A14509DA00213B2000F045FD1320BF
:1016D00001F0A6F8052002F065F8B8F1000F0CDD66
:1016E000C8EB04035B0193FBF8F303F12002C3F1A1
:1016F000200356437B4376115F1121463C2000F0C6
:1017000033FD3146452000F02FFD3946442000F0DE
:101710002BFD304601F0F8F9781101F0EFF90020C7
:1017200001F088FD0490012001F084FD0590022065
:1017300001F064F804998246502000F00DFD0599EF
:10174000512000F009FD002104A801F06DFF28B927
:10175000132001F065F8012002F024F8012105A80A
:1017600001F062FF52460599049801F07DFF06469C
:1017700001F0E4FB01F0C6FF8146542000F0DEFCDE
:1017800001F0FEFF074601F0D9FB01F0CFFF8046D4
:101790002B2000F0D9FC002800F0C6812B2000F09F
:1017A000D3FC012803D1BAF1000F00F0BD812B203A
:1017B00000F0CAFC022808D1BAF1000F05D150464A
:1017C00001F01CF8002840F0AF8130465B4A1368F6
:1017D0000392002B0ADD5A4A1268934206DD002E5E
:1017E00003DB03D0464580F2A4814046632F0EDC24
:1017F000002804DB0646BE42A8BF3E4603E07E4208
:101800008642B8BF0646132001F00AF800E00646FB
:101810003146522000F0A0FC352000F095FC064631
:10182000362000F091FC8046342000F08DFC0190C1
:10183000042001F0FFFC8346032001F0FBFC414F34
:1018400002903B68DFF808A1DFF80891032B48D825
:10185000DFE803F002102635152000F0EBFF14201E
:1018600000F0E8FF0123042102983B6001F0C8FD6D
:10187000002738E0152000F0D3FF142000F0DAFF35
:101880000023022205215846CAF80030C9F800306A
:1018900002933A6001F0B4FD029B0746184622E02D
:1018A000152000F0C7FF142000F0BAFF0323052124
:1018B00058463B6001F0A4FD0746002013E01520C8
:1018C00000F0AEFF142000F0ABFF002305215846C6
:1018D0003B6001F095FD04210746029801F090FD60
:1018E00001E000200746DAF80030174A9F42B8BFEF
:1018F0001F46D9F80030CAF800709842B8BF1846A1
:101900001368824603EBC733DB1BDB1313600F4AFC
:10191000C9F80000136803EB80431B1A9B14136083
:10192000019B012B03D0022B16D0421100E07A114B
:1019300006FB028215E000BFDC010020D00300207E
:10194000E403002008020020D40100200C02002043
:10195000E0010020F80100204E2000F0EFFB00FB2A
:10196000068282F310020621924803F0F9FB394601
:10197000542000F0F9FB5146552000F0F5FB0A20F9
:1019800001F07CFA012D40F08E80042000F0D6FB9F
:101990000746072000F0D2FB8046522000F0CEFB25
:1019A000B0F1000A33DB4FEA4A09BAF5C86FC84400
:1019B0002BDB052000F0C2FB8246032000F0BEFBBB
:1019C00006464D2000F0BAFB8346284600F0B6FBE1
:1019D0008345C6BF5E44A6EB4006CBEB0606760009
:1019E000760196FBF0F0C7EB0A03A9F54869584366
:1019F00003FB09F34FF064095B1193FBF9F30AEB66
:101A000060101F448742A8BF074612201FE027200E
:101A100000F094FB064601F073FA8642CAF1000812
:101A2000C7F1000708D901F06BFA4001B0FBF6F0EE
:101A300008FB00F84FEA5818282000F07FFB4042CE
:101A400040454FF0120002DC00F0EAFE01E000F039
:101A5000F1FE392000F072FBC000B8F5486FD4BF2A
:101A6000804400F54868392000F068FBC0EB0801AD
:101A7000C910392000F078FB382000F05FFB07EB3D
:101A8000C007382000F05AFB391AC910382000F07E
:101A90006BFB392000F052FB02F02EF9382000F0E9
:101AA0004DFB02F02FF9332000F048FBA0420DDC83
:101AB000522000F049FB002808DC062000F09EFEC2
:101AC00020B1032000F09AFE002836D13A4C95B997
:101AD000322329464F20236000F03EFB284602F0C7
:101AE00005FB0D2000F0A6FE039A4FF0FF331360B4
:101AF000324B1D705BE02368002B11D102F0EEFB2E
:101B00002846033D02F0F2FA012D2C4B8CBF002534
:101B1000012513201D7000F08DFE4FF0FF3301E012
:101B200045DD013B236042E0B1454846B8BF304641
:101B30004CE6632F7FF75FAE6AE6042000F05EFE9E
:101B4000E8B1052000F05AFEC8B1082000F056FEAA
:101B5000A8B9009B022B12DD009B032B02D10D20A4
:101B600000F05EFE132000F065FE0F2000F062FE24
:101B700000993B2000F0F0FA01F032FEA6E70120C8
:101B800000F03CFE0028A1D00D2000F049FE1320FB
:101B900000F050FE0F2000F04DFE01213B2000F030
:101BA000DBFA01F01DFE054B00221A708EE707B02C
:101BB000BDE8F08F00080040E4010020EC010020A7
:101BC000382838B505D100F0B9FABDE8384002F040
:101BD00099B8392805D100F0B1FABDE8384002F0D3
:101BE0008BB8FFF7B5FA082000F0AEFAC0B201F0EA
:101BF0009DF8092000F0A8FA04460D2000F0A4FA90
:101C0000011C18BF0121201C18BF012000F0D6FFC5
:101C10000C2000F099FA80B201F070F80A2000F070
:101C20008DFA00F049FF0B2000F088FA00F04AFF1F
:101C3000142000F089FA00F029FE1F2000F084FA39
:101C40001B4D1C4C2860202000F07EFA20602120D3
:101C500000F07AFA6860222000F076FA60602520B1
:101C600000F072FA144B1860232000F06DFA134B49
:101C70001860242000F068FA114B1860262000F04C
:101C800063FA104B1860292000F05EFA0E4B1860C2
:101C90002C2000F053FA0D4B18602D2000F054FA60
:101CA0000B4B18602A2000F049FA0A4B186038BD27
:101CB000C4030020D4030020F4030020E00300202C
:101CC000F0030020EC030020E4030020F8030020D0
:101CD000CC030020DC03002008B500F04DF800F034
:101CE000E5F801F0E5FA00F05BFD00F0A1F800F086
:101CF000CBF800F0DDF900F0EFFF1A4800F08AFAA7
:101D000001F07CFE01F018FC6120FFF759FF164B33
:101D1000188800F0FFFE002211466423134800F0EB
:101D200077F90A2301220021114800F071F90123FB
:101D3000022200210F4800F06BF9042000F05EFD44
:101D400040B1052000F05AFD20B11B2000F0FCF945
:101D5000042802D00F2000F063FD00F061FA00209B
:101D600008BD00BF004800409C6A0008B514000888
:101D700025160008B511000870B502F0BDFE04205C
:101D800002F0A6FE0320254C02F08EFE244A254BCD
:101D900020461A60042103F03FFB2046082103F08F
:101DA0003BFB2046102103F037FB204620211E4D2F
:101DB00003F032FB2046402103F02EFB20464FF477
:101DC000807103F029FB28464FF4802103F024FBA7
:101DD00020464FF4006103F01FFB144E28460221F9
:101DE00003F01AFB2846042103F016FB30460121BC
:101DF00003F012FB20464FF4007103F00DFB304658
:101E0000402103F009FB2046012103F005FB284691
:101E1000BDE870404FF0007103F0FEBA18100240A8
:101E20000003FA050CED00E01C1002401410024003
:101E300010B5134C4FF4806302220321114802F0C5
:101E400071FD20464FF4E13103F088FA2046082165
:101E500003F098FA20464FF4005103F09CFA204614
:101E60000C2103F0A4FA2046002103F09AFA204640
:101E7000002103F0A2FA2046BDE8104003F0A3BA07
:101E800000480040000C014008B5192003F0F8FBA1
:101E90000021192003F00EFC182003F0F1FBBDE82F
:101EA00008400021182003F005BC000010B52B4CA1
:101EB000204602F036FF0021204602F01EFF204699
:101EC00002F016FF20460622022102F045FF2046BE
:101ED0000622042102F040FF06221146204602F0AD
:101EE0003BFF2046022103F003F82046042102F0C4
:101EF000FFFF2046062102F0FBFF2046022103F0EF
:101F000011F82046042103F00DF82046062103F0C5
:101F100009F82046022103F07DF82046042103F051
:101F200079F82046062103F075F82046012103F0D8
:101F300089F92046002102F0FEFE4FF48051204630
:101F400002F008FF204602F0E7FEBDE810404FF423
:101F5000607302220321024802F0E4BC0008004042
:101F6000000C01407047000008B5224B1A68920728
:101F70000CD51A6822F002021A601F4B1B689847A2
:101F80001E4A1F49136809880B441360194B1A68CD
:101F900050070CD51A6822F004021A60164B5B68D1
:101FA0009847184A1649136849880B441360114B27
:101FB0001A6811070CD51A6822F008021A600E4B35
:101FC0009B689847104A0E49136889880B44136030
:101FD000084B1A68D2060CD51A6822F010021A6053
:101FE000054BDB689847094A05491368C9880B44C3
:101FF000136008BD100000401002002034000040B3
:1020000020020020380000403C000040400000401A
:10201000F0B5002935D1032A33D8DFE802F00E02EB
:1020200006094FF48056184D09E01026174D02E0BE
:10203000174D4FF48056174902E0174D10261749E7
:102040004FF08044276827F0010727600F683E4360
:102050000E60134E2B603568022191402943316098
:10206000104903EB830341F822000F499B0021F83C
:1020700012300E4B00201860236843F001032360E8
:10208000F0BD4FF0FF30F0BD380000403C00004094
:10209000400000401C000040340000401800004098
:1020A0000C0000401002002020020020240000400C
:1020B00008B50121104803F0AFF91C2003F0E0FA45
:1020C000F0211C2003F0F6FA4FF0804380221A60C2
:1020D0004FF461629A624FF6FF73084A0848136032
:1020E0000849094A038011604380516083809160F0
:1020F000C380D16008BD00BF1C1002402C0000400E
:1021000020020020651F00081002002010B5094CB5
:102110001C2303FB0043DC688C4209DC1B699942E9
:1021200006DC054B43F82010FFF74AFD002010BDE8
:10213000FF2010BD845B000800000020014B53F815
:102140002000704700000020024B53F8200040118F
:10215000704700BF00000020024B490143F82010E7
:10216000704700BF00000020014B43F8201070476B
:1021700000000020F8B50546084E00241C2707FB88
:1021800004632946586800F07FFA08B9E0B2F8BD48
:102190000134612CF3D16220F8BD00BF845B0008DC
:1021A00010B5074A00231C2101FB0324A4698442C3
:1021B00001D1D8B210BD0133612BF5D1622010BD21
:1021C000845B0008024B1C2202FB0030704700BFFA
:1021D000845B0008044A1C2303FB0023D8681B69A6
:1021E000C01A18BF01207047845B0008074A0849DD
:1021F000002352F8040C18B152F8080C41F82300DF
:102200000133612B02F11C02F3D17047A05B00087F
:1022100000000020014B1860704700BF84010020BF
:102220002DE9F74F4FF0000AD346D04656465446A4
:102230002B4FDFF8B490386803F0D5F8C5B22946C3
:10224000386803F0C5F80A2D03D00D2D01D07E2C7F
:1022500019DDBBF1000F0AD0DBF804303046DA4656
:102260004FF0000BB04698475E465C46E3E7002C13
:10227000E1D01B4B1B4C1D6814F8011F91B128467F
:1022800003F0A6F8F8E7212D4FF000010CD10191E1
:10229000BAF1000F01D15446CDE7DAF804204046E8
:1022A000904701990C46C6E709F80450013409F833
:1022B0000410002EBFD1DFF834B0DBF8001019B1E4
:1022C000094800F0E1F920B9DBF8002022B9934673
:1022D000B1E70BF1080BF0E7034E2644ABE700BF74
:1022E000840100201F660008280200203C660008C8
:1022F00008B5054B01461868431C03D089B203F0AA
:1023000067F8002008BD00BF84010020704708B5B1
:1023100003F0AEF901F0A0BA2DE9F04387B000F068
:102320001AFA03780546632B03D101F055FB3048B8
:1023300058E00026B1466FF001044FF062082021FA
:10234000284600F0B9F9037807461BB9032C01D0E1
:10235000284847E0A11C87F8009005D12E78A6F107
:102360007402564256410BE0631C284603D1FFF726
:1023700001FF804604E000F0D7F902AB43F82400E7
:102380000134042C07F10105D9D1B8F1620F28D02E
:10239000059B02A900930EC9404616B101F0CCFA84
:1023A00001E001F0D7FA431D042B13D8DFE803F056
:1023B0000C0F0906030002990F480DE003990F481E
:1023C0000AE004990E4807E002990E4804E00299D9
:1023D0000D4801E001460D4807B0BDE8F04300F0AC
:1023E0000BBF0B4807B0BDE8F04300F005BF00BFCE
:1023F000BC660008DE660008F16600080567000894
:10240000196700082D670008556700087167000804
:102410009A67000810B5084800F0EEFE0024E0B20C
:10242000FFF7D0FE013482684168044800F0E4FE02
:10243000612CF4D110BD00BFAE670008D067000862
:1024400070B50024E5B22846FFF7BCFE4668284672
:10245000FFF774FE013402463146034800F0CCFE1B
:10246000612CEFD170BD00BFDA67000870B500F0D5
:1024700072F904462C21204600F01EF9054600237F
:10248000067803702046FFF775FE2C46622804F894
:10249000016B06D0FFF752FE0146054800F0ACFE86
:1024A00002E0044800F0A8FE2B782C2BE2D070BD8F
:1024B000DE6700089A6700082DE9F743194800F025
:1024C0009BFE00252027EEB23046FFF77BFED0F8BA
:1024D0000480D0F8089004463046FFF72FFE4B46A4
:1024E000009042463946104800F086FE3046FFF71D
:1024F00071FE40B1236804F10C0100930EC90B4832
:1025000000F07AFE02E00A4800F076FE0135612D07
:102510004FF02C07D7D1074803B0BDE8F04300F0D7
:102520006BBE00BFE3670008E56700081568000898
:10253000526800085968000873B50E4800F05CFE48
:102540000D4800F059FE0024E6B23046FFF73AFE8F
:1025500005463046FFF73EFE38B16B6907480093E9
:102560002B69EA68696800F047FE0134612CEBD101
:1025700002B070BD5F6800087668000892680008C5
:1025800008B500F07BFF0146044800F035FE01F07D
:10259000EFF9BDE80840024800F02EBEA56800082B
:1025A000C168000810B500F0D6F800F00FFADF2877
:1025B000044608DC01463B20FFF7D6FD601101F020
:1025C00095FD034800E00348BDE8104000F014BE4C
:1025D000D1680008E468000808B53B200021FFF737
:1025E000BBFDBDE80840014800F006BEFA680008DF
:1025F00008B5FFF7FBFDBDE80840014800F0FCBD51
:102600000D69000838B500F0A6F82021044600F056
:1026100053F803780BB90F480FE0002300F8013B93
:1026200000F0D4F905462046FFF7A4FD62280AD041
:102630002946FFF76BFD20B90748BDE8384000F098
:10264000DBBD0648F9E72146BDE83840044800F004
:10265000D3BD00BF1F6900083A690008436900083C
:102660005869000808B500F067FF18B9FFF7A8FA25
:10267000034800E00348BDE8084000F0BDBD00BFCE
:102680006F6900088369000810B5013810F8013F30
:102690000C4623B111F8012B0AB19342F6D02078F1
:1026A000C01A18BF012010BD02460346981A13F83D
:1026B000011B0029FAD170470346184613F8012B75
:1026C0000AB18A42F9D170470029F0B5034605DA0C
:1026D0002D2003F8010B4942012001E003D0002026
:1026E0001C46C71A04E03022027041700120F0BD80
:1026F00091FBF2FE254602FB1E11303105F8011B4D
:10270000BEF100011E4605EB070001DD2C46EFE798
:1027100000232B70B44206D93378227806F8012BB7
:1027200004F80139F6E7F0BD30B5037800212D2B10
:1027300006BF01304FF0FF340124431E0A2513F871
:10274000012F303AD0B2092802D805FB0121F6E763
:1027500004FB01F030BD10B503780446202B00F1D6
:102760000100F9D07BB12046FFF79EFF01382044DD
:102770008442034602D300225A7004E01A780138DA
:10278000202AF5D0F7E7204610BD043812F1FF32B9
:1027900004D351F8043B40F8043FF7E770470000CA
:1027A00070B5124C124E14F8023C052B1CD0013BA4
:1027B000DBB2032B9DBF0F480F4AC55C002599BFB4
:1027C000F15CD25C0222294634F8043C54F8080C2F
:1027D00002F0A8F8012D05D134F8041C54F8080CB7
:1027E00002F028FA0834DEE770BD00BFE069000897
:1027F000906A0008986A0008946A0008074B10B5B0
:1028000003EBC004A18853F8300002F018FAA38843
:10281000184214BF0120002010BD00BFD869000875
:10282000034B03EBC002918853F8300002F002BA68
:10283000D8690008034B03EBC002918853F83000BD
:1028400002F0FAB9D8690008034B03EBC002918883
:1028500053F8300002F0F6B9D8690008024B40097D
:1028600033F91000704700BFA46A0008034BC0F59D
:102870008040C0F34A1033F910007047A46A000882
:10288000014B1860704700BFBC020020014B18606C
:10289000704700BFAC02002091420B46A8BF134610
:1028A0008A42B8BF0A468242B8BF02468342D4BFBA
:1028B000D018101840107047F0B5244A431132F96F
:1028C000133085B0019300F5AA435533C3F34A137F
:1028D000A0F5AA4032F913305638C0F34A100293DB
:1028E00032F9103001AC0393194B1988002354F8C6
:1028F00023204A43D21344F823200133032BF6D17B
:1029000001A807C8FFF7C8FF00229446114B1249DF
:102910001E88124B4FF4803E1D68C5F5803754F871
:1029200022301B1A44F822303344AB4241F8043FB2
:1029300002D2C1F800C003E0BB4288BFC1F800E08A
:102940000132032AEBD105B0F0BD00BFA46A000834
:10295000BC020020A8020020AC020020AC02002033
:10296000024B4FF400421A80704700BFA8020020BB
:102970000029B4BF4FF0FF32012270B5054601FBBC
:1029800002F4642301324FEA641104F01F0403FBD4
:1029900004F404BF2D2305F8013B06460A2228460D
:1029A000FFF792FE6411092C4FF02E022A5405EB1A
:1029B000000398BF302203F101009CBF5A70981C9D
:1029C0000A222146FFF780FE304670BDF0B503783D
:1029D00000242D2B06BF01304FF0FF3501250A27BB
:1029E000024612F8013BA3F13001CEB2092E03D802
:1029F00007FB04141046F3E773B10A210F460023C6
:102A000010F8012F303AD6B2092E05D8520192FBA8
:102A1000F1F279431344F3E703EB44106843F0BD4C
:102A2000B0F57A7F34BF0423082320FA03F3202B68
:102A300038BF20234001B0FBF3F21A445208991A20
:102A400001291346F7D810467047000010B5154C01
:102A5000154B24681B68A04228BF4343134A38BF64
:102A60000021126821BF02EB932359436423B1FB79
:102A7000F3F10F4B1C680F4BA1421B6828BF214686
:102A8000A3F5207290420AD91B1A23EAE3735A0174
:102A90004FF4207392FBF3F349014B43991208461C
:102AA00010BD00BFC4020020C0020020CC020020E4
:102AB000C8020020D0020020014B1860704700BF00
:102AC000C4020020014B1860704700BFD0020020F4
:102AD000064B074A1B6812689B1A064A9B0212683B
:102AE000B3FBF2F3044A1360704700BFC802002032
:102AF000CC02002088010020C0020020014B186099
:102B0000FFF7E6BFCC020020014B1860FFF7E0BFE3
:102B100088010020014B1860FFF7DABFC8020020CF
:102B200008B5214802F098F8204B1F481988890001
:102B300002F010F91E4B1B7873B11E49042002F0FD
:102B4000C7FC082002F09CFD0021042002F092FC4A
:102B5000042002F0ADFC02E0082002F09FFD0321FA
:102B6000114802F0EAFB012200210F4802F09AFB13
:102B7000022201210C4802F095FB0F2200210A4895
:102B800002F068FB0F220121074802F063FB0021DD
:102B9000054802F0B8FB0448012102F0B4FBBDE88F
:102BA0000840014802F0B8B800040040DA020020F2
:102BB000D802002000140140002070473F4B10B5A0
:102BC0001A78044682423E4A02D11078884274D074
:102BD0001C7011701CB1BDE81040FFF7A1BF39484F
:102BE00002F03AF84721374802F0A5F84FF6FF7196
:102BF000344802F0AFF8334802F089F80421314834
:102C000002F09BFB01212F4802F08EFB70212D4822
:102C100002F09BFB0F212B4802F07DFB21460E2288
:102C2000284802F017FB21460122264802F03AFB11
:102C3000254A21461368234843F00203136002F03B
:102C400062FB4FF400711F4802F046F81D4802F085
:102C50006DF801211B4802F0F5FA1A4802F05CF801
:102C600006211A4801F0C5FF194A0621174801F04C
:102C7000C9FF184A0621154801F0CDFF4FF48072B4
:102C80000621124801F08AFF4FF4806206210F48A6
:102C900001F078FF052206210C4801F0C5FF06214E
:102CA0000A4801F087FF0621084801F08CFFBDE8C3
:102CB00010400621054801F093BF10BDD902002045
:102CC000D802002000040040200400400000024020
:102CD000340400408E01002008B50221054802F0AE
:102CE0009BFB054B012200211A700846BDE80840F5
:102CF000FFF764BF1C100240D9020020084B1A885D
:102D000082420BD018804FF4803393FBF0F0054BD8
:102D10001860054B1B780BB1FFF702BF704700BF6F
:102D2000DA020020E0020020D9020020014B1880C6
:102D3000704700BFF8020020F8B5414B05461B78EC
:102D4000FBB1404C204602F081FA3F4B00041B8847
:102D50003E4A9B00B0FBF3F080B2108013882468D9
:102D600099B2E40648BF1188394812880388028066
:102D7000384A54BFCB1A5B1A11689BB20B441360DC
:102D8000F8BD354B354E1A68354B92B21868354B45
:102D9000B6461C681A60A242C8BF0534A41A0022B5
:102DA0004FF6FF73114636F81170BFB29F4298BFBD
:102DB00036F811303EF8117098BF9BB2BFB29742FF
:102DC00028BF36F8112001F1010128BF92B2052970
:102DD000E9D12549002CD5BF0E68002601360E60CA
:102DE000D8BF0E600968C4BF204F3E70B1F57A7F2E
:102DF000C2BF1E4901260E70B2EBC30F04D91BB12E
:102E0000062000F0CFFC10E003EB43039342184E82
:102E100001D2326009E0174A3368178881B2C91AB3
:102E200003FA07F28B18FB403360134B074A1B6809
:102E300011885D4305FB0414A4B21480F8BD00BFE3
:102E4000D902002000040040DA020020DC02002049
:102E5000F0020020F4020020700002408E010020E9
:102E600034040040E8020020D40200208C0100203D
:102E7000E4020020F8020020E0020020084B1B784A
:102E80006BB100280BDD074A4FF47A7311684B438E
:102E9000B3FBF0F0044BC00A1860002313607047C6
:102EA000D9020020F4020020EC02002038B50E4BBD
:102EB00005461B780D4C0BB1208812E00C4802F03F
:102EC000C5F90C4B1B7843B10B4B1B6858430B4B9C
:102ED0001B68B0FBF3F080B200E01846238805FBC6
:102EE000003080B238BD00BFD9020020DC020020D3
:102EF000000400408C010020E0020020E4020020D9
:102F0000084B187810B1084B18687047074B1B78AE
:102F10003BB9074B1888074B1B685843064BB3FB5C
:102F2000F0F07047D9020020EC0200208C01002054
:102F3000DA020020E40200200048E8010A4B187879
:102F400028B10A4B18683C23584340097047084B86
:102F50001B783BB9074B1888074B1B685843074B36
:102F6000B3FBF0F0704700BFD9020020EC02002054
:102F70008C010020DA020020E40200200087930385
:102F800008B50448002102F063F9BDE808400420B8
:102F900002F098BA0004004028B103681970036871
:102FA0000133036070470846FFF7A2B92DE9F843E3
:102FB000141E80460D460FDD0A46501B12F8011BF9
:102FC0000029FAD18442CCBF241A0C4613F0020F18
:102FD0000CBF2027302700E02027DB070CD4264633
:102FE000002E05DD39464046FFF7D6FF013EF7E7E4
:102FF00024EAE473E41A00E000235E1B06EB0509F3
:1030000015F8011B19B14046FFF7C6FFF6E7254644
:10301000002D05DD39464046FFF7BEFF013DF7E7CD
:10302000002CACBF09EB040009F10000BDE8F883F7
:103030002DE9F04385B00746DDF83080DDF83490A7
:103040000D4651B930238DF804308DF805104B46EC
:10305000424601A9FFF7AAFF3AE033B10A2A06D196
:10306000002904DA4D42012002E0184600E0002069
:10307000002304AE06F8013D0E9B3A3B5DB1B5FB63
:10308000F2F102FB1155092DC8BFED18303506F8D5
:10309000015D0D46F2E798B1B8F1000F0AD019F0C2
:1030A000020F07D02D213846FFF776FF08F1FF38D1
:1030B000012406E02D2306F8013C0024013E00E037
:1030C00004464B46424631463846FFF76FFF2044E0
:1030D00005B0BDE8F08300002DE9F04307460E4639
:1030E0001446DFF810918BB000254FF00A083378B2
:1030F00023B1252B72D17378711C2BB9002F74D09A
:103100003B6800221A7070E0252B66D02D2B06BF7D
:10311000B11C012300230A78481C302A03D143F054
:1031200002030146F7E7002208780E46A0F1300EB0
:103130005FFA8EFCBCF1090F01F1010102D808FB16
:1031400002E2F1E7732805D121680434002908BFA1
:1031500049463EE064280DD1214661208DE80C00EF
:10316000029001230A22096838460434FFF760FF01
:10317000054438E0782802D12146612003E0582830
:1031800007D1214641208DE80C0002900023102237
:10319000E9E7752806D161208DE80C0021460290F0
:1031A0000023DFE766280AD1216807A80593049267
:1031B0000434FFF7DDFB059B049A07A909E06328A7
:1031C00011D1216804348DF8181000218DF81910E0
:1031D00006A93846FFF7EAFECAE70E4631783846B8
:1031E000FFF7DAFE0135013681E728460BB0BDE86E
:1031F000F08300BFA47A00080FB407B504AA52F800
:10320000041B00200192FFF767FF03B05DF804EB99
:1032100004B07047884205DD914208DC9042A8BFA7
:1032200010467047904203DC9142A8BF1146084601
:1032300070470000124B13B503EB400000F1300360
:10324000002433F8102C33F8201C33F8300CFFF72F
:10325000E1FF2DF814000134042C03F13003F0D108
:10326000BDF80230BDF800001844BDF80430184421
:10327000BDF806301844C0F38F0002B010BD00BF87
:10328000FA020020012806D0022809D070B90729C7
:103290000CDCC8B27047012908DC01F1080003E02A
:1032A000052903DC01F10A00C0B270471020704705
:1032B000F0B54A4887B001F083F8484801F085F836
:1032C000464801F08CF8454801F084F80121434854
:1032D00001F061F8414801F031F80023404A0193C0
:1032E000019B934203DC019B01330193F8E73B48C8
:1032F00001F034F8394801F044F83A4C3A4F0026CE
:1033000014F8022CF5B2032A2ED0012A14F8013C3D
:1033100012D009D3022A17D1012101FA03F30022A6
:103320009BB2114631480DE0012202FA03F300225C
:103330009BB211462E4805E002FA03F30022114623
:103340002C489BB201F0EEFA14F8011C14F8020CA0
:10335000FFF798FF06AB2B4403F8100C002327F867
:10336000153001360234CBE7294602AA1B4801F08A
:103370003BF81A4801F07EF81F4B204A17481A60A4
:10338000194A5A600C235D4303F1804303F500336F
:103390001D6053F8042C42F4806243F8042C53F867
:1033A000042C42F4807243F8042C53F8042C42F0AD
:1033B000800243F8042C53F8042C42F0200243F816
:1033C000042C53F8042C42F0010243F8042C01F0C1
:1033D00047F8024800F0BAFF07B0F0BD00240140F2
:1033E0007F380100AD7A0008FA0200200010014089
:1033F00000080140000C0140100002404C24014034
:103400000529F0B522D84FF6FF721B4C090165184B
:10341000EF68AE7A3B88012E18BF01221A4495F856
:1034200009E092B2002575450CD2012E37F815300F
:1034300002D1984203DC0BE00EB983420CDD01356A
:103440001A46F0E7214448684001F0BD0020F0BD75
:10345000181A40019B1A02E0C01A4001D31A400119
:103460005B0190FBF3F36218127A6158534305FB3A
:103470000215C3EB4510F0BD807B0008F0B52A4A69
:103480002A4E1368ADF2044D43F00103136000248B
:10349000E5B22846FEF79EFE08B9244B02E07F2CD9
:1034A00025D10AE07F2C08D00DEBC4024DF8340082
:1034B0005060013418601860F4E71C4B1C4C1B680A
:1034C0001C4DFE9302F05EF8022002F051F81848FD
:1034D00001F0EAF904F17843A3F5FE3320465DF8E4
:1034E0000310043402F06EF8AC42F3D114E0284625
:1034F000FEF768FE8369074628464DF83430FEF72C
:103500001DFE0DEBC4035860BB6928463360FEF70F
:1035100015FE01343060BBE702F046F8034B186833
:103520000DF2044DF0BD00BF0830024000300240F3
:1035300000FC010800000208124A38B5136812495D
:1035400043F001031360114B114A53F8040F9342E7
:103550000860FAD10C4B0F4C1A68D4F8F8339A4231
:103560000DD10D4D2068FEF71BFE622802D0616868
:10357000FEF7FAFD0834AC42F4D1002038BD4FF01C
:10358000FF3038BD0830024000300240FCFB01082B
:10359000F4FF010800FC0108F8FF0108F8B5044633
:1035A00010460F461646FFF759F9194B1D6845435B
:1035B0003046FFF75BF949F2CC3344F6E61249F6A0
:1035C000C4467B436243DB1303EBE23101FB05F2AC
:1035D00004FB00F3D2130F4F02EBE33373436C434E
:1035E000D7F800E048434FEA8E0202EBE333E413DE
:1035F000094ACEEB0303C4EBE0319B1071433B60FF
:103600001768BB0003EBE131C91B89101160F8BDDD
:1036100098010020BC030020C0030020014B18606B
:10362000704700BF980100200D4A036852F821201E
:1036300010B503F1C804944206DB0A4C54F821107B
:1036400001F1C804A34202DD0260002010BD9342D4
:1036500001DA026002E08B42C8BF0160012010BDA8
:10366000C4030020D4030020F0B512B11E4B1C6827
:1036700002E01E4B1C6864421D4E1E4F73688B4255
:103680000CDAC91A4FF0640C0CFB01F57968C91A01
:1036900095FBF1F14C4394FBFCF4013C164B35686F
:1036A0001968401B01F1640343433868401B93FBD6
:1036B000F0F0401A114D13D56043404290FBF1F4F5
:1036C0002B680E4AA34208DD0D49181B0968884281
:1036D000D4BF1B1A5B1A136000E014602868F0BDA9
:1036E000002AEDD12A60F0BDE0030020EC030020A9
:1036F000C4030020D4030020F4030020E8030020CA
:10370000F0030020064B1B68181A064B1B68584331
:10371000054B1B689842A8BF18464011704700BF70
:10372000E4030020F8030020DC0300200F4A104BC4
:1037300010B51968146804FA01F318440D4B001B06
:103740001B6808411060181A0B4B1B6858430B4B41
:10375000B0F5486F1B68A8BF4FF448605B425B013F
:103760009842B8BF1846401110BD00BFFC030020AE
:10377000CC030020D0030020F8030020EC0300203D
:10378000B0F52A6F06DB40F6A1239842D4BF322061
:103790000020704764207047014B1860704700BFDD
:1037A0000004002030B50A4C235C83B9094B1D6826
:1037B0006DB10949094A0B6802F8330002EBC302F4
:1037C00055600122134403F0030322540B6030BD03
:1037D0000404002000040020100400209C010020AC
:1037E00000231946024A99540133072BFBD1704735
:1037F00004040020074B10B403EBC1021479064AFD
:1038000053F8313052F82420014610BC0348FFF72A
:10381000F3BC00BF607C0008047D0008987C0008B1
:1038200070B50A4C0A4E0B4D2368326893420CD097
:1038300005EBC30215F833105068FFF7DBFF236870
:10384000013303F003032360EEE770BD0C04002096
:10385000100400209C01002070B50A4D6B6823B94C
:10386000BDE870400848FFF7C7BC2E4600242B195E
:10387000586828B1315D0834FFF7BCFF202CF6D121
:1038800070BD00BF9C010020A87C00082DE9F0411C
:1038900090460C46074F0025461A454508DA23682E
:1038A000A0193B6054F8041B01F08CFE0135F4E7CD
:1038B000BDE8F08100300240F0B5B2F5006F059F21
:1038C0002ADA3F2B2BDC202F2CDC057800264FF04A
:1038D000240EB54209DD0EFB0604B4F804C06245AF
:1038E00001D104340AE00136F3E70A2D20D0242662
:1038F00006FB05060135B280341D0570A2780A2A40
:1039000013D004EB82052971069901326971AB71FC
:10391000EF71A2700078F0BD4FF0FF30F0BD6FF096
:103920000100F0BD6FF00200F0BD6FF00400F0BDCB
:103930006FF00300F0BD000013B5049C8DE8180083
:1039400013460A4601460248FFF7B6FF02B010BD13
:103950001404002013B5049C8DE8180013460A4691
:1039600001460248FFF7A8FF02B010BD8005002005
:10397000124A13B51368124C43F00103136001F0AF
:1039800001FE022001F0F4FD204600F08DFF2046EC
:103990005B220C49FFF77AFF5B220B490B48FFF7CC
:1039A00075FF0B4B02A91B68012241F8043D094831
:1039B000FFF76CFF01F0F8FD02B010BD08300240C7
:1039C00000F8010814040020800500206CF90108AB
:1039D00000300240D8FA010800231A4610B5054805
:1039E000054CE1188A71C1182433B3F5B47F8A718C
:1039F000F7D110BD800500201404002030B58BB035
:103A0000FFF7EAFF3449354B0A68186842F00102B3
:103A10000A60334A083952F8044B9A420C60FAD1D2
:103A2000304B1B68984209D15B222D492E48FEF786
:103A3000ACFE5B222D492E48FEF7A7FE4FF44070E6
:103A400001F0F7FC40F2993001F0F3FC294B002122
:103A50001A6829481A604FF40063022200F062FFDE
:103A60004FF40061244801F0E5F84FF4805302223E
:103A70000321214800F056FF142001F001FEF0213F
:103A8000142001F017FE1D4800F0FAFC09230693EC
:103A90004FF4A0030024012505934FF40023049361
:103AA0002A462346214608940794039402940194DD
:103AB0000095124800F000FD21468DE830002346B5
:103AC00022460E4800F0D1FD0C4802210BB0BDE8A3
:103AD000304000F0D7BD00BF08300240D8FA0108DE
:103AE00000F8010800300240140400206CF90108BD
:103AF00080050020040001400008014000640040EF
:103B000007B50023D2B20191009201461A4603483C
:103B100000F0BCFD03B05DF804FB00BF0064004092
:103B20002DE9F7431A4C0025A37873B32646009578
:103B3000019500274FF00108A3789F421EDA04EB9D
:103B4000870999F80400FEF7F9FA99F90530584306
:103B5000F37908FA03F3013B03EA6010B3791F2BF2
:103B600005D9203B9840019B1843019003E0984001
:103B7000009B1843009001370436DDE708226946B0
:103B800034F8240BFFF7BCFFCEE703B0BDE8F083A9
:103B900018040020F0B58DB00DF11F03039309AB9D
:103BA00002930DF11E03002201930AAC0DF11D03D7
:103BB00011460093494808AB049400F0D5FD00215C
:103BC000464800F0C5FD40F20163089999424CD186
:103BD000BDF82910B1F5005F0DD19DF82B006028CC
:103BE00009D89DF82830402B27D10B99FEF78EFA83
:103BF000F0B9232327E0A1F54053B3F5C05F28D2E5
:103C00009DF82B00602824D89DF82830402B25D122
:103C10009DF82E5011F4804F9DF82C209DF82D30EA
:103C20000095C1F30A0111D0FFF794FE0028E0DAF5
:103C300080238DF828302A4B0FE0222B0ED1FEF77F
:103C40007DFA43230B908DF8283007E0FFF774FED0
:103C5000ECE780238DF82830224B0B930822214675
:103C600040F28150FFF74CFF36E01F4A00231078E6
:103C70002425984208DD05FB0324A688B14201D122
:103C8000043402E00133F4E700242546002601272E
:103C9000A3789E4220DAAB7995F807E01F2B07D96D
:103CA0000B98203BD84007FA0EF3013B034007E096
:103CB0000A9A07FA0EFE0EF1FF3EDA400EEA020300
:103CC00004EB860292F90510107959434911FEF769
:103CD0001DFA01360435DBE70DB0F0BD006400408D
:103CE000300009060000020680050020014B1888FC
:103CF00080B27047F4060020014B1860704700BF87
:103D000000070020064B074A1B68128800FA03F3DD
:103D100093FBF2F3044A5B111380044B1860704765
:103D2000A06A00080807002004070020F006002011
:103D300008B580210D4800F0D3FF00213B20FEF79D
:103D40000BFA1320FEF76CFD0620FEF757FD08B9AD
:103D5000032006E00320FEF751FD08B9042000E02F
:103D60000020BDE80840FFF71DBD00BF002C01404A
:103D70002DE9F84FAF4801F069FAAF4A05461368DC
:103D8000062023F001031360FFF754FAAB4C2768B9
:103D9000C7EB401047011520FEF7D0F997FBF0F76D
:103DA0000720FFF747FA6468C7F10008C4EB40102A
:103DB00044011620FEF7C2F994FBF0F4C4EB0808A6
:103DC000214642463846FEF767FD002FB8BF7F42C6
:103DD0000223002C90FBF3F0B8BF6442BC42B8BF92
:103DE0003C4688EAE8710028B8BF4042A1EBE87180
:103DF0008C42ACBFC0EB0404C0EB0104904A4020ED
:103E00001668311949101160FEF7AEF98D4A136832
:103E10001446591E012902D9052B40F0A4805320D5
:103E2000FEF792F9884B8046D3F80090874B884F75
:103E30001E78FEF781FF2368C6EB0906052BF6B254
:103E4000844C0ED1844B39881A68844B002A1B8815
:103E5000226008FB03139BB23B804CDA00232360F3
:103E600049E00D20FEF770F9824628B3FEF7A4FE64
:103E7000A0B10620FEF768F982460E20FEF764F92D
:103E800081460020FFF712F80AFB009080B23880CC
:103E9000FFF736F800FB0AF020602CE06E4B196843
:103EA0003B8801FA09F99AB26D4B21601B8899FB96
:103EB000F3F302EB63131CE00620FEF745F983469B
:103EC0004046FEF7F3FF8146FFF71AF8624B65495B
:103ED0001B6800FB0B30614B00281A880B882060A0
:103EE00008FB02339BB20B800BFB0933B8BFC4F84D
:103EF00000A09BB23B805C4B206819684911FEF71B
:103F0000A5FD8146FEF7BCFC49464F20FEF724F98B
:103F100021684D20FEF728F93888544C80B2FEF70E
:103F2000CBFC2368F34023606368F3406360B9F11E
:103F3000000F07D0B8F1000F04D0A36823FA06F6EB
:103F4000A66003E00023A360636023602268002171
:103F5000384801F005F962680221364801F000F99D
:103F6000A268042155E0DA1E012A17D8374B4F20EA
:103F700019783D4B1A6864238A40521192FBF3F280
:103F800001238B40A3F163018A42A8BFA3F164021D
:103F900022EAE2742146FEF7DFF838E0062B3BD137
:103FA0002D4B2E4918682A4B09881E461C88294A21
:103FB0002144002889B21980B8BF00231060B8BF1F
:103FC000136011684D20FEF7CFF8308880B2FEF7FD
:103FD00045FC0446308880B2FEF740FC224B40424C
:103FE0001B68002103FB04F24343642492FBF4F2B8
:103FF00093FBF4F41E4B52111B7802F5004264113E
:1040000004F500441A410B481C4101F0A9F822466E
:104010000221084801F0A4F8064801F017F9ADB2F2
:10402000401B4821B0FBF1F1BDE8F84F6020FEF7DE
:1040300093B800BF002C0140102C0140CC0100209F
:10404000EC060020F8060020A06A00080A070020FD
:10405000F40600200C070020F006002004070020D2
:1040600008070020FC06002000070020B002002006
:104070000607002010B50D4C0021204600F0CAFFB5
:104080002046022100F0C6FF2046042100F0C2FFB6
:104090002046012100F0BEFF2046032100F0BAFFB8
:1040A0002046BDE81040052100F0B4BF002C0140BF
:1040B00010B50D4C0021204600F0E8FF20460221FB
:1040C00000F0E4FF2046042100F0E0FF204601213B
:1040D00000F0DCFF2046032100F0D8FF2046BDE8B9
:1040E0001040052100F0D2BF002C014008B5154B4F
:1040F00018600138052804D8DFE800F01F1F1317E7
:104100001F07BDE80840FFF7D3BFFFF7B3FF042147
:104110000D4800F0BBFFBDE8084005210A4800F04B
:10412000B5BFFFF7C5FF032102E0FFF7C1FF022182
:104130000548BDE8084000F06DBFBDE80840FFF746
:1041400099BF00BFF8060020002C0140F8B55D4B78
:1041500007465D481C780E4600F0E3FD20215A48D2
:1041600000F0CBFD584800F0C3FD46F66802574BFF
:1041700001251A60682205FA04F45A60CEB10021C4
:10418000514800F00BFF02214F4800F007FF0421C7
:104190004D4800F003FF29464B4800F0FFFE032185
:1041A000494800F0FBFE0521474800F0F7FE0325D3
:1041B00018E03146444800F0B5FE0221424800F0C4
:1041C000B1FE0421404800F0ADFE29463E4800F013
:1041D000A9FE03213C4800F0A5FE05213A4800F065
:1041E000A1FE0225384800F0D9FF374800F0C8FF8B
:1041F000354800F0E1FF344800F0ECFF324800F0B1
:10420000F7FF314801F002F839462F4801F00CF869
:1042100000212D4800F076FF02212B4800F072FFAC
:104220000421294800F06EFF0121274800F06AFFB1
:104230000321254800F066FF0521234800F062FFB6
:104240000121214800F0FEFF80211F4800F04DFDB4
:1042500001211D4800F040FD80211B4800F03CFD7D
:10426000A4B20021184800F066FD2146164800F06F
:1042700071FD0121144800F061FD00221146124831
:1042800000F06EFF002202210F4800F069FF0022BB
:1042900004210D4800F064FF0B4800F03DFD2A4664
:1042A0004FF4E06303210A4800F03CFB4FF4604305
:1042B0002A460321074800F035FB0748B0FBF4F01D
:1042C00080B2F8BD0A070020002C0140182C0140E4
:1042D00000080140000C01400051250238B51020B3
:1042E000FDF732FF0F4C0B3020701220FDF72CFF32
:1042F00005461120FDF728FF0146A8B2FFF726FF6B
:10430000094B1880094B1A68094B1B68934093FBB3
:10431000F0F0084B401118802378D21A064B1A701F
:1043200038BD00BF0A07002008070020A06A000867
:10433000F006002004070020060700208368DB0742
:104340005EBF836843F00103836070478368DB07C7
:1043500042BF836843F0010383607047836800F1C4
:10436000080243F00803836013681B07FCD47047FE
:10437000836843F00403836070478068C0F3800063
:10438000704708B50246FFF7F3FF1046FFF7F5FF49
:104390000028FAD108BD0022134610B501FA02F434
:1043A00003321E2A43EA0403F8D10361002201FA12
:1043B00002F40332182A43EA0403F8D1C36010BDA3
:1043C000836823F0010383607047436843F480737C
:1043D00043607047836823F4006383607047836899
:1043E00043F00203836070471029F0B537D80024EA
:1043F00026462746254601238B422AD8062B98BFFE
:1044000092F800E002F101029CBF0EFA04FE46EAB7
:104410000E06A3F1070EBEF1050F9FBF12F801ECC7
:10442000A4F11E0C0EFA0CFE47EA0E07A3F10D0EC6
:10443000BEF1050F9EBF12F801ECA4F13C0C0EFA80
:104440000CFE03F1010398BF45EA0E05DBB205340B
:10445000D2E7013945EA0155C56207634663F0BDFD
:10446000836800F1080243F48003836013685B02F1
:10447000FCD47047836843F4807383607047000006
:1044800008B50B4B984207D14FF00071094800F076
:10449000C7FF4FF0007106E04FF08061054800F063
:1044A000BFFF4FF080610348BDE8084000F0BCBF8B
:1044B00000640040101002402DE9F34104689DF8AB
:1044C00020C024F00204046004689DF824E044F055
:1044D000010404604FF6FF749DF828709DF83C506D
:1044E0009DF840600194019C013C019414B1446822
:1044F000E407F8D5D0F80480041D18F0010F69D046
:104500004FF00008C0F81C8019B1016841F080012B
:1045100002E0016821F0800101601AB1026842F0F6
:10452000400202E0026822F0400202601BB1036810
:1045300043F0200302E0036823F0200303600368D4
:10454000BCF1000F02D043F0100301E023F0100390
:1045500003600368BEF1000F02D043F0080301E0DE
:1045600023F008030360036817B143F0040301E07C
:1045700023F004030360C36916B143F0004301E074
:1045800023F00043C361C36915B143F0804301E0E8
:1045900023F08043C3610E9B0D99013BC3F30803D5
:1045A0000B430C99C2690B430B990B431343C36133
:1045B000036823F0010303604FF6FF730193019B2F
:1045C000013B019313B12368DB07F8D4406800F086
:1045D000010000E0012002B0BDE8F081F0B5D0F8A4
:1045E0000052012445F001058C40C0F80052E5431B
:1045F000D0F81C629DF820702E40C0F81C621AB1E1
:10460000D0F80C22224302E0D0F80C222A40C0F855
:104610000C221BB1D0F80432234302E0D0F804325C
:104620002B40C0F80432059B00EBC101C1F84032B9
:10463000069BC1F84432079B2BB1D0F814322343B8
:10464000C0F8143204E0D0F814321D40C0F81452FF
:1046500027B1D0F81C321C43C0F81C42D0F80032FD
:1046600023F00103C0F80032F0BD1FB59DF81C40D7
:104670000394069C8DE81C0000230122FFF7AEFF87
:1046800004B010BD4369194341617047F0B5044659
:1046900080689DF814E04001069D08D4A0680001E0
:1046A00009D4A068C0000AD44FF0FF30F0BD4FF429
:1046B000C07C002006E04FF4C87C012002E04FF4EB
:1046C000D07C02201AB1C90041F0040100E0490584
:1046D00044F80C102BB154F80C2042F0020244F8BC
:1046E0000C2004EB0C035A680EF00F0122F00F02AD
:1046F0005A605A680EF1FF3E0A435A60BEF1070F36
:104700001FD8DFE80EF01B1815110E0B0804EA790C
:10471000002762F31F67AA7962F317476A7962F389
:104720000F272A7962F30707EA78002662F31F66EB
:10473000AA7862F317466A7862F30F262A7862F342
:1047400007069E60DF601A6842F001021A60F0BD41
:1047500021B9C36843F02003C3607047036943F085
:1047600020030361704700002DE9F7430E4605461C
:10477000294902AF03C907E9030007EB860151F895
:10478000081CDDF828906F58DDF82CE017F00407BE
:104790001BBF012789F8007089F800706F580ABFA5
:1047A0006F58FF087F0D1F606B58681813F00203E5
:1047B00018BF01238EF800304368DDF83080C3F362
:1047C0000723C8F800304368DDF834C003F00F0356
:1047D0008CF8003081680E9CC368C1F307202170FB
:1047E0006070C1F30740C1F30761E170C3F30721B3
:1047F00023716171C3F30741C3F30763A070A17113
:10480000E37132B13146284603B0BDE8F043FFF70B
:104810009FBF03B0BDE8F083107D0008064B186809
:10482000064B1B889BB2B3F5007F82BF044B1B680D
:10483000184300F0350070470C200240E0F7FF1FDE
:104840004C20024038B504460D4600F0B5FE124B30
:104850001B889BB2B3F5007F04D9104B9C4201D951
:104860000F4A00E00F4A136843F0010313602580EC
:1048700000F0A2FE084B1B889BB2B3F5007F04D961
:10488000064B9C4201D9064A00E0064A136823F011
:104890000103136038BD00BFE0F7FF1FFFFF0708EB
:1048A000502002401020024010B5044600F084FE63
:1048B000164B1B889BB2B3F5007F09D9144B9C4261
:1048C00006D9144B1A6842F002021A60124A05E037
:1048D000124B1A6842F002021A60114A14601A68F8
:1048E00042F040021A6000F067FE084B1B889BB242
:1048F000B3F5007F04D9064B9C4201D9054A00E07C
:10490000064A136823F00203136010BDE0F7FF1F8F
:10491000FFFF0708502002405420024010200240B0
:10492000142002402DE9F0434FF6E07796469C466E
:104930000268436800254FF00F084CFA05F4E407BD
:1049400019D5072DACB28BBF3C4616461E46A400B7
:1049500098BFA4B208FA04F926EA090604F102098C
:104960000EFA09F901FA04F449EA04043443082D63
:104970002CBF2346224601350437102DBFB2DCD1AF
:1049800002604360BDE8F083024A136843F080731D
:104990001360704700100240062822D8DFE800F0BC
:1049A00004090E13181A1C000F4B1868C0F340605E
:1049B00070470D4B1868C0F3C06070470A4B186809
:1049C000C0F340707047084B1868C0F34040704710
:1049D000054B02E0054B00E0054B1868C0F34000B2
:1049E00070470020704700BF0010024020100240B6
:1049F00024100240024608B51046FFF7CDFF0028FC
:104A0000FAD008BD06281FD8DFE800F004060B1016
:104A100015171900FFF7B8BF0C4A136843F08063FD
:104A200011E00A4A136843F080530CE0074A136808
:104A300043F4803307E0054A02E0054A00E0054AF6
:104A4000136843F001031360704700BF0010024079
:104A50002010024024100240034A136823F003038D
:104A600018431060704700BF04100240034A1368E7
:104A700023F4701343EA8040106070470410024032
:104A8000034A136823F4803343EA00401060704700
:104A900004100240034A136823F4003343EA404001
:104AA0001060704704100240034A136823F4404327
:104AB00043EA80301060704704100240034A1368D4
:104AC00023F4605343EAC020106070470410024092
:104AD000034A136823F4E06343EA00201060704740
:104AE00004100240034A136823F0F00343EA001065
:104AF000106070470410024008B50420FFF782FFE1
:104B00000420FFF777FF0020FFF7A6FF0320FFF741
:104B100079FF0320FFF76EFF0120FFF79DFF0020C4
:104B2000FFF7E0FF0320FFF7BFFF0420FFF7D0FFF0
:104B30000020FFF7C3FF022000F01AFD0720FFF757
:104B400095FF0120FFF79CFF0020FFF7A3FFFFF771
:104B50001BFF0020FFF74EFF0220FFF77DFF044BF5
:104B6000044A05491360054A1160054A136008BDEF
:104B700000A24A04BC01002000512502C00100200F
:104B8000C401002014230139594308300B5823F481
:104B900040630B500B581A430A50704714230139D5
:104BA000594308300B5823F440730B500B581A43E9
:104BB0000A50704714230139594308300B5843F009
:104BC00080030B50704714230139594308300B58A8
:104BD00043F020030B500B5823F480430B507047D5
:104BE00014230139594308300B5843F001030B508B
:104BF000704714230139594308300B5823F001033F
:104C00000B5070471423013903FB01008368DB0755
:104C100058BF026170471423013903FB0100836808
:104C2000DB0758BF426170470139142359430C30E8
:104C30000A5070470161704709040161704780683C
:104C400008407047C36803EA010221EA030141EA10
:104C500002410161704700001C4B984228D00DD8DA
:104C6000A3F5006398421DD003F5806398421CD0E1
:104C7000B0F1804F29D14FF4007024E0144B9842DA
:104C80001CD004D8A3F58063984214D07047114B10
:104C9000984204D003F50063984212D0704740F266
:104CA0008B1010E040F201200DE040F202200AE0FB
:104CB00040F2032007E04FF4017004E040F20520C9
:104CC00001E040F28D1000F0C2BB7047000C0040C4
:104CD00000140040002C0140C3681943C1607047B4
:104CE000C36823EA0101C1607047C943016170478D
:104CF000036843F0800303607047036801F06001BC
:104D000023F06003036003680B430360704703688C
:104D100023F0100303607047036843F0010303604E
:104D20007047036823F0010303607047436823F072
:104D3000080343607047816270470000044B98424B
:104D400003D003F50063984200D10163704700BFB0
:104D5000002C0140C1627047062900F2C880DFE8DC
:104D600011F00700C6003600C6006800C6009600B5
:104D7000836923F00303836183698361836923F07B
:104D800070038361072A00F2B280DFE802F0330487
:104D9000080C1014181C836943F0100347E0836962
:104DA00043F0200343E0836943F030033FE083692D
:104DB00043F040033BE0836943F0500337E08369ED
:104DC00043F0600333E0836943F070032FE08369AD
:104DD00023F44073836183698361836923F4E0432F
:104DE0008361072A00F28380DFE802F004060A0EDE
:104DF00012161A1E83691AE0836943F4805316E081
:104E0000836943F4005312E0836943F440530EE096
:104E1000836943F480430AE0836943F4A04306E0D6
:104E2000836943F4C04302E0836943F4E043836150
:104E30007047C36923F00303C361C369C361C369D6
:104E400023F07003C361072A51D8DFE802F032046F
:104E5000080C1014181CC36943F0100346E0C36922
:104E600043F0200342E0C36943F030033EE0C369EE
:104E700043F040033AE0C36943F0500336E0C369AE
:104E800043F0600332E0C36943F070032EE0C3696E
:104E900023F44073C361C369C361C36923F4E0436E
:104EA000C361072A23D8DFE802F004060A0E1216AF
:104EB0001A1EC3691AE0C36943F4805316E0C3693C
:104EC00043F4005312E0C36943F440530EE0C36956
:104ED00043F480430AE0C36943F4A04306E0C36996
:104EE00043F4C04302E0C36943F4E043C361704745
:104EF000062916D8DFE801F0041508150D15110074
:104F0000836943F0080302E0836943F4006383612B
:104F10007047C36943F0080302E0C36943F40063C8
:104F2000C36170471B4A062918D8DFE801F004174F
:104F300008170C171000036A23F002030AE0036A43
:104F400023F0200306E0036A23F4007302E0036AFF
:104F500023F400539042036209D119E0904206D134
:104F600003290CD005290ED0012904D070470A4B23
:104F700098420DD1F4E7036A23F0080306E0036AC0
:104F800023F0800302E0036A23F4006303627047A6
:104F9000704700BF002C0140003401401B4A062925
:104FA00018D8DFE801F0041708170C171000036A7F
:104FB00043F002030AE0036A43F0200306E0036AB9
:104FC00043F4007302E0036A43F400539042036227
:104FD00009D119E0904206D103290CD005290ED041
:104FE000012904D070470A4B98420DD1F4E7036AB7
:104FF00043F0080306E0036A43F0800302E0036A1B
:1050000043F4006303627047704700BF002C014007
:10501000003401401B4A062918D8DFE801F00417C4
:1050200008170C171000036A43F001030AE0036A33
:1050300043F0100306E0036A43F4807302E0036A5E
:1050400043F480539042036209D119E0904206D1A3
:1050500003290CD005290ED0012904D070470A4B32
:1050600098420DD1F4E7036A43F0040306E0036AB3
:1050700043F0400302E0036A43F480630362704735
:10508000704700BF002C0140003401401B4A062934
:1050900018D8DFE801F0041708170C171000036A8E
:1050A00023F001030AE0036A23F0100306E0036A19
:1050B00023F4807302E0036A23F480539042036276
:1050C00009D119E0904206D103290CD005290ED050
:1050D000012904D070470A4B98420DD1F4E7036AC6
:1050E00023F0040306E0036A23F0400302E0036AAE
:1050F00023F4806303627047704700BF002C0140B7
:1051000000340140154B984203D003F500639842E8
:1051100023D1062921D8DFE801F004080C10141867
:105120001C00436823F4807316E0436823F4007383
:1051300012E0436823F480630EE0436823F40063C5
:105140000AE0436823F4805306E0436823F40053E5
:1051500002E0436823F4804343607047002C014021
:1051600006290CD8DFE801F0040B060B080B0A0037
:105170004263704782637047C2637047026470473E
:10518000054B984203D003F50063984203D1436C6A
:1051900043F4004343647047002C0140054B9842A0
:1051A00003D003F50063984203D1436C23F480439A
:1051B00043647047002C0140054B984203D003F52F
:1051C0000063984203D1436C43F400534364704737
:1051D000002C0140054B984203D003F50063984230
:1051E00003D1436C43F4805343647047002C014067
:1051F000054B984203D003F50063984203D1436CFA
:1052000043F4006343647047002C0140054B98420F
:1052100003D003F50063984203D1436C43F48063E9
:1052200043647047002C0140054B984203D003F5BE
:105230000063984202D1436C19434164704700BF38
:10524000002C01404369194341617047406A70472F
:1052500041627047032924D8DFE801F0020A131BDA
:10526000836923F0F0038361836943EA021206E055
:10527000836923F470438361836943EA0232826164
:105280007047C36923F0F003C361C36943EA0212A4
:1052900006E0C36923F47043C361C36943EA023281
:1052A000C261704701F0FD03012B02F0030204D13B
:1052B000531E012B98BF82F00302032922D8DFE896
:1052C00001F002091219836923F0030383618369E2
:1052D0001A4306E0836923F440738361836943EAD8
:1052E000022282617047C36923F00303C361C3696B
:1052F0001A4306E0C36923F44073C361C36943EAF8
:105300000222C2617047036A8900012202FA01F198
:105310000B4303627047836823F470638360836880
:1053200043EA012181607047836811B143F400436F
:1053300001E023F4004383607047836823F0070390
:1053400083608368194381607047836823F070032A
:10535000836083681943816070470000064A074BE9
:1053600090421B6804BF064B1B6801EB43034900D6
:10537000B3FBF1F38360704700380140C0010020A7
:10538000C4010020C36808290CBF23F4805343F4F0
:105390008053C3607047036923F44053194301618C
:1053A0007047C36823F4C0631943C1607047C36882
:1053B00023F00C031943C1607047436923F4407321
:1053C000194341617047C36843F40053C360704799
:1053D00038B504460D4600F017F829462046BDE8CA
:1053E000384000F009B810B5044600F011F8204626
:1053F000BDE8104000F004B8C1F3080141607047F7
:105400004068C0F30800704703681B06FCD570476E
:1054100003689B06FCD57047036819430160704719
:105420000368194301607047036823EA01010160C2
:105430007047430903F1804303F504331A6800F011
:105440001F00012101FA00F0104318607047430962
:1054500003F1804303F504331968012200F01F00B3
:1054600002FA00F040EA01021A601A6822EA00001B
:105470001860704701290BD002D302290DD0704764
:105480000A4A136803431360536823EA00000AE0E2
:10549000064A136823EA000302E0044A1368034340
:1054A0001360536818435060704700BF0804014000
:1054B000034A1368034313605368184350607047EE
:1054C00000040140014B1860704700BF1404014004
:1054D0002DE9F04FDFF888C0DFF88880DFF888908A
:1054E000DFF888A000224FF0010E0F270EFA02F31A
:1054F00003422AD0174B994211D005D849450CD008
:10550000514512D1022311E0134B994209D0614554
:1055100009D0414509D1042308E0012306E0032313
:1055200004E0052302E0062300E000230B4C22F0F8
:105530000306344402F00305AD00266807FA05FBB4
:1055400026EA0B06AB401E4326600132102ACDD15D
:10555000BDE8F08F00140140001C0140080001402C
:105560000020014000180140000C014000100140E3
:10557000034A136823F0070318431060704700BF05
:1055800000200240054A136843F080031360044B77
:10559000044A1A6002F188321A60704710200240F3
:1055A0000420024023016745024A136843F0800348
:1055B000136070471020024008B5FFF72FF9C307AA
:1055C000FBD408BD38B505460C4689B2FFF73AF959
:1055D000210CA81CBDE83840FFF734B9FEE770473E
:1055E000184C1949194800225318834203D2135901
:1055F00053500432F8E7164A0021934202D2196050
:105600000433FAE7134A144C1368144D43F400733F
:105610001360AC4203D254F8043B9847F9E7104CAE
:10562000104DAC4203D254F8043B9847F9E7FCF71D
:1056300053FB0D4C0D4DAC4203D254F8043B98473C
:10564000F9E700BF1C7D000800000020C801002011
:105650001007002014ED00E0187D0008187D0008F8
:10566000187D00081C7D00081C7D00081C7D0008BA
:10567000014A024B1A60FEE70400FA050CED00E057
:1056800043099B0003F1604300F01F00012203F572
:10569000614302FA00F018607047000042090123DC
:1056A00000F01F0003FA00F0014B43F8220070479E
:1056B00080E100E0432893BF00F16040044B00F01C
:1056C0000F0000F564408CBFC1540170704700BFEB
:1056D00014ED00E04D6F746F7200626F6F737400B1
:1056E00064696700667765616B007564636E6F6DF2
:1056F000006670636F6E73740066736C69706D69B9
:105700006E0066736C69706D617800706F6C6570A7
:105710006169727300616D706D696E002500656E60
:1057200063666C7400656E636D6F646500303D5335
:10573000696E676C652C20313D41425A00666D6987
:105740006E00666D6178006E756D696D7000496DF3
:10575000702F7265760073796E636D6F64650030CB
:105760003D4F66662C20313D4F6E0073796E636F3E
:10577000667300736E736D00323D4B545938332D90
:105780003131302C20333D4B545938342D313330A6
:1057900000496E7665727465720070776D6672711D
:1057A00000303D31372E366B487A2C20313D382E73
:1057B000386B487A2C20323D342E344B487A2C20DA
:1057C000333D322E326B487A2C20343D312E316BF2
:1057D000487A0070776D706F6C00303D41435448DB
:1057E0004947482C20313D4143544C4F5700646594
:1057F000616474696D65006F6375726C696D006DCD
:10580000696E70756C736500696C316761696E00F3
:105810006469672F4100696C326761696E00756465
:10582000636761696E006469672F56007564636F12
:105830006673007564636C696D00736E73687300E2
:10584000303D4A43757276652C20313D53656D6954
:105850006B726F6E004368617267657200636861A6
:105860007267656D6F646500303D4F66662C20334E
:105870003D426F6F73742C20343D4275636B00633F
:105880006861726765637572006368617267656BF2
:105890007000636861726765666C74005468726F4B
:1058A00074746C6500706F746D696E00706F746DE8
:1058B000617800526567656E00706F74326D696E55
:1058C00000706F74326D61780062726B6E6F6D7014
:1058D0006564616C0062726B706564616C72616DAD
:1058E0007000252F31306D730062726B6E6F6D002A
:1058F00062726B6D61780062726B72616D7073744D
:10590000720062726B6F7574004175746F6D6174B3
:10591000696F6E0069646C657370656564007270B0
:105920006D0069646C657468726F746C696D006990
:10593000646C656D6F646500303D616C776179738F
:105940002C20313D6E6F6272616B652C20323D639D
:1059500072756973650073706565646B7000737050
:10596000656564666C74006372756973656D6F64F8
:105970006500303D427574746F6E2C20313D537755
:1059800069746368004465726174696E6700626D72
:10599000736C696D6869676800626D736C696D6CC2
:1059A0006F77007564636D696E007564636D61780F
:1059B00000436F6E746163746F7220436F6E747214
:1059C0006F6C007564637377004175782050574D94
:1059D0000070776D66756E6300303D746D706D2C70
:1059E00020313D746D7068732C20323D7370656595
:1059F000640070776D6761696E006469672F4300AA
:105A000070776D6F66730073706565646761696E4A
:105A10000072706D2F6B487A0054657374696E67FD
:105A20000066736C697073706E7400616D706E6F78
:105A30006D0076657273696F6E006F706D6F64656F
:105A400000303D4F66662C20313D52756E2C203261
:105A50003D4D616E75616C52756E2C20333D426F09
:105A60006F73742C20343D4275636B2C20353D538D
:105A7000696E652C20363D4163486561740075642C
:105A8000630069646300696C3100696C3200696CA1
:105A90006D61780075616300696C31726D730069C6
:105AA0006C32726D7300626F6F737463616C63004C
:105AB000646967697400667765616B63616C630034
:105AC0006964006971006B57006B56410070660095
:105AD0004E6D00667374617400706F7400706F7443
:105AE0003200706F746E6F6D00646972002D313D0D
:105AF0005245562C20303D4E45555452414C2C2099
:105B0000313D46574400746D70687300C2B0430065
:105B1000746D706D00756175780064696E5F637295
:105B2000756973650064696E5F7374617274006493
:105B3000696E5F6272616B650064696E5F6D707241
:105B40006F740064696E5F666F727761726400647F
:105B5000696E5F726576657273650064696E5F6514
:105B60006D637973746F700064696E5F6F637572D3
:105B70000064696E5F626D7300746D5F6D65617363
:105B800000757300D4560008DA560008E056000885
:105B900000000000A076120080D400000100000088
:105BA000D4560008E4560008165A00080000000009
:105BB000007D0000400B000002000000D4560008E9
:105BC000EA5600082A58000800000000007D000086
:105BD000000000004E000000D4560008F1560008F6
:105BE000165A000800000000007D0000007D000043
:105BF0003C000000D4560008F9560008165A000868
:105C0000000000004001000020000000250000000E
:105C1000D456000802570008165A00080000000079
:105C2000400100006000000021000000D456000880
:105C30000B5700080C69000820000000000200005B
:105C40004000000020000000D4560008155700084E
:105C50001C57000800000000800C000040010000FC
:105C600004000000D45600081E5700080C69000804
:105C700000000000000200002000000006000000FC
:105C8000D4560008255700082D57000800000000D2
:105C900020000000000000004B000000D456000867
:105CA0003D570008165A00080000000000320000AE
:105CB0002000000022000000D456000842570008CF
:105CC000165A000800000000007D000000190000C6
:105CD00009000000D4560008475700084E57000836
:105CE0000001000000000400800700000F00000019
:105CF000D4560008565700085F57000800000000FF
:105D0000200000000000000045000000D4560008FC
:105D10006B570008E056000800000000E0FF1F007D
:105D20000000000046000000D45600087357000829
:105D300078570008400000006000000040000000AC
:105D40002E000000915700089A570008A15700083C
:105D50000000000080000000200000000D00000096
:105D600091570008D3570008DA57000800000000D8
:105D700020000000000000003400000091570008DF
:105D8000EE570008E056000800000000E01F000089
:105D9000E00700000E00000091570008F7570008C8
:105DA000145800080083FFFF007D000080F3FFFF10
:105DB0001600000091570008FF570008E056000841
:105DC00000000000E0FF0100007D0000180000005E
:105DD00091570008085800081058000880F3FFFF8A
:105DE000800C00006AFFFFFF1B00000091570008B5
:105DF000165800081058000880F3FFFF800C0000C0
:105E00006AFFFFFF1C000000915700081E580008A1
:105E10002658000800000000E0FF0100C500000057
:105E20001D000000915700082C580008E05600089B
:105E300000000000E0FF0100000000004D00000035
:105E400091570008335800082A5800080000000045
:105E5000007D0000804300003000000091570008E2
:105E60003A580008405800080000000020000000D8
:105E7000000000002D000000555800085D58000883
:105E800068580008000000008000000000000000CA
:105E90004A000000555800087F58000814580008B0
:105EA0000000000040060000000000004700000065
:105EB0005558000889580008E05600080000000006
:105EC000800C0000000A000048000000555800083F
:105ED00092580008E0560008000000004001000051
:105EE00000010000490000009C580008A558000867
:105EF000E056000800000000E0FF01000000000084
:105F0000110000009C580008AC580008E05600083A
:105F100000000000E0FF0100E0FF010012000000AF
:105F2000B3580008B9580008E05600080000000007
:105F3000E0FF0100E0FF01003F000000B35800084F
:105F4000C1580008E056000800000000E0FF010012
:105F5000E0FF010040000000B3580008C9580008E5
:105F60001C57000880F3FFFF00000000C0F9FFFF8E
:105F700026000000B3580008D5580008E258000871
:105F800020000000800C0000800C00004400000095
:105F9000B3580008E95800081C570008000000002A
:105FA000800C0000C003000013000000B35800087C
:105FB000F05800081C57000800000000800C00008A
:105FC000C003000031000000B3580008F758000873
:105FD000165A0008000000000032000040010000D6
:105FE00027000000B3580008025900081C57000899
:105FF00080F3FFFFE0FFFFFFC0F9FFFF4300000059
:1060000009590008145900081E59000880F3FFFFC1
:10601000007D000080F3FFFF3600000009590008F2
:10602000225900081C57000800000000800C0000E6
:106030004006000041000000095900082F590008DF
:106040003859000800000000400000000000000077
:106050004200000009590008565900080C69000860
:1060600000000000800C0000080000003500000067
:10607000095900085E5900080C690008000000007A
:1060800000020000A00000003900000009590008CB
:106090006759000872590008000000002000000045
:1060A000000000003E000000855900088E590008DD
:1060B0001C57000800000000800C00004006000093
:1060C0003700000085590008995900081C5700083E
:1060D00080F3FFFF00000000E0FFFFFF380000003A
:1060E00085590008A35900082A580008000000003C
:1060F000007D0000403800002A000000855900089B
:10610000AA5900082A58000800000000007D00007D
:10611000004100002B000000B1590008C3590008DD
:106120002A58000800000000007D000040290000FF
:1061300014000000C9590008D1590008D9590008B5
:106140000000000040000000000000003A000000D5
:10615000C9590008F2590008FA5900082000E0FF68
:10616000E0FF1F00800C000028000000C959000853
:10617000005A0008E05600082000E0FFE0FF1F0082
:106180000000000029000000C9590008075A000853
:10619000115A000800000000E0FF1F0000EE02009E
:1061A0003B000000195A0008215A0008165A00083E
:1061B00080F3FFFF007D00000000000000000000F1
:1061C000195A00082B5A00081C570008000000004C
:1061D000800C00000000000000000000195A0008B8
:1061E000325A00080C69000800000000000000009E
:1061F0006E00000000000000000000003A5A000895
:10620000415A0008000000000000000000000000EB
:1062100000000000000000007E5A00082A58000814
:10622000000000000000000000000000000000006E
:1062300000000000825A0008145800080000000006
:10624000000000000000000000000000000000004E
:10625000865A0008145800080000000000000000E2
:106260000000000000000000000000008A5A000842
:1062700014580008000000000000000000000000AA
:1062800000000000000000008E5A000814580008AA
:1062900000000000000000000000000000000000FE
:1062A00000000000945A00082A580008000000006E
:1062B00000000000000000000000000000000000DE
:1062C000985A000814580008000000000000000060
:1062D0000000000000000000000000009F5A0008BD
:1062E000145800080000000000000000000000003A
:1062F0000000000000000000A65A0008B05A000884
:10630000000000000000000000000000000000008D
:1063100000000000B65A0008165A000800000000ED
:10632000000000000000000000000000000000006D
:10633000C05A0008145800080000000000000000C7
:10634000000000000000000000000000C35A000828
:1063500014580008000000000000000000000000C9
:1063600000000000000000005C590008C65A000848
:10637000000000000000000000000000000000001D
:1063800000000000C45A0008C95A000800000000BC
:1063900000000000000000000000000000000000FD
:1063A0007F5B0008C95A00080000000000000000E0
:1063B000000000000000000000000000CD5A0008AE
:1063C0000C69000800000000000000000000000050
:1063D00000000000000000007C5A0008D05A0008AD
:1063E00000000000000000000000000000000000AD
:1063F00000000000D35A0008165A000800000000F0
:10640000000000000000000000000000000000008C
:10641000EC5900081E5900080000000000000000B0
:10642000000000000000000000000000DE5800082E
:10643000E05600080000000000000000000000001E
:106440000000000000000000D95A0008E0560008D3
:10645000000000000000000000000000000000003C
:1064600000000000DD5A0008E056000800000000AF
:10647000000000000000000000000000000000001C
:10648000E25A00081C57000800000000000000004D
:10649000000000000000000000000000E95A0008B1
:1064A000ED5A00080000000000000000000000009D
:1064B0000000000000000000065B00080C5B000804
:1064C00000000000000000000000000000000000CC
:1064D00000000000105B00080C5B000800000000DA
:1064E00000000000000000000000000000000000AC
:1064F000155B00082A58000800000000000000009A
:106500000000000000000000000000001A5B00080E
:106510000C690008000000000000000000000000FE
:106520000000000000000000255B00080C69000866
:10653000000000000000000000000000000000005B
:10654000000000002F5B00080C690008000000003C
:10655000000000000000000000000000000000003B
:10656000395B00080C690008000000000000000012
:10657000000000000000000000000000435B000875
:106580000C6900080000000000000000000000008E
:1065900000000000000000004F5B00080C690008CC
:1065A00000000000000000000000000000000000EB
:1065B000000000005B5B00080C69000800000000A0
:1065C00000000000000000000000000000000000CB
:1065D000685B00080C690008000000000000000073
:1065E000000000000000000000000000715B0008D7
:1065F0000C6900080000000000000000000000001E
:106600000000000000000000795B0008815B0008CA
:10661000000000000000000000000000000000007A
:10662000556E6B6E6F776E20636F6D6D616E64205B
:1066300073657175656E63650D0A0000D4690008A5
:1066400005260008996900086D2400089D69000866
:10665000F1250008A669000841240008AA6900087D
:1066600015240008AF69000839250008635B00089D
:10667000D9250008295B0008A5250008B369000892
:1066800081250008B869000865260008BD69000872
:106690000D230008C2690008B9240008C769000872
:1066A00019230008CB69000815230008D2690008E7
:1066B0000F2300080000000000000000416C6C2067
:1066C0006D65737361676520646566696E69746979
:1066D0006F6E7320636C65617265640D0A004D69AD
:1066E0007373696E6720617267756D656E740D0AEC
:1066F00000496E76616C69642043414E20496420F4
:1067000025780D0A00496E76616C6964204F6666D3
:106710007365742025640D0A00496E76616C6964A6
:10672000206C656E6774682025640D0A0043616EF5
:106730006E6F74206D617020616E796D6F7265206F
:106740006974656D7320746F2043414E2069642025
:1067500025780D0A004D6178206D6573736167655A
:1067600020636F756E7420726561636865640D0ADD
:106770000043414E206D61702073756363657373D0
:1067800066756C2C202564206D6573736167657375
:10679000206163746976650D0A00556E6B6E6F77C4
:1067A0006E20706172616D657465720D0A004176CC
:1067B00061696C61626C6520706172616D657465A0
:1067C000727320616E642076616C7565730D0A00CA
:1067D0002573205B25735D0D0A0025730909256665
:1067E0000D0A007B0025630D0A202020222573223C
:1067F0003A207B22756E6974223A222573222C225C
:1068000076616C7565223A25662C22697370617217
:10681000616D223A00747275652C226D696E696D26
:10682000756D223A25662C226D6178696D756D2231
:106830003A25662C2264656661756C74223A256679
:106840002C2263617465676F7279223A2225732264
:106850007D0066616C73657D000D0A7D0D0A005038
:106860006172616D657465722061747472696275BC
:106870007465730D0A004E616D6509096D696E20BE
:106880002D206D6178205B64656661756C745D0DAB
:106890000A00257309092566202D202566205B2521
:1068A000665D0D0A00506172616D657465727320DA
:1068B00073746F7265642C204352433D25780D0A32
:1068C0000043414E4D41502073746F7265640D0A50
:1068D00000496E76657274657220737461727465B6
:1068E000640D0A00496E76616C696420696E766594
:1068F00072746572206D6F646500496E766572749E
:1069000065722068616C7465642E0D0A00446566CA
:1069100061756C7473206C6F616465640D0A004E60
:106920006F20706172616D657465722076616C753F
:106930006520676976656E0D0A00536574204F4BBC
:106940000D0A0056616C7565206F7574206F6620A6
:1069500072616E67650D0A00556E6B6E6F776E2003
:10696000706172616D657465722025730D0A005047
:106970006172616D6574657273206C6F61646564CA
:106980000D0A00506172616D657465722043524357
:10699000206572726F720D0A006765740064656627
:1069A00061756C747300616C6C006C697374006168
:1069B00074720073617665006C6F61640068656C69
:1069C00070006A736F6E0063616E006572726F7241
:1069D0007300726573657400000C014020000200B2
:1069E000000C0140400002000008014004000200C9
:1069F00000080140080002000008014010000200E9
:106A00000010014040000200001001408000020020
:106A1000000C0140001002000010014000010200C3
:106A200000140140040002000008014001000100C0
:106A300000080140020002000010014000020200B4
:106A40000010014000200400001001400008040074
:106A5000000C01400200040000100140001004007E
:106A60000010014020000200001001402000020040
:106A7000001001402000020000100140000104004D
:106A800000100140000404000000000000000500A8
:106A9000000000030201000001000000B5930000A7
:106AA0001000000000006500C9002E019201F701EE
:106AB0005B02C00224038903ED035204B6041B05E4
:106AC0007F05E3054806AC0611077507D9073E08A0
:106AD000A20806096A09CF09330A970AFB0A5F0B65
