:020000040800F2
:10100000005000201556000813560008115600081D
:101010001156000811560008115600080000000083
:10102000000000000000000000000000135600084F
:10103000135600080000000013560008135600085D
:1010400011560008115600081156000811560008E4
:1010500011560008115600081156000811560008D4
:10106000B52F000811560008115600081156000847
:1010700011560008115600081156000811560008B4
:1010800011560008115600081156000811560008A4
:10109000C93B0008115600081156000811560008F7
:1010A000653D0008A53D00081156000811560008CE
:1010B000951F000811560008115600081156000827
:1010C0001156000811560008115600081156000864
:1010D0001156000811560008115600081156000854
:1010E0001156000811560008115600081156000844
:1010F0001156000811560008115600081156000834
:101100001156000811560008115600081156000823
:101110001156000811560008115600081156000813
:101120001156000811560008115600081156000803
:1011300011560008115600081156000811560008F3
:1011400011560008115600081156000811560008E3
:10115000F8B5132001F008F8144B0227054609CB17
:10116000184490FBF7F4152000F0FEFF0646162009
:1011700000F0FAFF304490FBF7F068434011221A68
:101180000B4D2044521144113946284622EAE2729E
:1011900004F000F8B4F5805F22462846BDE8F84028
:1011A000A8BF4FF48052042103F0F4BFCC0100200B
:1011B000000800402DE9F04F3B2085B000F0DAFF39
:1011C000B14B01901A684FF0000A01321A6018689A
:1011D00002F0FCFAD046AD4EAD4FDFF8B8925FFAA0
:1011E0008AF5A81DC0B202F03FF8019B44014FEA06
:1011F0008A0B1BB947F82A40FFF7AAFF57F80B00E4
:10120000241A05F11500C0B200F0AEFF640194FB92
:10121000F0F405F13E002146C0B200F0BBFF56F8E5
:10122000041F002CB8BF6442A142B8BF2146D9F8C0
:1012300000B03160BBF1000F0AD11622514305F115
:10124000420049113160C0B200F0A4FFC6F800B0FE
:101250002402A0450AF1010AB8BFA046BAF1020F64
:10126000BDD18C4B1B68002B40F099804F2000F0C3
:101270007BFF07464E2000F077FF04463E2000F03B
:1012800073FF05463F2000F06FFF06463C2000F04C
:101290006BFF814B7F011B88DFF814925B0197FB8A
:1012A000F3FB16235843471102F03AFD314602463C
:1012B000284602F08DF9794AD9F8001010684943A0
:1012C0004043491101EB6010039201F0BFFB0BFB9F
:1012D00007F77F1100FB07F14FF47A7E491191FB6C
:1012E000FEF10BFB01F14B113C2194FBF1F4039A4D
:1012F00002931368C92103FB07F56D110BFB05F57C
:101300004C436D116E014FEA641A96FBFAFA5E01C6
:1013100096FBF0F6D9F8001026EAE67601FB07F412
:10132000641194FBFEF4202E4FF03B00A8BF202652
:1013300095FBFEF500F01EFF0BFB04F402284FEABC
:101340006414039A0ADC1168162301FB0BF149119E
:1013500059433D20491100F01DFF039A11684620B2
:1013600000F018FFD9F80010472000F013FF3946AD
:10137000412000F00FFF31464B2000F00BFF2946C3
:10138000482000F007FF2146492000F003FF0299A2
:101390004A2000F0FFFE51464C2000F0FBFE3D4A83
:1013A0003F4C13680133DBB21360236873B911201B
:1013B00001F060FA372000F0DDFE05464E2000F017
:1013C000D9FE400095FBF0F5256001E0013B23606C
:1013D000344B354C1B78002B51D0344D1E202E68D9
:1013E00000F0C8FE06FA00F080442868C0EB080848
:1013F0001E2000F0BFFE48FA00F028601C2000F01C
:10140000B3FE2268D30203EB0020801AC0122060D2
:101410001D2000F0AFFE23682C681C1B60434411A4
:101420002146392000F0B6FE019B3D20032B01BF71
:101430002B68C4F548615943642306BF491191FBE9
:10144000F3F12968091200F0A5FE542000F08CFE8B
:1014500002F0B0F9B4EB401F05DB542000F084FE2D
:1014600002F0A8F9440124EAE470B0F5406FA8BF87
:101470004FF4406005B0BDE8F04F02F057BC236068
:1014800005B0BDE8F08F00BFD8010020FC010020AE
:10149000CC010020F0010020D06A0008BC0300202D
:1014A000E8010020EC010020F4010020FC010020F4
:1014B000C003002070B5532000F05CFE04461020ED
:1014C00001F0D8F901F054FD01464E2000F05AFE1B
:1014D00002F0C0F901F04CFD632814D8042001F09B
:1014E000A3F928B1052001F09FF908B901240AE009
:1014F000042001F099F930B9052001F095F9002890
:1015000018BF4FF0FF34042001F08EF90546052086
:1015100001F08AF9854208BF0024204602F098F8BD
:10152000062001F081F948B1032001F07DF928B1CE
:10153000072001F079F908B1012100E000215E20C7
:1015400000F020FE022001F06FF9344D064620B174
:10155000334B4FF0FF321A6017E02E2000F00AFEE6
:1015600038B901F061F980B101F002FD2C4B18602F
:101570000BE0304601F058F910B12B78002B48D021
:10158000002001F051F90028E2D0002001F04CF9D0
:1015900021462870532000F0F5FD002001F044F9A9
:1015A0000146572000F0EEFD012001F03DF9014613
:1015B000582000F0E7FD022001F036F901465920DD
:1015C00000F0E0FD032001F02FF901465A2000F061
:1015D000D9FD042001F028F901465B2000F0D2FD7E
:1015E000052001F021F901465C2000F0CBFD06202A
:1015F00001F01AF901465D2000F0C4FD082001F059
:1016000013F901465F2000F0BDFDBDE8704002F017
:10161000A1BA01F0ADFC024B1860B1E7C80100208F
:10162000D00300202DE9F04F3B2087B000F0A2FD51
:1016300005461B2000F09EFD0090312000F094FD37
:101640008346322000F090FD8246192000F08CFD88
:101650008146172000F088FD0446022000F084FD3A
:101660008046012000F080FD0646002000F07CFD51
:101670000746182000F07EFD0190052001F0F4FDE2
:10168000F822410191FBF2F1562000F083FD022087
:1016900001F0EAFDA84A019B116800EB8100401AA5
:1016A0008010C31A9B0293FBF4F4A34510604FF023
:1016B0000E0001DCA24502DA01F0C8F801E001F0F9
:1016C000CFF8A14509DA00213B2000F05BFD132093
:1016D00001F0BCF8052002F07FF8B8F1000F0CDD36
:1016E000C8EB04035B0193FBF8F303F12002C3F1A1
:1016F000200356437B4376115F1121463C2000F0C6
:1017000049FD3146452000F045FD3946442000F0B2
:1017100041FD304601F00EFA781101F005FA002083
:1017200001F0A2FD0490012001F09EFD0590022031
:1017300001F07AF804998246502000F023FD0599C3
:10174000512000F01FFD002104A801F087FF28B9F7
:10175000132001F07BF8012002F03EF8012105A8DA
:1017600001F07CFF52460599049801F097FF064668
:1017700001F0FEFB01F0E0FF8146542000F0F4FC94
:1017800002F018F8074601F0F3FB01F0E9FF80468C
:101790002B2000F0EFFC002800F0C6812B2000F089
:1017A000E9FC012803D1BAF1000F00F0BD812B2024
:1017B00000F0E0FC022808D1BAF1000F05D1504634
:1017C00001F032F8002840F0AF8130465B4A1368E0
:1017D0000392002B0ADD5A4A1268934206DD002E5E
:1017E00003DB03D0464580F2A4814046632F0EDC24
:1017F000002804DB0646BE42A8BF3E4603E07E4208
:101800008642B8BF0646132001F020F800E00646E5
:101810003146522000F0B6FC352000F0ABFC064605
:10182000362000F0A7FC8046342000F0A3FC019095
:10183000042001F019FD8346032001F015FD414FFE
:1018400002903B68DFF808A1DFF80891032B48D825
:10185000DFE803F002102635152001F001F814200E
:1018600000F0FEFF0123042102983B6001F0E2FD3D
:10187000002738E0152000F0E9FF142000F0F0FF09
:101880000023022205215846CAF80030C9F800306A
:1018900002933A6001F0CEFD029B0746184622E013
:1018A000152000F0DDFF142000F0D0FF03230521F8
:1018B00058463B6001F0BEFD0746002013E01520AE
:1018C00000F0C4FF142000F0C1FF0023052158469A
:1018D0003B6001F0AFFD04210746029801F0AAFD2C
:1018E00001E000200746DAF80030174A9F42B8BFEF
:1018F0001F46D9F80030CAF800709842B8BF1846A1
:101900001368824603EBC733DB1BDB1313600F4AFC
:10191000C9F80000136803EB80431B1A9B14136083
:10192000019B012B03D0022B16D0421100E07A114B
:1019300006FB028215E000BFDC010020D00300207E
:10194000E403002008020020D40100200C02002043
:10195000E0010020F80100204E2000F005FC00FB13
:10196000068282F310020621924803F013FC3946E6
:10197000542000F00FFC5146552000F00BFC0A20CB
:1019800001F096FA012D40F08E80042000F0ECFB6F
:101990000746072000F0E8FB8046522000F0E4FBF9
:1019A000B0F1000A33DB4FEA4A09BAF5C86FC84400
:1019B0002BDB052000F0D8FB8246032000F0D4FB8F
:1019C00006464D2000F0D0FB8346284600F0CCFBB5
:1019D0008345C6BF5E44A6EB4006CBEB0606760009
:1019E000760196FBF0F0C7EB0A03A9F54869584366
:1019F00003FB09F34FF064095B1193FBF9F30AEB66
:101A000060101F448742A8BF074612201FE027200E
:101A100000F0AAFB064601F08DFA8642CAF10008E2
:101A2000C7F1000708D901F085FA4001B0FBF6F0D4
:101A300008FB00F84FEA5818282000F095FB4042B8
:101A400040454FF0120002DC00F000FF01E000F022
:101A500007FF392000F088FBC000B8F5486FD4BFFD
:101A6000804400F54868392000F07EFBC0EB080197
:101A7000C910392000F08EFB382000F075FB07EB11
:101A8000C007382000F070FB391AC910382000F068
:101A900081FB392000F068FB02F048F9382000F0A3
:101AA00063FB02F049F9332000F05EFBA0420DDC3D
:101AB000522000F05FFB002808DC062000F0B4FE96
:101AC00020B1032000F0B0FE002836D13A4C95B981
:101AD000322329464F20236000F054FB284602F0B1
:101AE0001FFB0D2000F0BCFE039A4FF0FF33136084
:101AF000324B1D705BE02368002B11D102F008FC13
:101B00002846033D02F00CFB012D2C4B8CBF002519
:101B1000012513201D7000F0A3FE4FF0FF3301E0FC
:101B200045DD013B236042E0B1454846B8BF304641
:101B30004CE6632F7FF75FAE6AE6042000F074FE88
:101B4000E8B1052000F070FEC8B1082000F06CFE7E
:101B5000A8B9009B022B12DD009B032B02D10D20A4
:101B600000F074FE132000F07BFE0F2000F078FEE2
:101B700000993B2000F006FB01F04CFEA6E7012097
:101B800000F052FE0028A1D00D2000F05FFE1320CF
:101B900000F066FE0F2000F063FE01213B2000F004
:101BA000F1FA01F037FE054B00221A708EE707B0FC
:101BB000BDE8F08F00080040E4010020EC010020A7
:101BC000382838B505D100F0CFFABDE8384002F02A
:101BD000B3B8392805D100F0C7FABDE8384002F0A3
:101BE000A5B8062000F0C6FA04460B2000F0C2FAA1
:101BF00005460C2000F0BEFA374B6843634393FB65
:101C0000F0F4FFF7A5FA082000F0B4FAC0B201F032
:101C1000A5F8092000F0AEFA05460D2000F0AAFA5A
:101C2000011C18BF0121281C18BF012000F0DCFF97
:101C30000C2000F09FFA80B201F078F8204601F005
:101C400073F80A2000F090FA00F04CFF0B2000F02F
:101C50008BFA00F04DFF142000F08CFA00F02CFEFF
:101C60001F2000F087FA1D4D1D4C2860202000F039
:101C700081FA2060212000F07DFA6860222000F0C7
:101C800079FA6060252000F075FA164B1860232061
:101C900000F070FA144B1860242000F06BFA134B1C
:101CA0001860262000F066FA114B1860292000F019
:101CB00061FA104B18602C2000F056FA0E4B186099
:101CC0002D2000F057FA0D4B18602A2000F04CFA36
:101CD0000B4B186038BD00BF00350C00C40300205A
:101CE000D4030020F4030020E0030020F0030020D0
:101CF000EC030020E4030020F8030020CC030020C4
:101D0000DC03002008B500F04DF800F0E5F801F024
:101D1000E9FA00F05BFD00F0A1F800F0CBF800F06C
:101D2000DDF900F0EFFF1A4800F08AFA01F080FEBA
:101D300001F01CFC6120FFF743FF164B188800F0F0
:101D4000FFFE002211466423134800F077F90A23AE
:101D500001220021114800F071F901230222002123
:101D60000F4800F06BF9042000F05EFD40B1052043
:101D700000F05AFD20B11B2000F0FCF9042802D02D
:101D80000F2000F063FD00F061FA002008BD00BFE5
:101D900000480040D06A0008B51400082516000865
:101DA000B511000870B502F0C1FE042002F0AAFED1
:101DB0000320254C02F092FE244A254B20461A604F
:101DC000042103F043FB2046082103F03FFB20469B
:101DD000102103F03BFB204620211E4D03F036FB73
:101DE0002046402103F032FB20464FF4807103F07F
:101DF0002DFB28464FF4802103F028FB20464FF4AA
:101E0000006103F023FB144E2846022103F01EFB61
:101E10002846042103F01AFB3046012103F016FB8B
:101E200020464FF4007103F011FB3046402103F0CF
:101E30000DFB2046012103F009FB2846BDE8704058
:101E40004FF0007103F002BB181002400003FA05C6
:101E50000CED00E01C1002401410024010B5134CB1
:101E60004FF4806302220321114802F075FD2046E1
:101E70004FF4E13103F08CFA2046082103F09CFA7C
:101E800020464FF4005103F0A0FA20460C2103F045
:101E9000A8FA2046002103F09EFA2046002103F014
:101EA000A6FA2046BDE8104003F0A7BA004800405B
:101EB000000C014008B5192003F0FCFB002119209B
:101EC00003F012FC182003F0F5FBBDE808400021E8
:101ED000182003F009BC000010B52B4C204602F07E
:101EE0003AFF0021204602F022FF204602F01AFFAE
:101EF00020460622022102F049FF20460622042144
:101F000002F044FF06221146204602F03FFF204621
:101F1000022103F007F82046042103F003F82046CD
:101F2000062102F0FFFF2046022103F015F82046AB
:101F3000042103F011F82046062103F00DF8204695
:101F4000022103F081F82046042103F07DF82046A9
:101F5000062103F079F82046012103F08DF920468F
:101F6000002102F002FF4FF48051204602F00CFFE6
:101F7000204602F0EBFEBDE810404FF460730222F1
:101F80000321024802F0E8BC00080040000C0140B8
:101F90007047000008B5224B1A6892070CD51A68E2
:101FA00022F002021A601F4B1B6898471E4A1F4905
:101FB000136809880B441360194B1A6850070CD535
:101FC0001A6822F004021A60164B5B689847184A98
:101FD0001649136849880B441360114B1A6811079E
:101FE0000CD51A6822F008021A600E4B9B689847BD
:101FF000104A0E49136889880B441360084B1A680D
:10200000D2060CD51A6822F010021A60054BDB6864
:102010009847094A05491368C9880B44136008BDED
:102020001000004010020020340000402002002078
:10203000380000403C00004040000040F0B500295E
:1020400035D1032A33D8DFE802F00E0206094FF437
:102050008056184D09E01026174D02E0174D4FF439
:102060008056174902E0174D102617494FF080445B
:10207000276827F0010727600F683E430E60134E64
:102080002B6035680221914029433160104903EBF0
:10209000830341F822000F499B0021F812300E4BB8
:1020A00000201860236843F001032360F0BD4FF067
:1020B000FF30F0BD380000403C00004040000040D0
:1020C0001C00004034000040180000400C0000409C
:1020D00010020020200200202400004008B5012149
:1020E000104803F0B3F91C2003F0E4FAF0211C209F
:1020F00003F0FAFA4FF0804380221A604FF46162D5
:102100009A624FF6FF73084A084813600849094A63
:10211000038011604380516083809160C380D160EF
:1021200008BD00BF1C1002402C000040200200200F
:10213000911F00081002002010B5094C1C2303FB5E
:102140000043DC688C4209DC1B69994206DC054BC4
:1021500043F82010FFF734FD002010BDFF2010BD14
:10216000B85B000800000020014B53F820007047C6
:1021700000000020024B53F820004011704700BFC0
:1021800000000020024B490143F82010704700BFB7
:1021900000000020014B43F8201070470000002091
:1021A000F8B50546084E00241C2707FB04632946A2
:1021B000586800F07FFA08B9E0B2F8BD0134612C2C
:1021C000F3D16220F8BD00BFB85B000810B5074A24
:1021D00000231C2101FB0324A469844201D1D8B24D
:1021E00010BD0133612BF5D1622010BDB85B000832
:1021F000024B1C2202FB0030704700BFB85B000896
:10220000044A1C2303FB0023D8681B69C01A18BFAB
:1022100001207047B85B0008074A0849002352F8BC
:10222000040C18B152F8080C41F823000133612B5B
:1022300002F11C02F3D17047D45B000800000020BB
:10224000014B1860704700BF840100202DE9F74F53
:102250004FF0000AD346D046564654462B4FDFF87F
:10226000B490386803F0D9F8C5B22946386803F04D
:10227000C9F80A2D03D00D2D01D07E2C19DDBBF13C
:10228000000F0AD0DBF804303046DA464FF0000B7E
:10229000B04698475E465C46E3E7002CE1D01B4B16
:1022A0001B4C1D6814F8011F91B1284603F0AAF8D1
:1022B000F8E7212D4FF000010CD10191BAF1000F88
:1022C00001D15446CDE7DAF8042040469047019901
:1022D0000C46C6E709F80450013409F80410002E32
:1022E000BFD1DFF834B0DBF8001019B1094800F0B5
:1022F000E1F920B9DBF8002022B99346B1E70BF1F0
:10230000080BF0E7034E2644ABE700BF8401002032
:1023100053660008280200207066000808B5054BC7
:1023200001461868431C03D089B203F06BF8002003
:1023300008BD00BF84010020704708B503F0B2F962
:1023400001F0A4BA2DE9F04387B000F01AFA03783F
:102350000546632B03D101F059FB304858E00026B5
:10236000B1466FF001044FF062082021284600F0CA
:10237000B9F9037807461BB9032C01D0284847E078
:10238000A11C87F8009005D12E78A6F17402564260
:1023900056410BE0631C284603D1FFF701FF80463E
:1023A00004E000F0D7F902AB43F824000134042C18
:1023B00007F10105D9D1B8F1620F28D0059B02A918
:1023C00000930EC9404616B101F0D0FA01E001F0C9
:1023D000DBFA431D042B13D8DFE803F00C0F0906CA
:1023E000030002990F480DE003990F480AE0049991
:1023F0000E4807E002990E4804E002990D4801E0FA
:1024000001460D4807B0BDE8F04300F00FBF0B4890
:1024100007B0BDE8F04300F009BF00BFF066000858
:102420001267000825670008396700084D67000833
:102430006167000889670008A5670008CE67000883
:1024400010B5084800F0F2FE0024E0B2FFF7D0FE1D
:10245000013482684168044800F0E8FE612CF4D140
:1024600010BD00BFE26700080468000870B50024D2
:10247000E5B22846FFF7BCFE46682846FFF774FE23
:10248000013402463146034800F0D0FE612CEFD102
:1024900070BD00BF0E68000870B500F072F9044608
:1024A0002C21204600F01EF9054600230678037013
:1024B0002046FFF775FE2C46622804F8016B06D013
:1024C000FFF752FE0146054800F0B0FE02E0044866
:1024D00000F0ACFE2B782C2BE2D070BD1268000807
:1024E000CE6700082DE9F743194800F09FFE00254C
:1024F0002027EEB23046FFF77BFED0F80480D0F8FC
:10250000089004463046FFF72FFE4B4600904246A7
:102510003946104800F08AFE3046FFF771FE40B1A0
:10252000236804F10C0100930EC90B4800F07EFEF5
:1025300002E00A4800F07AFE0135612D4FF02C07C9
:10254000D7D1074803B0BDE8F04300F06FBE00BF2D
:1025500017680008196800084968000886680008BC
:102560008D68000873B50E4800F060FE0D4800F05D
:102570005DFE0024E6B23046FFF73AFE05463046DF
:10258000FFF73EFE38B16B69074800932B69EA6894
:10259000696800F04BFE0134612CEBD102B070BDD4
:1025A00093680008AA680008C668000808B500F02B
:1025B0007FFF0146044800F039FE01F0F3F9BDE861
:1025C0000840024800F032BED9680008F5680008EB
:1025D00010B500F0D6F800F00FFADF28044608DC4A
:1025E00001463B20FFF7D6FD601101F099FD03483D
:1025F00000E00348BDE8104000F018BE056900087F
:102600001869000808B53B200021FFF7BBFDBDE8B5
:102610000840014800F00ABE2E69000808B5FFF71F
:10262000FBFDBDE80840014800F000BE416900081C
:1026300038B500F0A6F82021044600F053F80378DE
:102640000BB90F480FE0002300F8013B00F0D4F96C
:1026500005462046FFF7A4FD62280AD02946FFF769
:102660006BFD20B90748BDE8384000F0DFBD0648E3
:10267000F9E72146BDE83840044800F0D7BD00BF67
:10268000536900086E690008776900088C690008C2
:1026900008B500F06BFF18B9FFF792FA034800E0A5
:1026A0000348BDE8084000F0C1BD00BFA3690008B1
:1026B000B769000810B5013810F8013F0C4623B186
:1026C00011F8012B0AB19342F6D02078C01A18BF36
:1026D000012010BD02460346981A13F8011B002979
:1026E000FAD170470346184613F8012B0AB18A4203
:1026F000F9D170470029F0B5034605DA2D2003F81B
:10270000010B4942012001E003D000201C46C71AFA
:1027100004E03022027041700120F0BD91FBF2FE16
:10272000254602FB1E11303105F8011BBEF10001E8
:102730001E4605EB070001DD2C46EFE700232B705A
:10274000B44206D93378227806F8012B04F801390F
:10275000F6E7F0BD30B5037800212D2B06BF013020
:102760004FF0FF340124431E0A2513F8012F303A9D
:10277000D0B2092802D805FB0121F6E704FB01F0DD
:1027800030BD10B503780446202B00F10100F9D0CC
:102790007BB12046FFF79EFF013820448442034668
:1027A00002D300225A7004E01A780138202AF5D0AA
:1027B000F7E7204610BD043812F1FF3204D351F878
:1027C000043B40F8043FF7E77047000070B5124C37
:1027D000124E14F8023C052B1CD0013BDBB2032B3C
:1027E0009DBF0F480F4AC55C002599BFF15CD25CC4
:1027F0000222294634F8043C54F8080C02F0ACF8E4
:10280000012D05D134F8041C54F8080C02F02CFA00
:102810000834DEE770BD00BF146A0008C46A00080F
:10282000CC6A0008C86A0008074B10B503EBC00467
:10283000A18853F8300002F01CFAA388184214BF94
:102840000120002010BD00BF0C6A0008034B03EB01
:10285000C002918853F8300002F006BA0C6A0008F2
:10286000034B03EBC002918853F8300002F0FEB92D
:102870000C6A0008034B03EBC002918853F8300048
:1028800002F0FAB90C6A0008024B400933F9100053
:10289000704700BFD86A0008034BC0F58040C0F302
:1028A0004A1033F910007047D86A0008014B1860CD
:1028B000704700BFBC020020014B1860704700BF8A
:1028C000AC02002091420B46A8BF13468A42B8BF13
:1028D0000A468242B8BF02468342D4BFD0181018BD
:1028E00040107047F0B5244A431132F9133085B0D7
:1028F000019300F5AA435533C3F34A13A0F5AA4048
:1029000032F913305638C0F34A10029332F91030BE
:1029100001AC0393194B1988002354F823204A4330
:10292000D21344F823200133032BF6D101A807C8A2
:10293000FFF7C8FF00229446114B12491E88124B24
:102940004FF4803E1D68C5F5803754F822301B1ABD
:1029500044F822303344AB4241F8043F02D2C1F87C
:1029600000C003E0BB4288BFC1F800E00132032A87
:10297000EBD105B0F0BD00BFD86A0008BC02002052
:10298000A8020020AC020020AC020020024B4FF451
:1029900000421A80704700BFA80200200029B4BF7F
:1029A0004FF0FF32012270B5054601FB02F46423AB
:1029B00001324FEA641104F01F0403FB04F404BF66
:1029C0002D2305F8013B06460A222846FFF792FE12
:1029D0006411092C4FF02E022A5405EB000398BF16
:1029E000302203F101009CBF5A70981C0A22214634
:1029F000FFF780FE304670BDF0B5037800242D2B24
:102A000006BF01304FF0FF3501250A27024612F8B4
:102A1000013BA3F13001CEB2092E03D807FB041409
:102A20001046F3E773B10A210F46002310F8012F77
:102A3000303AD6B2092E05D8520192FBF1F2794311
:102A40001344F3E703EB44106843F0BDB0F57A7F1D
:102A500034BF0423082320FA03F3202B38BF20239C
:102A60004001B0FBF3F21A445208991A01291346A7
:102A7000F7D810467047000010B5154C154B246868
:102A80001B68A04228BF4343134A38BF0021126885
:102A900021BF02EB932359436423B1FBF3F10F4BA6
:102AA0001C680F4BA1421B6828BF2146A3F520726A
:102AB00090420AD91B1A23EAE3735A014FF4207398
:102AC00092FBF3F349014B439912084610BD00BF36
:102AD000C4020020C0020020CC020020C802002056
:102AE000D0020020014B1860704700BFC4020020D4
:102AF000014B1860704700BFD0020020064B074A08
:102B00001B6812689B1A064A9B021268B3FBF2F319
:102B1000044A1360704700BFC8020020CC020020A6
:102B200088010020C0020020014B1860FFF7E6BFBB
:102B3000CC020020014B1860FFF7E0BF88010020A5
:102B4000014B1860FFF7DABFC802002008B5214822
:102B500002F09CF8204B1F481988890002F014F9F4
:102B60001E4B1B7873B11E49042002F0CBFC0820D9
:102B700002F0A0FD0021042002F096FC042002F0E7
:102B8000B1FC02E0082002F0A3FD0321114802F08D
:102B9000EEFB012200210F4802F09EFB02220121E0
:102BA0000C4802F099FB0F2200210A4802F06CFB4E
:102BB0000F220121074802F067FB0021054802F0BF
:102BC000BCFB0448012102F0B8FBBDE80840014805
:102BD00002F0BCB800040040DA020020D802002055
:102BE00000140140002070473F4B10B51A7804468E
:102BF00082423E4A02D11078884274D01C70117013
:102C00001CB1BDE81040FFF7A1BF394802F03EF803
:102C10004721374802F0A9F84FF6FF71344802F017
:102C2000B3F8334802F08DF80421314802F09FFBDD
:102C300001212F4802F092FB70212D4802F09FFBEA
:102C40000F212B4802F081FB21460E22284802F07A
:102C50001BFB21460122264802F03EFB254A214665
:102C60001368234843F00203136002F066FB4FF43D
:102C700000711F4802F04AF81D4802F071F8012166
:102C80001B4802F0F9FA1A4802F060F806211A48C7
:102C900001F0C9FF194A0621174801F0CDFF184A73
:102CA0000621154801F0D1FF4FF480720621124829
:102CB00001F08EFF4FF4806206210F4801F07CFF87
:102CC000052206210C4801F0C9FF06210A4801F03F
:102CD0008BFF0621084801F090FFBDE81040062157
:102CE000054801F097BF10BDD9020020D80200208E
:102CF0000004004020040040000002403404004072
:102D00008E01002008B50221054802F09FFB054B0B
:102D1000012200211A700846BDE80840FFF764BF91
:102D20001C100240D902002070470000084B1A888E
:102D300082420BD018804FF4803393FBF0F0054BA8
:102D40001860054B1B780BB1FFF700BF704700BF41
:102D5000DA020020E0020020D9020020014B188096
:102D6000704700BFF8020020F8B5424B05461B78BB
:102D7000FBB1414C204602F083FA404B00041B8813
:102D80003F4A9B00B0FBF3F080B2108013882468A8
:102D900099B2E40648BF11883A4812880388028035
:102DA000394A54BFCB1A5B1A11689BB20B441360AB
:102DB000F8BD364B364E1A68364B92B21868364B11
:102DC000B6461C681A60A242C8BF0534A41A002285
:102DD0004FF6FF73114636F81170BFB29F4298BF8D
:102DE00036F811303EF8117098BF9BB2BFB29742CF
:102DF00028BF36F8112001F1010128BF92B2052940
:102E0000E9D12649002CD5BF0E68002601360E6098
:102E1000D8BF0E600968C4BF214F3E70B1F57A7FFC
:102E2000C2BF1F4901260E70B2EBC30F07D933B1E1
:102E30001B4B012206201A7000F0CEFC10E003EBC1
:102E400043039342174E01D2326009E0164A3368B9
:102E5000178881B2C91A03FA07F28B18FB40336056
:102E6000124B074A1B6811885D4305FB0414A4B28A
:102E70001480F8BDD902002000040040DA020020CE
:102E8000DC020020F0020020F4020020700002406A
:102E90008E01002034040040E8020020D40200200B
:102EA0008C010020E4020020F8020020E002002053
:102EB000084B1B786BB100280BDD074A4FF47A737F
:102EC00011684B43B3FBF0F0044BC00A18600023B9
:102ED00013607047D9020020F4020020EC020020A9
:102EE00038B50E4B05461B780D4C0BB1208812E00F
:102EF0000C4802F0C5F90C4B1B7843B10B4B1B6817
:102F000058430B4B1B68B0FBF3F080B200E018464F
:102F1000238805FB003080B238BD00BFD9020020F5
:102F2000DC020020000400408C010020E0020020B0
:102F3000E4020020084B187810B1084B186870475D
:102F4000074B1B783BB9074B1888074B1B68584346
:102F5000064BB3FBF0F07047D9020020EC020020D2
:102F60008C010020DA020020E40200200048E80181
:102F70000A4B187828B10A4B18683C23584340097B
:102F80007047084B1B783BB9074B1888074B1B68E9
:102F90005843074BB3FBF0F0704700BFD902002045
:102FA000EC0200208C010020DA020020E402002064
:102FB0000087930308B50448002102F063F9BDE8D7
:102FC0000840042002F098BA0004004028B10368C9
:102FD000197003680133036070470846FFF79EB914
:102FE0002DE9F843141E80460D460FDD0A46501B9E
:102FF00012F8011B0029FAD18442CCBF241A0C46D6
:1030000013F0020F0CBF2027302700E02027DB073A
:103010000CD42646002E05DD39464046FFF7D6FF84
:10302000013EF7E724EAE473E41A00E000235E1BA4
:1030300006EB050915F8011B19B14046FFF7C6FF5D
:10304000F6E72546002D05DD39464046FFF7BEFF71
:10305000013DF7E7002CACBF09EB040009F10000CB
:10306000BDE8F8832DE9F04385B00746DDF83080F0
:10307000DDF834900D4651B930238DF804308DF8C9
:1030800005104B46424601A9FFF7AAFF3AE033B1CB
:103090000A2A06D1002904DA4D42012002E018462E
:1030A00000E00020002304AE06F8013D0E9B3A3BF1
:1030B0005DB1B5FBF2F102FB1155092DC8BFED184A
:1030C000303506F8015D0D46F2E798B1B8F1000F12
:1030D0000AD019F0020F07D02D213846FFF776FFEE
:1030E00008F1FF38012406E02D2306F8013C0024F6
:1030F000013E00E004464B46424631463846FFF763
:103100006FFF204405B0BDE8F08300002DE9F043D7
:1031100007460E461446DFF810918BB000254FF09D
:103120000A08337823B1252B72D17378711C2BB91F
:10313000002F74D03B6800221A7070E0252B66D0F7
:103140002D2B06BFB11C012300230A78481C302A0E
:1031500003D143F002030146F7E7002208780E4648
:10316000A0F1300E5FFA8EFCBCF1090F01F10101F4
:1031700002D808FB02E2F1E7732805D12168043484
:10318000002908BF49463EE064280DD12146612050
:103190008DE80C00029001230A22096838460434A5
:1031A000FFF760FF054438E0782802D1214661200E
:1031B00003E0582807D1214641208DE80C000290F9
:1031C00000231022E9E7752806D161208DE80C0064
:1031D000214602900023DFE766280AD1216807A86C
:1031E000059304920434FFF7D9FB059B049A07A9C1
:1031F00009E0632811D1216804348DF818100021EA
:103200008DF8191006A93846FFF7EAFECAE70E4600
:1032100031783846FFF7DAFE0135013681E7284676
:103220000BB0BDE8F08300BFD87A00080FB407B533
:1032300004AA52F8041B00200192FFF767FF03B0B5
:103240005DF804EB04B07047884205DD914208DC6C
:103250009042A8BF10467047904203DC9142A8BF3D
:103260001146084670470000124B13B503EB4000AF
:1032700000F13003002433F8102C33F8201C33F80D
:10328000300CFFF7E1FF2DF814000134042C03F19A
:103290003003F0D1BDF80230BDF800001844BDF88D
:1032A00004301844BDF806301844C0F38F0002B053
:1032B00010BD00BFFA020020012806D0022809D064
:1032C00070B907290CDCC8B27047012908DC01F18C
:1032D000080003E0052903DC01F10A00C0B27047D1
:1032E00010207047F0B54A4887B001F083F848488D
:1032F00001F085F8464801F08CF8454801F084F863
:103300000121434801F061F8414801F031F8002300
:10331000404A0193019B934203DC019B01330193DB
:10332000F8E73B4801F034F8394801F044F83A4CEA
:103330003A4F002614F8022CF5B2032A2ED0012AA7
:1033400014F8013C12D009D3022A17D1012101FA45
:1033500003F300229BB2114631480DE0012202FA2C
:1033600003F300229BB211462E4805E002FA03F354
:10337000002211462C489BB201F0EEFA14F8011C11
:1033800014F8020CFFF798FF06AB2B4403F8100C5F
:10339000002327F8153001360234CBE7294602AA6C
:1033A0001B4801F03BF81A4801F07EF81F4B204AF9
:1033B00017481A60194A5A600C235D4303F1804391
:1033C00003F500331D6053F8042C42F4806243F887
:1033D000042C53F8042C42F4807243F8042C53F864
:1033E000042C42F0800243F8042C53F8042C42F0E1
:1033F000200243F8042C53F8042C42F0010243F855
:10340000042C01F047F8024800F0BAFF07B0F0BD05
:10341000002401407F380100E17A0008FA02002010
:103420000010014000080140000C01401000024063
:103430004C2401400529F0B522D84FF6FF721B4CF1
:1034400009016518EF68AE7A3B88012E18BF01228A
:103450001A4495F809E092B2002575450CD2012E68
:1034600037F8153002D1984203DC0BE00EB98342E5
:103470000CDD01351A46F0E7214448684001F0BDF3
:103480000020F0BD181A40019B1A02E0C01A40014A
:10349000D31A40015B0190FBF3F36218127A615872
:1034A000534305FB0215C3EB4510F0BDB47B000888
:1034B000F0B52A4A2A4E1368ADF2044D43F00103D9
:1034C00013600024E5B22846FEF79AFE08B9244BA3
:1034D00002E07F2C25D10AE07F2C08D00DEBC4023E
:1034E0004DF834005060013418601860F4E71C4B4C
:1034F0001C4C1B681C4DFE9302F05EF8022002F08B
:1035000051F8184801F0EAF904F17843A3F5FE33C5
:1035100020465DF80310043402F06EF8AC42F3D19B
:1035200014E02846FEF764FE8369074628464DF8F6
:103530003430FEF719FE0DEBC4035860BB69284612
:103540003360FEF711FE01343060BBE702F046F84D
:10355000034B18680DF2044DF0BD00BF0830024067
:103560000030024000FC010800000208124A38B591
:103570001368124943F001031360114B114A53F8C9
:10358000040F93420860FAD10C4B0F4C1A68D4F820
:10359000F8339A420DD10D4D2068FEF717FE6228D0
:1035A00002D06168FEF7F6FD0834AC42F4D1002089
:1035B00038BD4FF0FF3038BD0830024000300240C7
:1035C000FCFB0108F4FF010800FC0108F8FF0108FA
:1035D000F8B5044610460F461646FFF755F9194B45
:1035E0001D6845433046FFF757F949F2CC3344F69E
:1035F000E61249F6C4467B436243DB1303EBE23138
:1036000001FB05F204FB00F3D2130F4F02EBE3338F
:1036100073436C43D7F800E048434FEA8E0202EB55
:10362000E333E413094ACEEB0303C4EBE0319B1010
:1036300071433B601768BB0003EBE131C91B891084
:103640001160F8BD98010020BC030020C0030020D9
:10365000014B1860704700BF980100200D4A0368B5
:1036600052F8212010B503F1C804944206DB0A4C3D
:1036700054F8211001F1C804A34202DD02600020C9
:1036800010BD934201DA026002E08B42C8BF0160C4
:10369000012010BDC4030020D4030020F0B512B1F6
:1036A0001E4B1C6802E01E4B1C6864421D4E1E4FE0
:1036B00073688B420CDAC91A4FF0640C0CFB01F5ED
:1036C0007968C91A95FBF1F14C4394FBFCF4E4438F
:1036D000164B35681968401B01F164034343386891
:1036E000401B93FBF0F0401A114D13D5604340424C
:1036F00090FBF1F42B680E4AA34208DD0D49181B1C
:1037000009688842D4BF1B1A5B1A136000E014607A
:103710002868F0BD002AEDD12A60F0BDE00300204A
:10372000EC030020C4030020D4030020F403002095
:10373000E8030020F0030020064B1B68181A064B14
:103740001B685843054B1B689842A8BF1846401198
:10375000704700BFE4030020F8030020DC030020D2
:103760000F4A104B10B51968146804FA01F3184495
:103770000D4B001B1B6808411060181A0B4B1B688F
:1037800058430B4BB0F5486F1B68A8BF4FF4486017
:103790005B425B019842B8BF1846401110BD00BFA4
:1037A000FC030020CC030020D0030020F8030020FD
:1037B000EC030020B0F52A6F06DB40F6A123984207
:1037C000D4BF32200020704764207047014B18603E
:1037D000704700BF0004002030B50A4C235C83B959
:1037E000094B1D686DB10949094A0B6802F833009D
:1037F00002EBC30255600122134403F00303225479
:103800000B6030BD040400200004002010040020E0
:103810009C01002000231946024A99540133072BCA
:10382000FBD1704704040020074B10B403EBC10226
:103830001479064A53F8313052F82420014610BC5E
:103840000348FFF7F3BC00BF947C0008387D0008F4
:10385000CC7C000870B50A4C0A4E0B4D23683268C8
:1038600093420CD005EBC30215F833105068FFF7F4
:10387000DBFF2368013303F003032360EEE770BD31
:103880000C040020100400209C01002070B50A4D9B
:103890006B6823B9BDE870400848FFF7C7BC2E46E7
:1038A00000242B19586828B1315D0834FFF7BCFF9C
:1038B000202CF6D170BD00BF9C010020DC7C0008EC
:1038C0002DE9F04190460C46074F0025461A454524
:1038D00008DA2368A0193B6054F8041B01F08CFE41
:1038E0000135F4E7BDE8F08100300240F0B5B2F5F3
:1038F000006F059F2ADA3F2B2BDC202F2CDC05786C
:1039000000264FF0240EB54209DD0EFB0604B4F884
:1039100004C0624501D104340AE00136F3E70A2D00
:1039200020D0242606FB05060135B280341D057023
:10393000A2780A2A13D004EB820529710699013274
:103940006971AB71EF71A2700078F0BD4FF0FF307C
:10395000F0BD6FF00100F0BD6FF00200F0BD6FF040
:103960000400F0BD6FF00300F0BD000013B5049C2F
:103970008DE8180013460A4601460248FFF7B6FFD5
:1039800002B010BD1404002013B5049C8DE818008B
:1039900013460A4601460248FFF7A8FF02B010BDD1
:1039A00080050020124A13B51368124C43F001033E
:1039B000136001F001FE022001F0F4FD204600F04A
:1039C0008DFF20465B220C49FFF77AFF5B220B49F3
:1039D0000B48FFF775FF0B4B02A91B68012241F84A
:1039E000043D0948FFF76CFF01F0F8FD02B010BD7F
:1039F0000830024000F8010814040020800500206F
:103A00006CF9010800300240D8FA010800231A4678
:103A100010B50548054CE1188A71C1182433B3F577
:103A2000B47F8A71F7D110BD8005002014040020F6
:103A300030B58BB0FFF7EAFF3449354B0A68186898
:103A400042F001020A60334A083952F8044B9A42A4
:103A50000C60FAD1304B1B68984209D15B222D498A
:103A60002E48FEF7A8FE5B222D492E48FEF7A3FE46
:103A70004FF4407001F0F7FC40F2993001F0F3FC94
:103A8000294B00211A6829481A604FF4006302226A
:103A900000F062FF4FF40061244801F0E5F84FF4B4
:103AA000805302220321214800F056FF142001F028
:103AB00001FEF021142001F017FE1D4800F0FAFC71
:103AC000092306934FF4A0030024012505934FF426
:103AD000002304932A46234621460894079403941E
:103AE000029401940095124800F000FD21468DE8F3
:103AF0003000234622460E4800F0D1FD0C4802213A
:103B00000BB0BDE8304000F0D7BD00BF0830024028
:103B1000D8FA010800F8010800300240140400201F
:103B20006CF90108800500200400014000080140F4
:103B30000064004007B50023D2B201910092014613
:103B40001A46034800F0BCFD03B05DF804FB00BF5B
:103B5000006400402DE9F7431A4C0025A37873B3A5
:103B600026460095019500274FF00108A3789F4253
:103B70001EDA04EB870999F80400FEF7F5FA99F9C3
:103B800005305843F37908FA03F3013B03EA601068
:103B9000B3791F2B05D9203B9840019B1843019016
:103BA00003E09840009B1843009001370436DDE79E
:103BB0000822694634F8240BFFF7BCFFCEE703B0B8
:103BC000BDE8F08318040020F0B58DB00DF11F039F
:103BD000039309AB02930DF11E03002201930AAC7B
:103BE0000DF11D0311460093494808AB049400F001
:103BF000D5FD0021464800F0C5FD40F2016308995B
:103C000099424CD1BDF82910B1F5005F0DD19DF856
:103C10002B00602809D89DF82830402B27D10B991C
:103C2000FEF78AFAF0B9232327E0A1F54053B3F554
:103C3000C05F28D29DF82B00602824D89DF828303A
:103C4000402B25D19DF82E5011F4804F9DF82C204B
:103C50009DF82D300095C1F30A0111D0FFF794FEB5
:103C60000028E0DA80238DF828302A4B0FE0222B41
:103C70000ED1FEF779FA43230B908DF8283007E038
:103C8000FFF774FEECE780238DF82830224B0B936E
:103C90000822214640F28150FFF74CFF36E01F4AD0
:103CA000002310782425984208DD05FB0324A6880C
:103CB000B14201D1043402E00133F4E70024254687
:103CC00000260127A3789E4220DAAB7995F807E019
:103CD0001F2B07D90B98203BD84007FA0EF3013B66
:103CE000034007E00A9A07FA0EFE0EF1FF3EDA40A3
:103CF0000EEA020304EB860292F90510107959438B
:103D00004911FEF719FA01360435DBE70DB0F0BDB5
:103D10000064004030000906000002068005002013
:103D2000014B188880B27047F4060020014B1860E0
:103D3000704700BF00070020064B074A1B68128827
:103D400000FA03F393FBF2F3044A5B111380044B74
:103D500018607047D46A0008080700200407002094
:103D6000F006002008B580210D4800F0D3FF0021A7
:103D70003B20FEF707FA1320FEF768FD0620FEF74A
:103D800053FD08B9032006E00320FEF74DFD08B9F6
:103D9000042000E00020BDE80840FFF71DBD00BF83
:103DA000002C01402DE9F84FAF4801F069FAAF4A05
:103DB00005461368062023F001031360FFF754FA49
:103DC000AB4C2768C7EB401047011520FEF7CCF934
:103DD00097FBF0F70720FFF747FA6468C7F1000880
:103DE000C4EB401044011620FEF7BEF994FBF0F43A
:103DF000C4EB0808214642463846FEF763FD002F13
:103E0000B8BF7F420223002C90FBF3F0B8BF64429E
:103E1000BC42B8BF3C4688EAE8710028B8BF4042BF
:103E2000A1EBE8718C42ACBFC0EB0404C0EB010411
:103E3000904A40201668311949101160FEF7AAF91E
:103E40008D4A13681446591E012902D9052B40F0EA
:103E5000A4805320FEF78EF9884B8046D3F800905B
:103E6000874B884F1E78FEF77FFF2368C6EB090655
:103E7000052BF6B2844C0ED1844B39881A68844BDA
:103E8000002A1B88226008FB03139BB23B804CDA9C
:103E90000023236049E00D20FEF76CF9824628B329
:103EA000FEF7A0FEA0B10620FEF764F982460E20C0
:103EB000FEF760F981460020FFF712F80AFB009038
:103EC00080B23880FFF736F800FB0AF020602CE063
:103ED0006E4B19683B8801FA09F99AB26D4B216063
:103EE0001B8899FBF3F302EB63131CE00620FEF73B
:103EF00041F983464046FEF7F3FF8146FFF71AF883
:103F0000624B65491B6800FB0B30614B00281A8827
:103F10000B88206008FB02339BB20B800BFB09333C
:103F2000B8BFC4F800A09BB23B805C4B2068196806
:103F30004911FEF7A1FD8146FEF7B8FC49464F2026
:103F4000FEF720F921684D20FEF724F93888544CFB
:103F500080B2FEF7C7FC2368F34023606368F34038
:103F60006360B9F1000F07D0B8F1000F04D0A36867
:103F700023FA06F6A66003E00023A36063602360D3
:103F800022680021384801F005F9626802213648AC
:103F900001F000F9A268042155E0DA1E012A17D8C1
:103FA000374B4F2019783D4B1A6864238A405211D1
:103FB00092FBF3F201238B40A3F163018A42A8BF75
:103FC000A3F1640222EAE2742146FEF7DBF838E04E
:103FD000062B3BD12D4B2E4918682A4B09881E46CB
:103FE0001C88294A2144002889B21980B8BF0023BF
:103FF0001060B8BF136011684D20FEF7CBF8308811
:1040000080B2FEF741FC0446308880B2FEF73CFCEB
:10401000224B40421B68002103FB04F2434364240B
:1040200092FBF4F293FBF4F41E4B52111B7802F551
:104030000042641104F500441A410B481C4101F090
:10404000A9F822460221084801F0A4F8064801F028
:1040500017F9ADB2401B4821B0FBF1F1BDE8F84FB4
:104060006020FEF78FB800BF002C0140102C0140EB
:10407000CC010020EC060020F8060020D46A0008DD
:104080000A070020F40600200C070020F00600209C
:104090000407002008070020FC060020000700207D
:1040A000B00200200607002010B50D4C002120466C
:1040B00000F0CAFF2046022100F0C6FF204604217E
:1040C00000F0C2FF2046012100F0BEFF2046032180
:1040D00000F0BAFF2046BDE81040052100F0B4BF53
:1040E000002C014010B50D4C0021204600F0E8FFE7
:1040F0002046022100F0E4FF2046042100F0E0FF0A
:104100002046012100F0DCFF2046032100F0D8FF0B
:104110002046BDE81040052100F0D2BF002C014030
:1041200008B5154B18600138052804D8DFE800F001
:104130001F1F13171F07BDE80840FFF7D3BFFFF786
:10414000B3FF04210D4800F0BBFFBDE80840052186
:104150000A4800F0B5BFFFF7C5FF032102E0FFF7F3
:10416000C1FF02210548BDE8084000F06DBFBDE871
:104170000840FFF799BF00BFF8060020002C01405F
:10418000F8B55D4B07465D481C780E4600F0E3FD30
:1041900020215A4800F0CBFD584800F0C3FD46F6F8
:1041A0006802574B01251A60682205FA04F45A6028
:1041B000CEB10021514800F00BFF02214F4800F022
:1041C00007FF04214D4800F003FF29464B4800F04B
:1041D000FFFE0321494800F0FBFE0521474800F09F
:1041E000F7FE032518E03146444800F0B5FE0221F1
:1041F000424800F0B1FE0421404800F0ADFE2946DF
:104200003E4800F0A9FE03213C4800F0A5FE052130
:104210003A4800F0A1FE0225384800F0D9FF37489F
:1042200000F0C8FF354800F0E1FF344800F0ECFF33
:10423000324800F0F7FF314801F002F839462F48C4
:1042400001F00CF800212D4800F076FF02212B48E8
:1042500000F072FF0421294800F06EFF0121274879
:1042600000F06AFF0321254800F066FF052123487E
:1042700000F062FF0121214800F0FEFF80211F486D
:1042800000F04DFD01211D4800F040FD80211B483C
:1042900000F03CFDA4B20021184800F066FD214664
:1042A000164800F071FD0121144800F061FD002264
:1042B0001146124800F06EFF002202210F4800F064
:1042C00069FF002204210D4800F064FF0B4800F054
:1042D0003DFD2A464FF4E06303210A4800F03CFB11
:1042E0004FF460432A460321074800F035FB074896
:1042F000B0FBF4F080B2F8BD0A070020002C0140AA
:10430000182C014000080140000C0140005125021A
:1043100038B51020FDF72EFF0F4C0B302070122007
:10432000FDF728FF05461120FDF724FF0146A8B23E
:10433000FFF726FF094B1880094B1A68094B1B68C9
:10434000934093FBF0F0084B401118802378D21A69
:10435000064B1A7038BD00BF0A070020080700206E
:10436000D46A0008F0060020040700200607002099
:104370008368DB075EBF836843F001038360704797
:104380008368DB0742BF836843F0010383607047A3
:10439000836800F1080243F00803836013681B0779
:1043A000FCD47047836843F00403836070478068DF
:1043B000C0F38000704708B50246FFF7F3FF1046D0
:1043C000FFF7F5FF0028FAD108BD0022134610B50B
:1043D00001FA02F403321E2A43EA0403F8D103610E
:1043E000002201FA02F40332182A43EA0403F8D146
:1043F000C36010BD836823F0010383607047436886
:1044000043F4807343607047836823F400638360E0
:104410007047836843F00203836070471029F0B54A
:1044200037D8002426462746254601238B422AD822
:10443000062B98BF92F800E002F101029CBF0EFA31
:1044400004FE46EA0E06A3F1070EBEF1050F9FBF5C
:1044500012F801ECA4F11E0C0EFA0CFE47EA0E074E
:10446000A3F10D0EBEF1050F9EBF12F801ECA4F1F1
:104470003C0C0EFA0CFE03F1010398BF45EA0E0551
:10448000DBB20534D2E7013945EA0155C56207635D
:104490004663F0BD836800F1080243F48003836043
:1044A00013685B02FCD47047836843F480738360B5
:1044B0007047000008B50B4B984207D14FF00071D0
:1044C000094800F0C7FF4FF0007106E04FF080612F
:1044D000054800F0BFFF4FF080610348BDE8084089
:1044E00000F0BCBF00640040101002402DE9F34111
:1044F00004689DF820C024F00204046004689DF85C
:1045000024E044F0010404604FF6FF749DF8287025
:104510009DF83C509DF840600194019C013C019441
:1045200014B14468E407F8D5D0F80480041D18F0ED
:10453000010F69D04FF00008C0F81C8019B1016864
:1045400041F0800102E0016821F0800101601AB1B0
:10455000026842F0400202E0026822F0400202607B
:104560001BB1036843F0200302E0036823F020033B
:1045700003600368BCF1000F02D043F0100301E0B8
:1045800023F0100303600368BEF1000F02D043F074
:10459000080301E023F008030360036817B143F048
:1045A000040301E023F004030360C36916B143F080
:1045B000004301E023F00043C361C36915B143F038
:1045C000804301E023F08043C3610E9B0D99013BC2
:1045D000C3F308030B430C99C2690B430B990B43BC
:1045E0001343C361036823F0010303604FF6FF73B5
:1045F0000193019B013B019313B12368DB07F8D4BE
:10460000406800F0010000E0012002B0BDE8F08148
:10461000F0B5D0F80052012445F001058C40C0F8F7
:104620000052E543D0F81C629DF820702E40C0F87F
:104630001C621AB1D0F80C22224302E0D0F80C22FE
:104640002A40C0F80C221BB1D0F80432234302E008
:10465000D0F804322B40C0F80432059B00EBC101B6
:10466000C1F84032069BC1F84432079B2BB1D0F809
:1046700014322343C0F8143204E0D0F814321D4041
:10468000C0F8145227B1D0F81C321C43C0F81C42A9
:10469000D0F8003223F00103C0F80032F0BD1FB59E
:1046A0009DF81C400394069C8DE81C000023012209
:1046B000FFF7AEFF04B010BD436919434161704775
:1046C000F0B5044680689DF814E04001069D08D4CA
:1046D000A068000109D4A068C0000AD44FF0FF30E0
:1046E000F0BD4FF4C07C002006E04FF4C87C0120F0
:1046F00002E04FF4D07C02201AB1C90041F004015D
:1047000000E0490544F80C102BB154F80C2042F09D
:10471000020244F80C2004EB0C035A680EF00F015F
:1047200022F00F025A605A680EF1FF3E0A435A60A7
:10473000BEF1070F1FD8DFE80EF01B1815110E0B86
:104740000804EA79002762F31F67AA7962F3174722
:104750006A7962F30F272A7962F30707EA7800265D
:1047600062F31F66AA7862F317466A7862F30F262F
:104770002A7862F307069E60DF601A6842F0010241
:104780001A60F0BD21B9C36843F02003C3607047CD
:10479000036943F020030361704700002DE9F743EC
:1047A0000E460546294902AF03C907E9030007EB96
:1047B000860151F8081CDDF828906F58DDF82CE0D0
:1047C00017F004071BBF012789F8007089F80070F3
:1047D0006F580ABF6F58FF087F0D1F606B5868182D
:1047E00013F0020318BF01238EF800304368DDF890
:1047F0003080C3F30723C8F800304368DDF834C0C5
:1048000003F00F038CF8003081680E9CC368C1F37D
:10481000072021706070C1F30740C1F30761E170A8
:10482000C3F3072123716171C3F30741C3F3076326
:10483000A070A171E37132B13146284603B0BDE8E2
:10484000F043FFF79FBF03B0BDE8F083447D00084D
:10485000064B1868064B1B889BB2B3F5007F82BFDE
:10486000044B1B68184300F0350070470C200240D1
:10487000E0F7FF1F4C20024038B504460D4600F01B
:10488000B5FE124B1B889BB2B3F5007F04D9104BC9
:104890009C4201D90F4A00E00F4A136843F001031C
:1048A0001360258000F0A2FE084B1B889BB2B3F575
:1048B000007F04D9064B9C4201D9064A00E0064A13
:1048C000136823F00103136038BD00BFE0F7FF1F3A
:1048D000FFFF0708502002401020024010B5044698
:1048E00000F084FE164B1B889BB2B3F5007F09D9FC
:1048F000144B9C4206D9144B1A6842F002021A600B
:10490000124A05E0124B1A6842F002021A60114A7C
:1049100014601A6842F040021A6000F067FE084B0B
:104920001B889BB2B3F5007F04D9064B9C4201D98A
:10493000054A00E0064A136823F00203136010BD25
:10494000E0F7FF1FFFFF07085020024054200240FD
:1049500010200240142002402DE9F0434FF6E0778A
:1049600096469C460268436800254FF00F084CFAB3
:1049700005F4E40719D5072DACB28BBF3C461646AB
:104980001E46A40098BFA4B208FA04F926EA090654
:1049900004F102090EFA09F901FA04F449EA0404DF
:1049A0003443082D2CBF2346224601350437102DF1
:1049B000BFB2DCD102604360BDE8F083024A1368F5
:1049C00043F080731360704700100240062822D81D
:1049D000DFE800F004090E13181A1C000F4B1868CA
:1049E000C0F3406070470D4B1868C0F3C06070475B
:1049F0000A4B1868C0F340707047084B1868C0F342
:104A000040407047054B02E0054B00E0054B18683D
:104A1000C0F3400070470020704700BF0010024004
:104A20002010024024100240024608B51046FFF74D
:104A3000CDFF0028FAD008BD06281FD8DFE800F017
:104A400004060B1015171900FFF7B8BF0C4A1368BE
:104A500043F0806311E00A4A136843F080530CE08E
:104A6000074A136843F4803307E0054A02E0054A29
:104A700000E0054A136843F001031360704700BF6C
:104A8000001002402010024024100240034A136824
:104A900023F0030318431060704700BF0410024066
:104AA000034A136823F4701343EA80401060704790
:104AB00004100240034A136823F4803343EA0040A1
:104AC0001060704704100240034A136823F4003357
:104AD00043EA40401060704704100240034A1368E4
:104AE00023F4404343EA80301060704704100240D2
:104AF000034A136823F4605343EAC02010607047F0
:104B000004100240034A136823F4E06343EA0020E0
:104B10001060704704100240034A136823F0F0034A
:104B200043EA0010106070470410024008B50420EA
:104B3000FFF782FF0420FFF777FF0020FFF7A6FFB3
:104B40000320FFF779FF0320FFF76EFF0120FFF737
:104B50009DFF0020FFF7E0FF0320FFF7BFFF0420C9
:104B6000FFF7D0FF0020FFF7C3FF022000F01AFD7F
:104B70000720FFF795FF0120FFF79CFF0020FFF7BC
:104B8000A3FFFFF71BFF0020FFF74EFF0220FFF7F8
:104B90007DFF044B044A05491360054A1160054A2C
:104BA000136008BD00A24A04BC0100200051250288
:104BB000C0010020C40100201423013959430830EA
:104BC0000B5823F440630B500B581A430A5070479C
:104BD00014230139594308300B5823F440730B5008
:104BE0000B581A430A5070471423013959430830AF
:104BF0000B5843F080030B5070471423013959437D
:104C000008300B5843F020030B500B5823F480431B
:104C10000B50704714230139594308300B5843F0A7
:104C200001030B50704714230139594308300B58C6
:104C300023F001030B5070471423013903FB0100DB
:104C40008368DB0758BF026170471423013903FBF7
:104C500001008368DB0758BF4261704701391423A4
:104C600059430C300A5070470161704709040161D3
:104C70007047806808407047C36803EA010221EA70
:104C8000030141EA02410161704700001C4B984258
:104C900028D00DD8A3F5006398421DD003F580639A
:104CA00098421CD0B0F1804F29D14FF4007024E01D
:104CB000144B98421CD004D8A3F58063984214D0BA
:104CC0007047114B984204D003F50063984212D00C
:104CD000704740F28B1010E040F201200DE040F2EE
:104CE00002200AE040F2032007E04FF4017004E0E4
:104CF00040F2052001E040F28D1000F0C2BB704789
:104D0000000C004000140040002C0140C36819430F
:104D1000C1607047C36823EA0101C1607047C9439D
:104D200001617047036843F08003036070470368C4
:104D300001F0600123F06003036003680B4303602C
:104D40007047036823F0100303607047036843F063
:104D5000010303607047036823F001030360704799
:104D6000436823F008034360704781627047000086
:104D7000044B984203D003F50063984200D10163CD
:104D8000704700BF002C0140C1627047062900F245
:104D9000C880DFE811F00700C6003600C6006800D2
:104DA000C6009600836923F00303836183698361EE
:104DB000836923F070038361072A00F2B280DFE881
:104DC00002F03304080C1014181C836943F010031C
:104DD00047E0836943F0200343E0836943F03003F5
:104DE0003FE0836943F040033BE0836943F05003B5
:104DF00037E0836943F0600333E0836943F0700375
:104E00002FE0836923F4407383618369836183693D
:104E100023F4E0438361072A00F28380DFE802F095
:104E200004060A0E12161A1E83691AE0836943F4F7
:104E3000805316E0836943F4005312E0836943F41E
:104E400040530EE0836943F480430AE0836943F4EE
:104E5000A04306E0836943F4C04302E0836943F45E
:104E6000E04383617047C36923F00303C361C369EF
:104E7000C361C36923F07003C361072A51D8DFE817
:104E800002F03204080C1014181CC36943F010031C
:104E900046E0C36943F0200342E0C36943F03003B6
:104EA0003EE0C36943F040033AE0C36943F0500376
:104EB00036E0C36943F0600332E0C36943F0700336
:104EC0002EE0C36923F44073C361C369C361C3693E
:104ED00023F4E043C361072A23D8DFE802F0040685
:104EE0000A0E12161A1EC3691AE0C36943F48053EE
:104EF00016E0C36943F4005312E0C36943F440531E
:104F00000EE0C36943F480430AE0C36943F4A0435D
:104F100006E0C36943F4C04302E0C36943F4E043DD
:104F2000C3617047062916D8DFE801F0041508159B
:104F30000D151100836943F0080302E0836943F40F
:104F4000006383617047C36943F0080302E0C369EB
:104F500043F40063C36170471B4A062918D8DFE891
:104F600001F0041708170C171000036A23F002035E
:104F70000AE0036A23F0200306E0036A23F40073C7
:104F800002E0036A23F400539042036209D119E05E
:104F9000904206D103290CD005290ED0012904D056
:104FA00070470A4B98420DD1F4E7036A23F00803D7
:104FB00006E0036A23F0800302E0036A23F400633F
:104FC00003627047704700BF002C0140003401406D
:104FD0001B4A062918D8DFE801F0041708170C1738
:104FE0001000036A43F002030AE0036A43F020035F
:104FF00006E0036A43F4007302E0036A43F40053DB
:105000009042036209D119E0904206D103290CD0E5
:1050100005290ED0012904D070470A4B98420DD1C2
:10502000F4E7036A43F0080306E0036A43F08003F1
:1050300002E0036A43F4006303627047704700BFF5
:10504000002C0140003401401B4A062918D8DFE833
:1050500001F0041708170C171000036A43F001034E
:105060000AE0036A43F0100306E0036A43F4807326
:1050700002E0036A43F480539042036209D119E0CD
:10508000904206D103290CD005290ED0012904D065
:1050900070470A4B98420DD1F4E7036A43F00403CA
:1050A00006E0036A43F0400302E0036A43F48063CE
:1050B00003627047704700BF002C0140003401407C
:1050C0001B4A062918D8DFE801F0041708170C1747
:1050D0001000036A23F001030AE0036A23F01003BF
:1050E00006E0036A23F4807302E0036A23F480532A
:1050F0009042036209D119E0904206D103290CD0F5
:1051000005290ED0012904D070470A4B98420DD1D1
:10511000F4E7036A23F0040306E0036A23F0400384
:1051200002E0036A23F4806303627047704700BFA4
:10513000002C014000340140154B984203D003F588
:105140000063984223D1062921D8DFE801F0040842
:105150000C1014181C00436823F4807316E0436895
:1051600023F4007312E0436823F480630EE0436885
:1051700023F400630AE0436823F4805306E04368A5
:1051800023F4005302E0436823F4804343607047F4
:10519000002C014006290CD8DFE801F0040B060BB7
:1051A000080B0A004263704782637047C26370470E
:1051B00002647047054B984203D003F500639842A0
:1051C00003D1436C43F4004343647047002C014017
:1051D000054B984203D003F50063984203D1436C1A
:1051E00023F4804343647047002C0140054B9842F0
:1051F00003D003F50063984203D1436C43F400539A
:1052000043647047002C0140054B984203D003F5DE
:105210000063984203D1436C43F480534364704766
:10522000002C0140054B984203D003F500639842DF
:1052300003D1436C43F4006343647047002C014086
:10524000054B984203D003F50063984203D1436CA9
:1052500043F4806343647047002C0140054B98423F
:1052600003D003F50063984202D1436C19434164B3
:10527000704700BF002C01404369194341617047EA
:10528000406A704741627047032924D8DFE801F083
:10529000020A131B836923F0F0038361836943EAE5
:1052A000021206E0836923F470438361836943EA51
:1052B000023282617047C36923F0F003C361C3699E
:1052C00043EA021206E0C36923F47043C361C36971
:1052D00043EA0232C261704701F0FD03012B02F084
:1052E000030204D1531E012B98BF82F0030203294D
:1052F00022D8DFE801F002091219836923F00303C1
:10530000836183691A4306E0836923F440738361F0
:10531000836943EA022282617047C36923F0030371
:10532000C361C3691A4306E0C36923F44073C361D0
:10533000C36943EA0222C2617047036A89000122FD
:1053400002FA01F10B4303627047836823F4706330
:105350008360836843EA012181607047836811B1EB
:1053600043F4004301E023F4004383607047836803
:1053700023F0070383608368194381607047836863
:1053800023F07003836083681943816070470000D5
:10539000064A074B90421B6804BF064B1B6801EB93
:1053A00043034900B3FBF1F38360704700380140C9
:1053B000C0010020C4010020C36808290CBF23F4E9
:1053C000805343F48053C3607047036923F4405310
:1053D000194301617047C36823F4C0631943C16076
:1053E0007047C36823F00C031943C16070474369D9
:1053F00023F44073194341617047C36843F4005379
:10540000C360704738B504460D4600F017F82946CA
:105410002046BDE8384000F009B810B5044600F059
:1054200011F82046BDE8104000F004B8C1F30801AF
:10543000416070474068C0F30800704703681B066E
:10544000FCD5704703689B06FCD570470368194379
:10545000016070470368194301607047036823EADD
:10546000010101607047430903F1804303F50433F0
:105470001A6800F01F00012101FA00F010431860C3
:105480007047430903F1804303F50433196801228F
:1054900000F01F0002FA00F040EA01021A601A68E8
:1054A00022EA00001860704701290BD002D30229BC
:1054B0000DD070470A4A136803431360536823EA08
:1054C00000000AE0064A136823EA000302E0044AE7
:1054D000136803431360536818435060704700BF5C
:1054E00008040140034A13680343136053681843D8
:1054F0005060704700040140014B1860704700BFC6
:10550000140401402DE9F04FDFF888C0DFF88880EF
:10551000DFF88890DFF888A000224FF0010E0F27F7
:105520000EFA02F303422AD0174B994211D005D844
:1055300049450CD0514512D1022311E0134B994239
:1055400009D0614509D0414509D1042308E0012370
:1055500006E0032304E0052302E0062300E0002325
:105560000B4C22F00306344402F00305AD0026681C
:1055700007FA05FB26EA0B06AB401E432660013204
:10558000102ACDD1BDE8F08F00140140001C01406D
:10559000080001400020014000180140000C0140BB
:1055A00000100140034A136823F0070318431060FA
:1055B000704700BF00200240054A136843F0800393
:1055C0001360044B044A1A6002F188321A60704773
:1055D000102002400420024023016745024A13685C
:1055E00043F08003136070471020024008B5FFF7B6
:1055F0002FF9C307FBD408BD38B505460C4689B260
:10560000FFF73AF9210CA81CBDE83840FFF734B980
:10561000FEE77047184C1949194800225318834275
:1056200003D2135953500432F8E7164A002193422B
:1056300002D219600433FAE7134A144C1368144D6C
:1056400043F400731360AC4203D254F8043B984710
:10565000F9E7104C104DAC4203D254F8043B984784
:10566000F9E7FCF74FFB0D4C0D4DAC4203D254F85B
:10567000043B9847F9E700BF507D00080000002078
:10568000C80100201007002014ED00E04C7D000848
:105690004C7D00084C7D0008507D0008507D0008BE
:1056A000507D0008014A024B1A60FEE70400FA052B
:1056B0000CED00E043099B0003F1604300F01F0084
:1056C000012203F5614302FA00F018607047000000
:1056D0004209012300F01F0003FA00F0014B43F8D8
:1056E0002200704780E100E0432893BF00F1604052
:1056F000044B00F00F0000F564408CBFC1540170F2
:10570000704700BF14ED00E04D6F746F7200626F60
:105710006F73740064696700667765616B00756418
:10572000636E6F6D006670636F6E73740066736C8A
:1057300069706D696E0066736C69706D6178007078
:105740006F6C65706169727300616D706D696E0078
:105750002500656E63666C7400656E636D6F6465CD
:1057600000303D53696E676C652C20313D41425AD3
:1057700000666D696E00666D6178006E756D696DAD
:105780007000496D702F7265760073796E636D6F6E
:10579000646500303D4F66662C20313D4F6E0073CE
:1057A000796E636F667300736E736D00323D4B5498
:1057B0005938332D3131302C20333D4B5459383446
:1057C0002D31333000496E766572746572007077E2
:1057D0006D66727100303D31372E366B487A2C2061
:1057E000313D382E386B487A2C20323D342E344BE4
:1057F000487A2C20333D322E326B487A2C20343DAF
:10580000312E316B487A0070776D706F6C00303DCF
:10581000414354484947482C20313D4143544C4F63
:1058200057006465616474696D65006F6375726CBF
:10583000696D006D696E70756C736500696C3167B8
:1058400061696E006469672F4100696C3267616944
:105850006E007564636761696E006469672F560046
:105860007564636F6673007564636C696D00736E55
:1058700073687300303D4A43757276652C20313D64
:1058800053656D696B726F6E004368617267657214
:10589000006368617267656D6F646500303D4F66D7
:1058A000662C20333D426F6F73742C20343D42755B
:1058B000636B00636861726765637572006368613A
:1058C0007267656B7000636861726765666C74000F
:1058D0005468726F74746C6500706F746D696E00DB
:1058E000706F746D617800526567656E00706F74DB
:1058F000326D696E00706F74326D61780062726B28
:105900006E6F6D706564616C0062726B706564616E
:105910006C72616D7000252F31306D730062726B97
:105920006E6F6D0062726B6D61780062726B726196
:105930006D707374720062726B6F75740041757470
:105940006F6D6174696F6E0069646C657370656515
:10595000640072706D0069646C657468726F746C59
:10596000696D0069646C656D6F646500303D616CE4
:10597000776179732C20313D6E6F6272616B652C9B
:1059800020323D6372756973650073706565646B81
:1059900070007370656564666C740063727569731A
:1059A000656D6F646500303D427574746F6E2C20B8
:1059B000313D537769746368004465726174696E40
:1059C0006700626D736C696D6869676800626D730A
:1059D0006C696D6C6F77007564636D696E007564DA
:1059E000636D617800436F6E746163746F722043FE
:1059F0006F6E74726F6C00756463737700417578B5
:105A00002050574D0070776D66756E6300303D74A1
:105A10006D706D2C20313D746D7068732C20323D9B
:105A200073706565640070776D6761696E006469A5
:105A3000672F430070776D6F6673007370656564E0
:105A40006761696E0072706D2F6B487A00546573E0
:105A500074696E670066736C697073706E74006150
:105A60006D706E6F6D0076657273696F6E006F702A
:105A70006D6F646500303D4F66662C20313D527578
:105A80006E2C20323D4D616E75616C52756E2C200E
:105A9000333D426F6F73742C20343D4275636B2C21
:105AA00020353D53696E652C20363D416348656164
:105AB00074007564630069646300696C3100696C2B
:105AC0003200696C6D61780075616300696C3172D8
:105AD0006D7300696C32726D7300626F6F73746303
:105AE000616C6300646967697400667765616B6304
:105AF000616C63006964006971006B57006B56410B
:105B0000007066004E6D00667374617400706F748F
:105B100000706F743200706F746E6F6D0064697224
:105B2000002D313D5245562C20303D4E45555452A6
:105B3000414C2C20313D46574400746D7068730011
:105B4000C2B04300746D706D007561757800646952
:105B50006E5F6372756973650064696E5F7374610B
:105B600072740064696E5F6272616B650064696E75
:105B70005F6D70726F740064696E5F666F727761DB
:105B800072640064696E5F72657665727365006445
:105B9000696E5F656D637973746F700064696E5FC1
:105BA0006F6375720064696E5F626D7300746D5F20
:105BB0006D65617300757300085700080E57000883
:105BC0001457000800000000A076120080D40000E6
:105BD0000100000008570008185700084A5A00083A
:105BE00000000000007D0000400B000002000000EB
:105BF000085700081E5700085E5800080000000003
:105C0000007D0000000000004E0000000857000862
:105C1000255700084A5A000800000000007D0000D7
:105C2000007D00003C000000085700082D570008C8
:105C30004A5A000800000000400100002000000057
:105C40002500000008570008365700084A5A000887
:105C50000000000040010000600000002100000082
:105C6000085700083F57000840690008200000005E
:105C7000000200004000000020000000085700085B
:105C8000495700085057000800000000800C000031
:105C900040010000040000000857000852570008A7
:105CA0004069000800000000000200002000000021
:105CB00006000000085700085957000861570008FF
:105CC0000000000020000000000000004B00000069
:105CD00008570008715700084A5A000800000000E1
:105CE00000320000200000002200000008570008D9
:105CF000765700084A5A000800000000007D0000A6
:105D00000019000009000000085700087B57000830
:105D10008257000800010000000004008007000016
:105D20000F000000085700088A5700089357000822
:105D300000000000200000000000000045000000FE
:105D4000085700089F57000814570008000000007B
:105D5000E0FF1F0000000000460000000857000898
:105D6000A7570008AC570008400000006000000082
:105D7000400000002E000000C5570008CE57000864
:105D8000D55700080000000080000000200000003F
:105D90000D000000C5570008075800080E580008FD
:105DA000000000002000000000000000340000009F
:105DB000C5570008225800081457000800000000CA
:105DC000E01F0000E00700000E000000C5570008BB
:105DD0002B580008485800080083FFFF007D000092
:105DE00080F3FFFF16000000C55700083358000875
:105DF0001457000800000000E0FF0100007D0000D3
:105E000018000000C55700083C5800084458000816
:105E100080F3FFFF800C00006AFFFFFF1B00000003
:105E2000C55700084A5800084458000880F3FFFF8F
:105E3000800C00006AFFFFFF1C000000C55700082F
:105E4000525800085A58000800000000E0FF010006
:105E5000C50000001D000000C5570008605800087C
:105E60001457000800000000E0FF010000000000DF
:105E70004D000000C5570008675800085E5800082C
:105E800000000000007D00008043000030000000A2
:105E9000C55700086E58000874580008000000003C
:105EA00020000000000000002D00000089580008BC
:105EB000915800089C580008000000008000000075
:105EC000000000004A00000089580008B35800088C
:105ED00048580008000000004006000000000000D4
:105EE0004700000089580008BD58000814570008F2
:105EF00000000000800C0000000A000048000000C4
:105F000089580008C658000814570008000000000F
:105F1000400100000001000049000000D0580008C6
:105F2000D95800081457000800000000E0FF0100E5
:105F30000000000011000000D0580008E0580008E0
:105F40001457000800000000E0FF0100E0FF01001E
:105F500012000000E7580008ED5800081457000828
:105F600000000000E0FF0100E0FF01003F00000032
:105F7000E7580008F5580008145700080000000012
:105F8000E0FF0100E0FF010040000000E7580008CA
:105F9000FD5800085057000880F3FFFF0000000084
:105FA000C0F9FFFF26000000E75800080959000863
:105FB0001659000820000000800C0000800C000032
:105FC00044000000E75800081D5900085057000819
:105FD00000000000800C0000C0030000130000005F
:105FE000E758000824590008505700080000000036
:105FF000800C0000C003000031000000E7580008DA
:106000002B5900084A5A0008000000000032000026
:106010004001000027000000E7580008365900083A
:106020005057000880F3FFFFE0FFFFFFC0F9FFFFBC
:10603000430000003D590008485900085259000823
:1060400080F3FFFF007D000080F3FFFF36000000BB
:106050003D5900085659000850570008000000003C
:10606000800C000040060000410000003D5900087F
:10607000635900086C59000800000000400000004F
:1060800000000000420000003D5900088A59000845
:106090004069000800000000800C000008000000BB
:1060A000350000003D590008925900084069000879
:1060B0000000000000020000A00000003900000005
:1060C0003D5900089B590008A6590008000000002F
:1060D00020000000000000003E000000B959000848
:1060E000C25900085057000800000000800C000052
:1060F0004006000037000000B9590008CD590008DB
:106100005057000880F3FFFF00000000E0FFFFFF92
:1061100038000000B9590008D75900085E58000837
:1061200000000000007D0000403800002A00000050
:10613000B9590008DE5900085E5800080000000048
:10614000007D0000004100002B000000E559000820
:10615000F75900085E58000800000000007D0000AC
:106160004029000014000000FD590008055A0008ED
:106170000D5A000800000000400000000000000070
:106180003A000000FD590008265A00082E5A00085F
:106190002000E0FFE0FF1F00800C0000280000004E
:1061A000FD590008345A0008145700082000E0FF89
:1061B000E0FF1F000000000029000000FD5900085A
:1061C0003B5A0008455A000800000000E0FF1F008D
:1061D00000EE02003B0000004D5A0008555A00082E
:1061E0004A5A000880F3FFFF007D00000000000015
:1061F000000000004D5A00085F5A00085057000880
:1062000000000000800C0000000000000000000002
:106210004D5A0008665A0008406900080000000056
:10622000000000006D000000000000000000000001
:106230006E5A0008755A00080000000000000000B7
:10624000000000000000000000000000B25A00083A
:106250005E58000800000000000000000000000080
:106260000000000000000000B65A0008485800086E
:10627000000000000000000000000000000000001E
:1062800000000000BA5A000848580008000000004A
:1062900000000000000000000000000000000000FE
:1062A000BE5A000848580008000000000000000026
:1062B000000000000000000000000000C25A0008BA
:1062C0004858000800000000000000000000000026
:1062D0000000000000000000C85A00085E580008D6
:1062E00000000000000000000000000000000000AE
:1062F00000000000CC5A00084858000800000000C8
:10630000000000000000000000000000000000008D
:10631000D35A0008485800080000000000000000A0
:10632000000000000000000000000000DA5A000831
:10633000E45A000800000000000000000000000017
:106340000000000000000000EA5A00084A5A000855
:10635000000000000000000000000000000000003D
:1063600000000000F45A000848580008000000002F
:10637000000000000000000000000000000000001D
:10638000F75A00084858000800000000000000000C
:10639000000000000000000000000000905900080C
:1063A000FA5A000800000000000000000000000091
:1063B0000000000000000000F85A0008FD5A000824
:1063C00000000000000000000000000000000000CD
:1063D00000000000B35B0008FD5A00080000000048
:1063E00000000000000000000000000000000000AD
:1063F000015B000840690008000000000000000088
:10640000000000000000000000000000B05A00087A
:10641000045B000800000000000000000000000015
:106420000000000000000000075B00084A5A000856
:10643000000000000000000000000000000000005C
:1064400000000000205A0008525900080000000017
:10645000000000000000000000000000000000003C
:106460001259000814570008000000000000000046
:106470000000000000000000000000000D5B0008AC
:106480001457000800000000000000000000000099
:106490000000000000000000115B00081457000815
:1064A00000000000000000000000000000000000EC
:1064B00000000000165B00085057000800000000B4
:1064C00000000000000000000000000000000000CC
:1064D0001D5B0008215B00080000000000000000B8
:1064E0000000000000000000000000003A5B00080F
:1064F000405B0008000000000000000000000000F9
:106500000000000000000000445B0008405B000841
:10651000000000000000000000000000000000007B
:1065200000000000495B00085E5800080000000001
:10653000000000000000000000000000000000005B
:106540004E5B0008406900080000000000000000E9
:10655000000000000000000000000000595B00087F
:10656000406900080000000000000000000000007A
:106570000000000000000000635B000840690008A4
:10658000000000000000000000000000000000000B
:10659000000000006D5B000840690008000000007A
:1065A00000000000000000000000000000000000EB
:1065B000775B000840690008000000000000000050
:1065C000000000000000000000000000835B0008E5
:1065D000406900080000000000000000000000000A
:1065E00000000000000000008F5B00084069000808
:1065F000000000000000000000000000000000009B
:10660000000000009C5B00084069000800000000DA
:10661000000000000000000000000000000000007A
:10662000A55B0008406900080000000000000000B1
:10663000000000000000000000000000AD5B00084A
:10664000B55B000800000000000000000000000032
:1066500000000000556E6B6E6F776E20636F6D6D7E
:10666000616E642073657175656E63650D0A000067
:10667000086A000831260008CD690008992400083E
:10668000D16900081D260008DA6900086D24000899
:10669000DE69000841240008E36900086525000858
:1066A000975B0008052600085D5B0008D1250008FF
:1066B000E7690008AD250008EC690008912600088C
:1066C000F169000839230008F6690008E52400088C
:1066D000FB69000845230008FF6900084123000802
:1066E000066A00083B2300080000000000000000CC
:1066F000416C6C206D6573736167652064656669C4
:106700006E6974696F6E7320636C65617265640D88
:106710000A004D697373696E6720617267756D65F4
:106720006E740D0A00496E76616C69642043414EB7
:106730002049642025780D0A00496E76616C6964F1
:10674000204F66667365742025640D0A00496E76D5
:10675000616C6964206C656E6774682025640D0A3D
:106760000043616E6E6F74206D617020616E796D93
:106770006F7265206974656D7320746F2043414E9C
:106780002069642025780D0A004D6178206D6573BD
:106790007361676520636F756E74207265616368ED
:1067A00065640D0A0043414E206D6170207375636E
:1067B0006365737366756C2C202564206D65737337
:1067C00061676573206163746976650D0A00556EB3
:1067D0006B6E6F776E20706172616D657465720D9E
:1067E0000A00417661696C61626C6520706172615A
:1067F0006D657465727320616E642076616C756579
:10680000730D0A002573205B25735D0D0A00257347
:10681000090925660D0A007B0025630D0A2020204A
:10682000222573223A207B22756E6974223A222532
:1068300073222C2276616C7565223A25662C2269BA
:1068400073706172616D223A00747275652C226DED
:10685000696E696D756D223A25662C226D617869C5
:106860006D756D223A25662C2264656661756C74BF
:10687000223A25662C2263617465676F7279223A29
:10688000222573227D0066616C73657D000D0A7D93
:106890000D0A00506172616D6574657220617474D7
:1068A000726962757465730D0A004E616D65090940
:1068B0006D696E202D206D6178205B646566617561
:1068C0006C745D0D0A00257309092566202D2025AD
:1068D00066205B25665D0D0A00506172616D65740E
:1068E0006572732073746F7265642C204352433D4C
:1068F00025780D0A0043414E4D41502073746F724C
:1069000065640D0A00496E76657274657220737451
:1069100061727465640D0A00496E76616C69642069
:10692000696E766572746572206D6F646500496E7C
:106930007665727465722068616C7465642E0D0AE8
:106940000044656661756C7473206C6F6164656486
:106950000D0A004E6F20706172616D657465722062
:1069600076616C756520676976656E0D0A00536502
:1069700074204F4B0D0A0056616C7565206F75745D
:10698000206F662072616E67650D0A00556E6B6E32
:106990006F776E20706172616D657465722025730A
:1069A0000D0A00506172616D6574657273206C6FC1
:1069B000616465640D0A00506172616D6574657291
:1069C00020435243206572726F720D0A006765742E
:1069D0000064656661756C747300616C6C006C6951
:1069E0007374006174720073617665006C6F61642A
:1069F0000068656C70006A736F6E0063616E00659D
:106A000072726F727300726573657400000C0140DE
:106A100020000200000C014040000200000801407C
:106A200004000200000801400800020000080140C4
:106A30001000020000100140400002000010014060
:106A400080000200000C0140001002000010014014
:106A5000000102000014014004000200000801408F
:106A60000100010000080140020002000010014086
:106A7000000202000010014000200400001001404C
:106A800000080400000C0140020004000010014056
:106A9000001004000010014020000200001001401E
:106AA0002000020000100140200002000010014000
:106AB0000001040000100140000404000000000078
:106AC00000000500000000030201000001000000BA
:106AD000B59300001000000000006500C9002E0101
