:020000040800F2
:10100000005000207D5E00087B5E0008795E0008CD
:10101000795E0008795E0008795E00080000000033
:101020000000000000000000000000007B5E0008DF
:101030007B5E0008000000007B5E00087B5E00080D
:10104000795E0008795E0008795E0008795E000824
:10105000795E0008795E0008795E0008795E000814
:10106000F5350008795E0008795E0008795E0008B1
:10107000795E0008795E0008795E0008795E0008F4
:10108000795E0008795E0008795E0008795E0008E4
:1010900085420008795E0008795E0008795E0008E4
:1010A0005544000895440008795E0008795E000800
:1010B000391E0008795E0008795E0008795E000834
:1010C000795E0008795E0008795E0008795E0008A4
:1010D000795E0008795E0008795E0008795E000894
:1010E000795E0008795E0008795E0008795E000884
:1010F000795E0008795E0008795E0008795E000874
:10110000795E0008795E0008795E0008795E000863
:10111000795E0008795E0008795E0008795E000853
:10112000795E0008795E0008795E0008795E000843
:10113000795E0008795E0008795E0008795E000833
:10114000795E0008795E0008795E0008795E000823
:10115000F8B5122001F09EF8144B0227054609CB82
:10116000184490FBF7F4142001F094F8064615207B
:1011700001F090F8304490FBF7F068434011221AD8
:101180000B4D2044521144113946284622EAE2729E
:1011900004F071FCB4F5805F22462846BDE8F840B3
:1011A000A8BF4FF48052042104F065BC0C0200205B
:1011B0000008004038B5562001F072F804461020AF
:1011C00001F0ACFC02F0EAF90146512001F07AF896
:1011D00002F092FE02F0E2F9632814D85F2001F0D9
:1011E00067F828B1602001F063F808B901240AE02B
:1011F0005F2001F05DF830B9602001F059F8002857
:1012000018BF4FF0FF345F2001F052F80546602010
:1012100001F04EF8854208BF0024204602F026FD6A
:101220005D2001F045F8184D20B1184B4FF0FF320A
:101230001A6017E0302001F033F840B95B2001F06C
:1012400037F878B102F0AAF9104B18600AE05B2079
:1012500001F02EF808B12B7883B15B2001F028F85B
:101260000028E2D05B2001F023F8214628705620A8
:1012700001F028F8BDE8384002F0CABF02F08EF94C
:10128000024B1860E9E700BFDC010020E00300200A
:101290002DE9F04F3F2085B001F002F84FF0000A31
:1012A000019004F0EDF802F0E3FDD046AD4EAE4FF4
:1012B000DFF8B8925FFA8AF5A81DC0B202F0F8FA1A
:1012C000019B44014FEA8A0B1BB947F82A40FFF7FC
:1012D0003FFF57F80B00241A05F11400C0B200F0CC
:1012E000D9FF640194FBF0F405F142002146C0B23D
:1012F00000F0F0FF56F8041F002CB8BF6442A14272
:10130000B8BF2146D9F800B03160BBF1000F0AD157
:101310001622514305F1450049113160C0B200F079
:10132000D9FFC6F800B02402A0450AF1010AB8BFEF
:10133000A046BAF1020FBDD18C4B1B68002B40F0C8
:101340009980522000F0A6FF0746512000F0A2FF2E
:101350000446422000F09EFF0546432000F09AFF1D
:101360000646402000F096FF814B7F011B88DFF886
:1013700018925B0197FBF3FB16235843471103F0C8
:1013800047F831460246284602F030FC794AD9F83F
:101390000010106849434043491101EB601003926B
:1013A00001F0F8FC0BFB07F77F1100FB07F14FF48E
:1013B0007A7E491191FBFEF10BFB01F14B113C21AF
:1013C00094FBF1F4039A02931368C92103FB07F518
:1013D0006D110BFB05F54C436D116E014FEA641A5C
:1013E00096FBFAFA5E0196FBF0F6D9F8001026EAB1
:1013F000E67601FB07F4641194FBFEF4202E4FF017
:101400003F00A8BF202695FBFEF500F049FF0BFB2F
:1014100004F402284FEA6414039A0ADC11681623C4
:1014200001FB0BF1491159434120491100F052FFD2
:10143000039A1168492000F04DFFD9F800104A20A6
:1014400000F048FF3946442000F044FF31464E206A
:1014500000F040FF29464B2000F03CFF21464C2085
:1014600000F038FF02994D2000F034FF51464F2024
:1014700000F030FF3D4A404C13680133DBB213608B
:10148000236873B9112001F049FB3A2000F008FFEE
:101490000546512000F004FF400095FBF0F5256063
:1014A00001E0013B2360354B354C1B78002B54D0B9
:1014B000344D1D202E6800F0F3FE06FA00F0804443
:1014C0002868C0EB08081D2000F0EAFE48FA00F08A
:1014D00028601B2000F0DEFE2268D30203EB002010
:1014E000801AC01220601C2000F0DAFE29682468EF
:1014F000019B641A6043032B4FEA601406D1C4F5C4
:10150000486359436423491191FBF3F109124120C7
:1015100000F0E0FE572000F0BDFE02F09DFCB4EBB1
:10152000401F05DB572000F0B5FE02F095FC44019A
:101530001E2000F0AFFE24EAE474844203DD1E2086
:1015400000F0A8FE0446204602F068FF21463D2038
:1015500005B0BDE8F04F00F0BDBE236005B0BDE8AA
:10156000F08F00BF140200200C020020F0010020C8
:1015700048750008CC030020040200200802002067
:10158000E0010020E8010020D003002038B5FFF77B
:10159000DFFD082000F084FEC0B201F051FE0920FA
:1015A00000F07EFEC0B201F0EDFC0C2000F078FEF1
:1015B00080B201F02BFE0A2000F06CFE01F036FC38
:1015C0000B2000F067FE01F037FC132000F068FEEE
:1015D00001F016FB1F2000F063FE1E4D1E4C28601C
:1015E000202000F05DFE2060212000F059FE6860A0
:1015F000222000F055FE6060272000F051FE174BBE
:101600001860252000F04CFE154B1860262000F0D5
:1016100047FE144B1860282000F042FE124B186061
:101620002B2000F03DFE114B18602E2000F032FE02
:101630000F4B18602F2000F033FE0E4B18602C204B
:1016400000F028FE0C4B1860242000F029FE0B4B04
:10165000186038BDD4030020E403002008040020F3
:10166000F0030020040400200004002014040020E3
:101670000C040020F8030020EC030020DC03002011
:101680002DE9F04F3F2087B000F00AFE05461A20F2
:1016900000F006FE0190332000F0FCFD834634206C
:1016A00000F0F8FD8246182000F0F4FD8146162077
:1016B00000F0F0FD0446022000F0ECFD8046012021
:1016C00000F0E8FD0646002000F0E4FD0746352066
:1016D00000F0E0FD0290172000F0E2FD03900520ED
:1016E00002F0E6F8F922410191FBF2F1592000F0F5
:1016F000F1FD022002F0DCF8CD4A039B116800EBFB
:101700008100401A8010C31A9B0293FBF4F4A34596
:1017100010604FF00E0001DCA24502DA01F0EAF998
:1017200001E001F0F1F9A14509DA00213F2000F0C4
:10173000C9FD132001F0DEF9062002F09FFB029A9A
:10174000022392FBF3F39C4205DA03F099FEB0F515
:10175000FA7F00F22181B8F1000F0CDDC8EB040321
:101760005B0193FBF8F87F0108F1200897FBF8F77D
:1017700008FB06F676112146402000F0ABFD31460D
:10178000482000F0A7FD3946472000F0A3FD304671
:1017900001F074FB781101F06BFB5A2000F080FD22
:1017A000A44F06463B78002818BF43F001033B7066
:1017B00003F066FE804602F015FDC0EB08003128FC
:1017C00003D93B78002B40F0F180002001F080F934
:1017D00006F001010143C9B25B2000F073FD012056
:1017E00001F076F9C6F340010143C9B25C2000F074
:1017F00069FD022001F06CF9C6F380010143C9B212
:101800005D2000F05FFD032001F062F901465E20DB
:1018100000F058FD042001F05BF9C6F3C00101435C
:10182000C9B25F2000F04EFD052001F051F9C6F36A
:1018300000110143C9B2602000F044FD062001F010
:1018400047F90146612000F03DFD082001F040F914
:10185000C6F3401640EA0601C9B2642000F032FD2A
:101860000B2001F035F90146622000F02BFD0C2021
:1018700001F02EF90146632000F024FD002002F063
:1018800017F80490012002F013F805905D2000F095
:101890000FFD8246232000F003FD0228074619D1E0
:1018A00003F0EEFD064602F09DFC301A312808D800
:1018B000532000F0F5FC0490542000F0F1FC05905A
:1018C00010E05D4B03201A685B680492059302F0F8
:1018D000D5FA07E00499532000F0F4FC0599542050
:1018E00000F0F0FC002104A802F0C6F928B913208A
:1018F00001F000F9012002F0C1FA012105A802F06F
:10190000BBF9012F06460AD1059904A802F0DAF9BD
:10191000002854D0002E52D0484B5B6805935620C7
:1019200000F0BEFC10B9444B1B6804935246059965
:10193000049802F0F3F9064601F030FE02F04EFA88
:101940000746572000F0A6FC02F086FA804601F018
:1019500025FE02F057FA81462D2000F0A1FC002858
:1019600000F0F0812D2000F09BFC012803D1BAF19A
:10197000000F00F0E7812D2000F092FC022840F0DB
:101980000982BAF1000F40F005825B2000F090FC64
:10199000002840F0D781FDE1132001F0ABF80F20C3
:1019A00001F0B2F8082002F069FAD4E600215A20CA
:1019B00000F088FC032002F061FA002605E71320FE
:1019C00001F098F8012002F059FA0021552000F0AA
:1019D00079FC382000F064FC0646392000F060FCF9
:1019E0008046372000F05CFC0290042001F060FF8C
:1019F0008346032001F05CFF114F03903B68DFF842
:101A000044A0DFF84490032B57D8DFE803F0021F0F
:101A10003544152001F078F8142001F075F8012301
:101A2000042103983B6002F029F8002747E000BF3B
:101A3000EC010020FC010020D4030020E40300207E
:101A400020020020F401002014020020152001F0E3
:101A500051F8142001F058F80023022205215846BD
:101A6000CAF80030C9F8003003933A6002F006F873
:101A7000039B0746184622E0152001F045F8142084
:101A800001F038F80323052158463B6001F0F6FFCA
:101A90000746002013E0152001F02CF8142001F077
:101AA00029F80023052158463B6001F0E7FF042197
:101AB0000746039801F0E2FF01E000200746DAF84C
:101AC0000030C64A9F42B8BF1F46D9F80030CAF856
:101AD00000709842B8BF18461368824603EBC733BC
:101AE000DB1BDB131360BE4AC9F80000136803EB6D
:101AF00080431B1A9B141360029B012B03D0022B03
:101B000005D0421100E07A1106FB028204E0512068
:101B100000F0C0FB00FB068282F310020621B148F0
:101B200003F0A9FF3946572000F0D4FB5146582056
:101B300000F0D0FB0A2001F0CFFC012D40F0A68080
:101B4000042000F0A7FB8146072000F0A3FB80469D
:101B5000552000F09FFB061E3FDB01F041FD50B118
:101B6000C8F54860704320F01F034FF4486093FBB2
:101B7000F0F0804401E008EB4608B6F5C86F2ADBB8
:101B8000052000F087FB8246032000F083FB074618
:101B9000502000F07FFB8346012000F07BFB834553
:101BA000C6BF5F44A7EB4007CBEB07077F007F0171
:101BB00097FBF0F0A6F5C866C9EB0A037600584318
:101BC000734364225B1193FBF2F30AEB60109944B8
:101BD0008145A8BF814612202BE0292000F05AFB46
:101BE000074601F0FDFC40B106FB08F67E4826F0F2
:101BF0001F0696FBF0F0804401E0C6F1000801F0FA
:101C0000AFFC8742C9F1000908D901F0A9FC4001E5
:101C1000B0FBF7F008FB00F84FEA58182A2000F054
:101C200039FB404240454FF0120002DC00F062FFF9
:101C300001E000F069FF3D2000F02CFBC000B8F58A
:101C4000486FD4BF804400F548683D2000F022FB77
:101C5000C0EB0801C9103D2000F03CFB3C2000F027
:101C600019FB09EBC0093C2000F014FBC0EB090193
:101C7000C9103C2000F02EFB3D2000F00BFB02F0D1
:101C8000CDFB3C2000F006FB02F0CEFB062000F06E
:101C90001FFF38B3032000F01BFF18B3552000F0DE
:101CA000FFFA00281EDC352000F0F4FAA04219DC0F
:101CB000042000F00DFF002872D0052000F008FF7E
:101CC00000286DD0082000F003FF002868D1019B98
:101CD000022B65DD019B042B79D1362000F0DAFA66
:101CE000A04264DD414C95B932232946522023603D
:101CF00000F0E8FA284602F05BFD0D2000F004FF3A
:101D00003B4B4FF0FF321A603A4B1D7063E0236883
:101D1000002B13D101F01AF902F046FE2846033DCC
:101D200002F046FD012D334B8CBF00250125132009
:101D30001D7000F0E9FE4FF0FF3301E04BDD013B89
:101D4000236048E0B7423846B8BF3046284B1B688E
:101D5000002B09DD284A1268934205DD002E02DBC4
:101D600002D04E4518DA4846B8F1630F0FDC002860
:101D700004DB06464645A8BF464604E0C8F1000617
:101D80008642B8BF0646132000F0B4FE00E00646C7
:101D900031461BE63046D9E7B8F1630FF8DCE9E7D6
:101DA0005C2000F085FA00289CD0012301930D20CF
:101DB00000F0A0FE132000F0A7FE0F2000F0A4FE0C
:101DC00001993F2000F07EFA02F076F88AE7019B45
:101DD000032B87D1EBE707B0BDE8F08FE4010020CB
:101DE000240200200008004080F3FFFF00020020D2
:101DF000E003002008020020140400203C2808B55D
:101E000005D100F047FABDE8084002F00DBB3D28BF
:101E100005D100F03FFABDE8084002F0FFBA3B28C8
:101E200006D100F03DFABDE80840C0B202F0BCB9EE
:101E3000BDE80840FFF7AABB014B186800F0EEB9F7
:101E4000F801002010B588B000F04CF800F016F949
:101E500000F020F901F06AFD00F00CFE00F08CF8B3
:101E6000044600F0E5F801F085F8204600F09CFA01
:101E700001F09AFEFFF78AFB3B2000F011FAC0B296
:101E800002F026F9124B188800F0FEFF4FF0804157
:101E9000684600F06DF90F4B684664220E49C3F89E
:101EA00000D000F08BF968464FF47A720B4900F0CD
:101EB00085F942F210720A49684600F07FF90F2056
:101EC00000F018FE00F076FA002008B010BD00BF48
:101ED00048750008F80100209112000881160008DA
:101EE000B511000808B503F029FA042003F012FA2E
:101EF000022003F0FBF91E4B1E4A40F202301A602A
:101F000003F0D8FE40F2033003F0D4FE4FF44170EA
:101F100003F0D0FE40F2053003F0CCFE40F29230E8
:101F200003F0C8FE40F20B3003F0C4FE4FF46070C3
:101F300003F0C0FE40F2813003F0BCFE40F282307C
:101F400003F0B8FE4FF4207003F0B4FE40F2093005
:101F500003F0B0FE40F2862003F0ACFE4FF4407078
:101F600003F0A8FEBDE8084040F2993003F0A2BE9D
:101F70000CED00E00003FA0570B5284C4FF48063C7
:101F800002220321264803F097F820464FF4E1315E
:101F900003F034FE2046082103F044FE20464FF4AF
:101FA000005103F048FE20460C2103F050FE20466D
:101FB00000211C4D03F045FE0021204603F04DFE9C
:101FC000204603F060FE184E2846032103F0F9FA7C
:101FD0002846164A032103F0FDFA3246284603211B
:101FE00003F001FB28460022032103F0BFFA284634
:101FF0000022032103F0AEFA80222846032103F0D9
:10200000FBFA2846032103F0BDFA0321284603F01A
:10201000CFFA204603F027FE304670BD004800404E
:10202000000C01400000024028020020044800404B
:1020300008B5192003F072FF1021192003F07CFF6E
:10204000182003F06BFF0021182003F075FF082013
:1020500003F064FF0021082003F06EFF1C2003F052
:102060005DFFE0211C2003F067FF142003F056FF02
:10207000BDE80840F021142003F05EBF08B503203E
:102080004FF41C7103F02EFABDE80840002003F065
:1020900001BA000010B5334C204603F03DFB00218F
:1020A000204603F020FB204603F018FB20460622C2
:1020B000022103F041FB20460622042103F03CFBF1
:1020C00006221146204603F037FB2046022103F08A
:1020D000FFFB2046042103F0FBFB2046062103F012
:1020E000F7FB2046022103F00DFC2046042103F0FB
:1020F00009FC2046062103F005FC2046022103F0DE
:102100004BFC2046042103F047FC2046062103F047
:1021100043FC2046012103F0E5FC2046002103F0AA
:1021200005FB4FF48051204603F004FB204604F5E4
:10213000823403F0ECFA20464FF46073022203214C
:1021400002F0BAFF4FF4E06302220321064802F0D6
:10215000B3FF2046BDE810404FF460430222032144
:1021600002F0AABF000800400008014070470000CC
:1021700038B504460D46A161084603F0AFFA28467B
:1021800003F0BBFA284640F2CF2103F0CFFA2846ED
:102190004FF6FF7103F0CEFA4FF6FF73064A238223
:1021A0006382A382E382002322606260A260E26015
:1021B000E361204638BD00BF6D210008F8B5C36952
:1021C0000446032B0F46164625DC806903F0A4FA6B
:1021D000114DE3690122E95CA06903F0ADFAE369FE
:1021E0000022E95CA06903F046FCE369022103F1E7
:1021F000080244F82370994024F81260A06903F0A3
:102200005BFA0021A06903F073FCA06903F07FFA78
:10221000E3690133E361F8BD585F00082DE9F0413F
:10222000054600F110060024022707FA04F841468B
:10223000A86903F04AFA70B14146A86903F04BFA65
:10224000AB693188343353F824200A4443F82420FE
:1022500055F8243098470134042C06F10206E4D1E5
:10226000BDE8F08110B5094C1C2303FB0043DC687A
:102270008C4209DC1B69994206DC054B43F82010AF
:10228000FFF7BCFD002010BDFF2010BDE864000872
:1022900000000020014B53F8200070470000002090
:1022A000024B53F820004011704700BF000000208F
:1022B000034B53F820004011431E584258417047C9
:1022C00000000020024B490143F82010704700BF76
:1022D00000000020014B43F8201070470000002050
:1022E000F8B50546084E00241C2707FB0463294661
:1022F000586800F01BFB08B9E0B2F8BD0134692C46
:10230000F3D16A20F8BD00BFE864000810B5074AA1
:1023100000231C2101FB0324A469844201D1D8B20B
:1023200010BD0133692BF5D16A2010BDE8640008A7
:10233000024B1C2202FB0030704700BFE86400081B
:10234000044A1C2303FB0023D8681B69C01A18BF6A
:1023500001207047E8640008074A0849002352F842
:10236000040C18B152F8080C41F823000133692B12
:1023700002F11C02F3D17047046500080000002040
:1023800010B5084C0321204603F01BF92046032119
:10239000802203F031F92046BDE81040032103F00C
:1023A00007B900BF00000240014B1860704700BF32
:1023B000A80200202DE9F04F374F00252C46B846E3
:1023C000DFF8E490A1B0D9F800A0D9F80030CAF144
:1023D00080060BB9FFF7D4FFAB46B3455D4608DA7C
:1023E0003B682E4813F80B1003F042FC0BF1010B75
:1023F000F3E7002EE7DD3868CAF17F0A10F80A30EB
:102400000A2B01D00D2B3BD100238355202100F056
:10241000AEFA0578044645B90A21D8F8000000F064
:10242000A6FA8DF80050044603E0411C684600F00F
:102430008DFA23782BB90D21D8F8000000F097FA17
:10244000044600232370D8F80050154C216819B1B8
:10245000284600F06BFA38B92368002B08BF002427
:10246000FFF78EFF9CB901E00834EFE7012E11D091
:102470000C4D15F8011F69B1084803F0F9FBF8E7A6
:102480000378212B9FD1002C9DD0FFF779FF636843
:1024900068469847002596E7A802002000480040BB
:1024A00080700008637000083400024008B581B2F3
:1024B000024803F0DDFB002008BD00BF00480040DB
:1024C000704708B503F022FD01F032BD044B05480A
:1024D000196853F8042C083B1B6801F0CBB900BF06
:1024E000F0F7FF1F107100082DE9F04387B000F0EE
:1024F0008DFA03780546632B03D101F0D1FD3048F6
:1025000058E00026B1466FF001044FF06A08202120
:10251000284600F02CFA037807461BB9032C01D09B
:10252000284847E0A11C87F8009005D12E78A6F135
:102530007402564256410BE0631C284603D1FFF754
:10254000CFFE804604E000F04AFA02AB43F82400D4
:102550000134042C07F10105D9D1B8F16A0F28D054
:10256000059B02A900930EC9404616B101F050FD2B
:1025700001E001F05BFD431D042B13D8DFE803F0FD
:102580000C0F0906030002990F480DE003990F484C
:102590000AE004990E4807E002990E4804E0029907
:1025A0000D4801E001460D4807B0BDE8F04301F0D9
:1025B00061B90B4807B0BDE8F04301F05BB900BF5B
:1025C000197100083B7100084E7100086271000823
:1025D000767100088A710008B2710008CE71000897
:1025E000F771000810B5084801F044F90024E0B282
:1025F000FFF79EFE013482684168044801F03AF911
:10260000692CF4D110BD00BF0B7200082D720008B8
:1026100070B50024E5B22846FFF78AFE46682846D2
:10262000FFF738FE013402463146034801F022F933
:10263000692CEFD170BD00BF3772000870B500F093
:10264000E5F904462C21204600F091F90023067894
:10265000054603702046FFF743FE6A2804D0FFF7C3
:1026600019FE0146054801E0214605482C4601F0C7
:1026700001F92C2E04F8016BE4D070BD3B72000808
:10268000407200082DE9F743194801F0F3F80025DE
:102690002027EEB23046FFF74BFED0F80480D0F88A
:1026A000089004463046FFF7F5FD4B460090424641
:1026B0003946104801F0DEF83046FFF741FE40B1E0
:1026C000236804F10C0100930EC90B4801F0D2F805
:1026D00002E00A4801F0CEF80135692D4FF02C07D1
:1026E000D7D1074803B0BDE8F04301F0C3B800BF3D
:1026F0005A7200085C7200088C720008C9720008E7
:10270000D072000873B50E4801F0B4F80D4801F01E
:10271000B1F80024E6B23046FFF70AFE054630461F
:10272000FFF70EFE38B16B69074800932B69EA6822
:10273000696801F09FF80134692CEBD102B070BDDB
:10274000D6720008ED7200080973000808B501F0A0
:10275000D3F90146044801F08DF801F075FCBDE89D
:102760000840024801F086B81C730008387300085E
:1027700010B500F04BF900F0E3FADF28044608DC5E
:1027800001463F20FFF7A6FD601102F011F8034853
:1027900000E00348BDE8104001F06CB84873000841
:1027A0005B73000808B53F200021FFF78BFDBDE8F3
:1027B0000840014801F05EB87173000808B5FFF7E2
:1027C000CBFDBDE80840014801F054B8847300080F
:1027D0002DE9F04385B000F019F9044600F0FFF848
:1027E00020210646204600F0C2F803782BB927487E
:1027F00005B0BDE8F04301F03DB80025A846441CF3
:102800002C21204600F0B3F8074690F8009080F89D
:1028100000802046FFF764FD3C466A2804F8019BCF
:1028200005D004AB2B4403F80C0C013502E018482A
:1028300001F020F83B782C2B01D1092DE0DD154863
:1028400003F02AFA2021134803F02EFAD0B9002E03
:1028500001DC721C16D104460F4FA5420BD001AB10
:10286000185DFFF717FD394602460C4801F002F8E3
:1028700001340B4FF1E70B4800F0FCFF731CE1D073
:10288000013EDFE705B0BDE8F08300BF96730008A6
:10289000F77100080048004059720008B57300083D
:1028A000BA7300085772000838B500F0AFF820215D
:1028B000044600F05CF803780BB90F480FE00023E2
:1028C00000F8013B00F03CFA05462046FFF708FD02
:1028D0006A280AD02946FFF7C5FC20B90748BDE899
:1028E000384000F0C7BF0648F9E72146BDE8384048
:1028F000044800F0BFBF00BFBC730008D7730008D6
:10290000E0730008F573000808B501F04DF918B937
:10291000FFF774FA034800E00348BDE8084000F000
:10292000A9BF00BF0C7400082074000810B501385E
:1029300010F8013F0C4623B111F8012B0AB1934264
:10294000F6D02078C01A18BF012010BD013911F847
:10295000013F13B100F8013BF9E7037070470246ED
:102960000346981A13F8011B0029FAD17047034651
:10297000184613F8012B0AB18A42F9D17047002991
:10298000F0B5034605DA2D2003F8010B494201207A
:1029900001E003D000201C46C71A04E03022027078
:1029A00041700120F0BD91FBF2FE254602FB1E1195
:1029B000303105F8011BBEF100011E4605EB070092
:1029C00001DD2C46EFE700232B70B44206D93378A3
:1029D000227806F8012B04F80139F6E7F0BD30B58E
:1029E000037800212D2B06BF01304FF0FF34012466
:1029F000431E0A2513F8012F303AD0B2092802D815
:102A000005FB0121F6E704FB01F030BD10B51349C9
:102A1000044610F8012BA2F10A03DBB2162B04D8EE
:102A200021FA03F3DA07F3D400E0A2B12046FFF75E
:102A300096FF0A49013820448442024609D213789D
:102A400001380A3BDBB2162B03D821FA03F3DB076C
:102A5000F2D400235370204610BD00BF090040008F
:102A6000043812F1FF3204D351F8043B40F8043F1C
:102A7000F7E7704770B5124C124E14F8023C052B64
:102A80001CD0013BDBB2032B9DBF0F480F4AC55C36
:102A9000002599BFF15CD25C0222294634F8043C3F
:102AA00054F8080C02F008FB012D05D134F8041C81
:102AB00054F8080C02F0A6FD0834DEE770BD00BF34
:102AC0008C7400083C7500084475000840750008C7
:102AD000074B10B503EBC004A18853F8300002F097
:102AE00096FDA388184214BF0120002010BD00BF2E
:102AF00084740008034B03EBC002918853F8300044
:102B000002F080BD84740008034B03EBC00291887F
:102B100053F8300002F078BD84740008034B03EBD7
:102B2000C002918853F8300002F074BD847400082C
:102B3000024B400933F91000704700BF5075000880
:102B4000034BC0F58040C0F34A1033F910007047C2
:102B500050750008002910B505D10028ACBF002031
:102B60004FF4004010BDBDBF404249420424002440
:102B70000028DFBF43420846194602348842DEBFC0
:102B80000B1A401819464FEAC13191FBF0F0C0F121
:102B9000000100FB01F14FF48E624FEAE13102FBCC
:102BA00001F24FEAE23202F5815202F1090201FB21
:102BB00002F24FEAE23202F5F85202F10B0201FB97
:102BC00002F34FEAE33303F5595303F10C0301FB1E
:102BD00003F34FEAE33303F5224303F1FC0300FB65
:102BE00003F0D8BF0134C0136403023004EBA0002B
:102BF00080B210BD014B1860704700BFC0020020BA
:102C0000014B1860704700BFB002002091420B4694
:102C1000A8BF13468A42B8BF0A468242B8BF0246DE
:102C20008342D4BFD018101840107047F0B5244A22
:102C3000431132F9133085B0019300F5AA4355339F
:102C4000C3F34A13A0F5AA4032F913305638C0F343
:102C50004A10029332F9103001AC0393194B1988D2
:102C6000002354F823204A43D21344F8232001338D
:102C7000032BF6D101A807C8FFF7C8FF002294462E
:102C8000114B12491E88124B4FF4803E1D68C5F54A
:102C9000803754F822301B1A44F822303344AB42B8
:102CA00041F8043F02D2C1F800C003E0BB4288BF34
:102CB000C1F800E00132032AEBD105B0F0BD00BF3E
:102CC00050750008C0020020AC020020B0020020B5
:102CD000B0020020024B4FF400421A80704700BF40
:102CE000AC0200200029B4BF4FF0FF32012270B5C2
:102CF000054601FB02F4642301324FEA641104F03B
:102D00001F0403FB04F404BF2D2305F8013B064612
:102D10000A222846FFF733FE6411092C4FF02E02D9
:102D20002A5405EB000398BF302203F101009CBF39
:102D30005A70981C0A222146FFF721FE304670BDCA
:102D4000F0B5037800242D2B06BF01304FF0FF357E
:102D500001250A27024612F8013BA3F13001CEB249
:102D6000092E03D807FB04141046F3E773B10A21B8
:102D70000F46002310F8012F303AD6B2092E05D89D
:102D8000520192FBF1F279431344F3E703EB441051
:102D90006843F0BDB0F57A7F34BF0423082320FADE
:102DA00003F3202B38BF20234001B0FBF3F21A4479
:102DB0005208991A01291346F7D8104670470000A7
:102DC00010B5154C154B24681B68A04228BF43431F
:102DD000134A38BF0021126821BF02EB93235943E5
:102DE0006423B1FBF3F10F4B1C680F4BA1421B682E
:102DF00028BF2146A3F5207290420AD91B1A23EA64
:102E0000E3735A014FF4207392FBF3F349014B43F0
:102E10009912084610BD00BFC8020020C40200205D
:102E2000D0020020CC020020D4020020014B186008
:102E3000704700BFC8020020014B1860704700BFF8
:102E4000D4020020064B074A1B6812689B1A064AE8
:102E50009B021268B3FBF2F3044A1360704700BF91
:102E6000CC020020D0020020A4010020C4020020D7
:102E7000014B1860FFF7E6BFD0020020014B18603D
:102E8000FFF7E0BFA4010020014B1860FFF7DABF95
:102E9000CC02002008B5274802F0CEFB264B25487F
:102EA0001988890002F046FC244B1B78022B0BD1B9
:102EB0002349042002F05AFF0021042002F01CFFE5
:102EC000042002F037FF02E0042002F03DFF03215E
:102ED000184802F082FE01220021164802F032FE5C
:102EE00002220121134802F02DFE0F220021114879
:102EF00002F000FE0F2201210E4802F0FBFD00212E
:102F00000C4802F050FE01210A4802F04CFE09482C
:102F100002F0FDFB042301220021094802F0CCF855
:102F2000802301220021074802F0C6F8064B002248
:102F30001A7008BD00040040D8020020A90100203A
:102F40000014014000080140F8020020064B012255
:102F50001A704FF6FF73054A1360054A13805380B9
:102F60009380D38013817047A8010020EC020020D9
:102F7000E0020020FFF7EABF014B1878704700BF5E
:102F8000F802002030B5954B85B01A78044682428D
:102F900000F022811870431E012B02D8FFF77AFF40
:102FA0001AE100286FD18E4802F046FB47218C4879
:102FB00002F0BCFB4FF6FF71894802F0BBFB88486A
:102FC00002F09BFB0421864802F007FE01218448A1
:102FD00002F0FAFD7021824802F007FE0F218048BE
:102FE00002F0E9FD21460E227D4802F083FD2146D4
:102FF00001227B4802F0A6FD7A4A214613687848F0
:1030000043F00203136002F0CEFD4FF400717448E8
:1030100002F052FB724802F084FB0121704802F07A
:1030200061FD6F4802F073FB06216F4802F0C9FA98
:103030006E4A06216C4802F0CDFA6D4A06216A48B4
:1030400002F0D1FA4FF480720621674802F08EFA3E
:103050004FF480620621644802F07CFA05220621C2
:10306000614802F0C9FA06215F4802F08BFA062196
:103070005D4802F090FA06215B4802F099FA0420BC
:1030800002F062FEA8E0032812D1554802F0D4FAFB
:10309000042002F059FE214604230022554802F084
:1030A0000BF8802300222146534802F005F890E0F7
:1030B000042840F09180514B18680190504801F06D
:1030C00010FD01AA21464E4801F06DFD4FF4E0418C
:1030D0004B4801F0A9FC00220621494801F0CBFC35
:1030E00000220721464801F0C6FC3D4802F0A4FA40
:1030F00047213B4802F01AFB4FF6FF71384802F0B7
:1031000019FB374802F0FEFA07220621344802F084
:1031100013FB0621324802F03FFC314802F0DEFA90
:103120002F4802F0EAFA01212D4802F0DBFC234689
:10313000002203212F4801F0BFFF00221146402347
:103140002D4801F0B9FF0022802311462A4801F0E2
:10315000B3FF204602F0F8FD294801F050FD00239E
:10316000284A0293029B934203DC029B01330293A1
:10317000F8E7234801F043FD0023224A0393039B11
:10318000934203DC039B01330393F8E701211C48BE
:1031900001F0B6FC02210546194801F0B1FC0446D5
:1031A0002A460121164801F011FD22460221144849
:1031B00001F00CFD2A460321114801F007FD04210E
:1031C0000F48224601F002FD4FF480410C4801F007
:1031D0002BFC0D4B01221A7005B030BDA901002057
:1031E000000400402004004000000240340400407D
:1031F000E002002000140140000801405085000852
:10320000002401407F380100F8020020094B1A8891
:1032100082420DD018804FF4803393FBF0F0064BC0
:103220001860064B1B78013B012B01D8FFF732BE1B
:10323000704700BFD8020020DC020020A901002056
:10324000014B1880704700BF080300202DE9F843A8
:103250008A4B05461E78002E5ED1894B894E1A682E
:10326000894B92B21868894BB6461C681A60A24214
:10327000C8BF0534A41A00224FF6FF73114636F872
:103280001170BFB29F4298BF36F811303EF81170EE
:1032900098BF9BB2BFB2974228BF36F8112001F108
:1032A000010128BF92B20529E9D17949002CD5BF87
:1032B0000E68002601360E60D8BF0E600968C4BFD4
:1032C000744F3E70B1F57A7FC2BF724901260E700D
:1032D000B2EBC30F04D91BB1072000F0CFFD10E003
:1032E00003EB430393426C4E01D2326009E06B4A18
:1032F0003368178881B2C91A03FA07F28B18FB40AA
:103300003360674B674A1B6811885D4305FB0414F3
:10331000A4B21480BDE8F883042E54D1624F614CEE
:103320003B78624D3146624893B102F06DF9282234
:103330000621604802F09FFB00215E4802F0D8FBA6
:103340005C4802F0E4F900233B702B88238037E0CF
:1033500002F058F90121584801F0D2FB03218046C0
:10336000554801F0CDFB02218044534801F0C8FBD1
:1033700031468146504801F0C3FB09EB000140464D
:10338000FFF7E8FB0123208021883B7022882B88EF
:103390004A48C91A9A1A93B289B28B4228BF0B467F
:1033A0003E4A23F00F034421076816884B4307FA6F
:1033B00006F2D21B02EB6313F340036023882B80D9
:1033C0002388BDE8F883032E35D13D4B3D4D1A6867
:1033D0000F2442F080021A603B4A116841F48021B8
:1033E00011600021186840F400001860286800F09F
:1033F0004000A0400143186814F1FF3440F0800001
:103400001860EFD2136843F004031360C1F38F23F5
:1034100024492E4A0B800B8812889BB21B019BB259
:103420000B800B8809889B1A521A9BB292B2934266
:1034300028BF134617E01F4C204602F057FB244BD1
:1034400000041B8817499B00B0FBF3F080B2088092
:103450000B8820689AB21D4BC0061B884ABF0A8899
:10346000D31A9B1A9BB20F4A1188184A1180194A25
:1034700011680B441360BDE8F88300BFA901002068
:1034800070000240E002002034040040F0020020FE
:10349000F4020020A8010020EC0200200803002014
:1034A000DC020020DA020020F9020020FA020020EB
:1034B000001401400004004000240140FC020020F0
:1034C00010080140080801401014014000030020CA
:1034D000D802002004030020094B1B7813F0FB0FD7
:1034E0000DD000280BDD074A4FF47A7311684B4367
:1034F000B3FBF0F0044BC00A186000231360704760
:10350000A901002004030020FC02002038B50E4B66
:1035100005461B780D4C9BB90D4802F0E7FA0D4BA0
:103520001B7843B10C4B1B6858430C4B1B68B0FB1A
:10353000F3F080B200E01846238805FB003000E07D
:10354000208880B238BD00BFA9010020DA02002027
:1035500000040040A8010020DC020020EC02002052
:10356000084B187858B9084B1B7853B9074B188883
:10357000074B1B685843074BB3FBF0F07047064BF3
:1035800018687047A9010020A8010020D802002077
:10359000EC0200200048E801FC0200200A4B1878E9
:1035A00058B90A4B1B786BB9094B1888094B1B6833
:1035B0005843094BB3FBF0F07047084B18683C23A5
:1035C00058434009704700BFA9010020A80100200E
:1035D000D8020020EC02002000879303FC020020A8
:1035E000034B1878023802288CBF00200120704756
:1035F000A901002008B5042002F0B2FB0021034815
:1036000002F076FA024B01221A7008BD0004004055
:10361000F802002028B103681970036801330360C1
:1036200070470846FEF742BF2DE9F843141E804656
:103630000D460FDD0A46501B12F8011B0029FAD176
:103640008442CCBF241A0C4613F0020F0CBF202773
:10365000302700E02027DB070CD42646002E05DDAE
:1036600039464046FFF7D6FF013EF7E724EAE47308
:10367000E41A00E000235E1B06EB050915F8011BA8
:1036800019B14046FFF7C6FFF6E72546002D05DDD8
:1036900039464046FFF7BEFF013DF7E7002CACBFBF
:1036A00009EB040009F10000BDE8F8832DE9F043BF
:1036B00085B00746DDF83080DDF834900D4651B90D
:1036C00030238DF804308DF805104B46424601A991
:1036D000FFF7AAFF3AE033B10A2A06D1002904DA3B
:1036E0004D42012002E0184600E00020002304AE15
:1036F00006F8013D0E9B3A3B5DB1B5FBF2F102FBD2
:103700001155092DC8BFED18303506F8015D0D467D
:10371000F2E798B1B8F1000F0AD019F0020F07D004
:103720002D213846FFF776FF08F1FF38012406E027
:103730002D2306F8013C0024013E00E004464B46E0
:10374000424631463846FFF76FFF204405B0BDE8DA
:10375000F08300002DE9F04307460E461446DFF8DB
:1037600010918BB000254FF00A08337823B1252B38
:1037700072D17378711C2BB9002F74D03B68002272
:103780001A7070E0252B66D02D2B06BFB11C0123CB
:1037900000230A78481C302A03D143F00203014673
:1037A000F7E7002208780E46A0F1300E5FFA8EFC93
:1037B000BCF1090F01F1010102D808FB02E2F1E7B7
:1037C000732805D121680434002908BF49463EE02A
:1037D00064280DD1214661208DE80C000290012360
:1037E0000A22096838460434FFF760FF054438E0D0
:1037F000782802D12146612003E0582807D12146CC
:1038000041208DE80C00029000231022E9E7752882
:1038100006D161208DE80C00214602900023DFE7ED
:1038200066280AD1216807A8059304920434FFF79B
:1038300059FA059B049A07A909E0632811D1216868
:1038400004348DF8181000218DF8191006A9384697
:10385000FFF7EAFECAE70E4631783846FFF7DAFE90
:103860000135013681E728460BB0BDE8F08300BF83
:10387000548500080FB407B504AA52F8041B0020B1
:103880000192FFF767FF03B05DF804EB04B07047E7
:10389000884205DD914208DC9042A8BF104670477F
:1038A000904203DC9142A8BF1146084670470000D1
:1038B000124B13B503EB400000F13003002433F842
:1038C000102C33F8201C33F8300CFFF7E1FF2DF8F3
:1038D00014000134042C03F13003F0D1BDF80230A0
:1038E000BDF800001844BDF804301844BDF8063097
:1038F0001844C0F38F0002B010BD00BF0A030020BF
:10390000012806D0022809D070B907290CDCC8B2FA
:103910007047012908DC01F1080003E0052903DCF8
:1039200001F10A00C0B270471020704770B54A48D4
:1039300086B001F0D1F8484801F0D8F8464801F0C7
:10394000F1F8454801F0D7F80121434801F0AFF8FC
:10395000414801F059F80023404A0193019B9342EA
:1039600003DC019B01330193F8E73B4801F066F863
:10397000394801F076F83A4D002615F8022CF4B2D9
:10398000032A2FD0012A15F8013C12D009D3022AAC
:1039900017D1012101FA03F300229BB211463148ED
:1039A0000DE0012202FA03F300229BB211462E48D9
:1039B00005E002FA03F3002211462C489BB201F005
:1039C0007BFB15F8011C15F8020CFFF799FF06ABFD
:1039D000234403F8100C264B002223F81420013650
:1039E0000235CAE702AA21461B4801F0A0F81A488E
:1039F00001F00FF91F4A01211F4801F0EBFD1C4A9D
:103A000001211D4801F0EFFD4FF4807201211A4899
:103A100001F0ACFD4FF480620121174801F09AFDDE
:103A200004EB440292000121134801F0E5FD01215D
:103A3000114801F0A7FD01210F4801F0ACFD012163
:103A40000D4801F0B5FD044801F0CFF8024800F040
:103A5000E3FF06B070BD00BF002401407F380100C5
:103A60005D8500080010014000080140000C014085
:103A70000A0300204C240140000002400529F0B553
:103A800022D84FF6FF721B4C09016518EF68AE7A19
:103A90003B88012E18BF01221A4495F809E092B222
:103AA000002575450CD2012E37F8153002D1984209
:103AB00003DC0BE00EB983420CDD01351A46F0E75A
:103AC000214448684001F0BD0020F0BD181A4001B3
:103AD0009B1A02E0C01A4001D31A40015B0190FB1F
:103AE000F3F36218127A6158534305FB0215C3EBD6
:103AF0004510F0BD3086000870B5ADF5806D01F061
:103B00000BFD0024E5B22846FEF71AFC08B905466D
:103B100002E07F2C27D10FE07F2C0DD00DEBC403EA
:103B20004DF8345000205D6001F0FEFC002001F0F3
:103B3000FBFC0134FE90EFE702F072F9022002F084
:103B400065F9174801F07AFA154C164D04F17843DF
:103B5000A3F5FE3320465DF80310043402F080F92B
:103B6000AC42F3D116E02846FEF7E2FB8369064635
:103B700028464DF83430FEF78DFB0DEBC40358603A
:103B8000B06901F0D1FC2846FEF784FB01F0CCFCC3
:103B90000134B7E702F056F9FE980DF5806D70BD5F
:103BA00000FC01080000020838B50E4C01F0B4FC1E
:103BB000FE21204601F0BEFCD4F8F83398420DD126
:103BC000094D2068FEF7A2FB6A2802D06168FEF763
:103BD00081FB0834AC42F4D1002038BD4FF0FF30F7
:103BE00038BD00BF00FC0108F8FF0108F8B5044625
:103BF00010460F461646FEF79BFF194B1D684543BE
:103C00003046FEF79DFF49F2CC3344F6E61249F602
:103C1000C4467B436243DB1303EBE23101FB05F255
:103C200004FB00F3D2130F4F02EBE33373436C43F7
:103C3000D7F800E048434FEA8E0202EBE333E41387
:103C4000094ACEEB0303C4EBE0319B1071433B60A8
:103C50001768BB0003EBE131C91B89101160F8BD87
:103C6000AC010020CC030020D0030020014B1860E1
:103C7000704700BFAC010020104B114A53F82130AF
:103C800052F8212010B59342C2BF11461A460B4686
:103C9000016801F1C8049C4203DB02F1C804A1429F
:103CA00002DD0360002010BD994201DA036002E0EA
:103CB0008A42B8BF0260012010BD00BFE4030020AB
:103CC000D403002070B5134E134D74686A686423E2
:103CD000944207DD891A4B43A11A93FBF1F1C1F11C
:103CE000640104E0091B4B43111B93FBF1F10368D2
:103CF000346864221B1B5A432B681B1B92FBF3F393
:103D0000C91A0029B8BF49420A29C6BF0460002069
:103D1000012070BDD4030020E4030020F0B512B1EF
:103D2000254B1C6802E0254B1C686442244E254F3D
:103D300073688B420CDAC91A4FF0640C0CFB01F566
:103D40007968C91A95FBF1F14C4394FBFCF4013CF2
:103D50001D4B36681D68801B05F1640141433B68BB
:103D6000981B91FBF0F3581B0028184B0ADD1E68C6
:103D7000B04205DB1649096831448842A8BF0846AD
:103D8000186001E000211960002812490FDA604331
:103D9000404290FBF5F40B68A34205DB0E4A126823
:103DA0009B1A9C42B8BF1C460C602046F0BD002AFE
:103DB000F1D10A60F0BD00BFF00300200004002034
:103DC000D4030020E403002008040020F4030020B2
:103DD000DC030020FC03002004040020064B1B68C9
:103DE000181A064B1B685843054B1B689842A8BF1E
:103DF00018464011704700BF140400200C04002036
:103E0000EC0300200F4A104B10B51968146804FA2F
:103E100001F318440D4B001B1B6808411060181A71
:103E20000B4B1B6858430B4BB0F5486F1B68A8BF82
:103E30004FF448605B425B019842B8BF184640119E
:103E400010BD00BF10040020F8030020E003002094
:103E50000C04002000040020B0F52A6F06DB40F6B9
:103E6000A1239842D4BF32200020704764207047BD
:103E7000014B1860704700BF1804002030B50A4C91
:103E8000235C83B9094B1D686DB10949094A0B6868
:103E900002F8330002EBC30255600122134403F021
:103EA000030322540B6030BD1C04002018040020C2
:103EB0002C040020B001002000231946024A995426
:103EC0000133092BFBD170471C040020074B10B4B1
:103ED00003EBC1021479064A53F8313052F824201A
:103EE000014610BC0348FFF7C5BC00BF108700089F
:103EF000D88700085887000870B50A4C0A4E0B4D49
:103F00002368326893420CD005EBC30215F83310D6
:103F10005068FFF7DBFF2368013303F003032360DE
:103F2000EEE770BD280400202C040020B001002022
:103F300070B50A4D6B6823B9BDE870400848FFF7BB
:103F400099BC2E4600242B19586828B1315D0834DD
:103F5000FFF7BCFF202CF6D170BD00BFB0010020E0
:103F6000688700082DE9F041002590460C462E4652
:103F7000471A45450ADA206801F0D6FA0646E019E4
:103F800054F8041B01F06CFF0135F2E73046BDE840
:103F9000F081F0B5B2F5006F059F2ADA3F2B2BDCDC
:103FA000202F2CDC057800264FF0240EB54209DDC9
:103FB0000EFB0604B4F804C0624501D104340AE0E3
:103FC0000136F3E70A2D20D0242606FB050601352D
:103FD000B280341D0570A2780A2A13D004EB820542
:103FE0002971069901326971AB71EF71A270007885
:103FF000F0BD4FF0FF30F0BD6FF00100F0BD6FF08D
:104000000200F0BD6FF00400F0BD6FF00300F0BDE2
:1040100013B5049C8DE8180013460A460146024871
:10402000FFF7B7FF02B010BD3004002013B5049CA9
:104030008DE8180013460A4601460248FFF7A9FF1B
:1040400002B010BD9C05002013B5104C01F064FABD
:1040500001F0E6FE022001F0D9FE204600F0EEFF5E
:104060005B220B492046FFF77DFF5B2209490A4886
:10407000FFF778FF02A941F8040D01220748FFF776
:1040800071FF01F0DFFE02B010BD00BF00F80108B3
:10409000300400209C0500206CF90108D8FA0108C2
:1040A0000023194630B5084D084CE8188171E01816
:1040B0002433B3F5B47F4FF000028171F5D1024B88
:1040C0001A70024B1A7030BD300400209C0500208D
:1040D00030B58BB00546FFF7E3FF2A4B1C6801F0B3
:1040E0001BFAB621284801F025FA844209D15B2247
:1040F00025492648FEF7B4FC5B2225492548FEF7F2
:10410000AFFC254B00211A6824481A604FF4006365
:10411000022200F0D1FF4FF40061204801F072FA52
:104120004FF48053022203211C4800F0C5FF1C48B5
:1041300000F074FD0C2068431A4B00241A18916893
:104140001B58526801250691059204932A4623467E
:104150002146089407940394029401940095104812
:1041600000F068FD21468DE83000234622460C48C9
:1041700000F039FE0A4802210BB0BDE8304000F0E3
:104180003FBE00BFD8FA010800F801083004002043
:104190006CF901089C050020040001400008014062
:1041A00000640040E48700080C22504310B50B491E
:1041B0008AB00A1894685268002305920A58089336
:1041C00004920122079306940393029301930092B1
:1041D0001946034800F02EFD0AB010BDE487000820
:1041E00000640040014B1868704700BF08070020BA
:1041F00007B50023D2B20191009201461A46034846
:1042000000F002FE03B05DF804FB00BF0064004054
:104210002DE9F7431A4C0025A37873B32646009581
:10422000019500274FF00108A3789F421EDA04EBA6
:10423000870999F80400FEF72DF899F905305843DD
:10424000F37908FA03F3013B03EA6010B3791F2BFB
:1042500005D9203B9840019B1843019003E098400A
:10426000009B1843009001370436DDE708226946B9
:1042700034F8240BFFF7BCFFCEE703B0BDE8F083B2
:10428000340400202DE9F04F8BB00DF11A03039395
:104290000DF11B0302930DF119030024019308ADE6
:1042A00006AB0093012207AB0594049521465348C1
:1042B00000F018FE40F20162079B93424CD1BDF81A
:1042C0002110B1F5005F0DD19DF82300682809D8B1
:1042D0009DF82030402B27D10999FDF7C3FFF0B995
:1042E000232327E0A1F54053B3F5C05F28D29DF802
:1042F0002300682824D89DF82030402B25D19DF834
:10430000264011F4804F9DF824209DF8253000941C
:10431000C1F30A0111D0FFF789FE0028E0DA8023FB
:104320008DF82030364B0FE0222B0ED1FDF7B2FF77
:10433000432309908DF8203007E0FFF769FEECE792
:1043400080238DF820302F4B09930822294640F214
:104350008150FFF74DFF4DE0A1462B4D24212A78D7
:104360004A4547DD01FB095ABAF80400834203D1EC
:104370000026D046012729E009F10109F0E79AF863
:104380000A409AF80B101F2C25D90998A4F1200295
:1043900007FA01F120FA02F301390B4009EBC90BCE
:1043A000B34405EB8B0B9BF909405B019BF80800BC
:1043B0005C43FDF7C5FF64119BF80830214688B1C6
:1043C0001846FDF74FFF01360AF1040A98F8063047
:1043D0009E42D4DB0AE0089A07FA01F14B1EE24044
:1043E0001340DBE71846FDF775FFECE701F048F8EE
:1043F000064B18600BB0BDE8F08F00BF00640040B2
:1044000030000906000002069C0500200807002075
:10441000014B188880B2704714070020014B1860C8
:10442000704700BF20070020064B074A1B68128810
:1044300000FA03F393FBF2F3044A5B111380044B7D
:10444000186070474C7500082607002024070020DC
:104450001007002008B580210D4801F031F9002136
:104460003F20FDF72FFF1320FEF744FB0620FEF749
:104470002FFB08B9042006E00320FEF729FB08B94A
:10448000052000E00020BDE80840FFF7F7BC00BFB2
:10449000002C01402DE9F84F994801F027FB994A7B
:1044A0000546136823F001031360974A1368144606
:1044B000591E012902D9052B40F0B9805620FDF77D
:1044C000EFFE924B8046D3F80090914B914E1F78AF
:1044D000FEF7BCFE2368C7EB0907052BFFB28E4C25
:1044E0000ED18E4B21881A688D4B002A1B883260B2
:1044F00008FB03139BB223805FDA002333605CE088
:10450000FFF76EF88346002838D0FEF735FD38B344
:104510000920FDF7C5FE042804D00620FDF7C0FEE3
:10452000814601E04FF001090D20FDF7B9FE1FFAA9
:1045300080FA0020FEF7EAFFB8F1000FB8BF8AF456
:10454000004A09FB00A080B22080FFF709F800FBB9
:1045500009F02188306089B26820FDF7B3FE2CE0B5
:104560006E4B21881B6803FA09F233606D4B1B8880
:1045700092FBF3F35B1103FB08131CE00620FDF72D
:104580008FFE82464046FEF7C1FF8146FEF7E8FFF8
:10459000624B65491B6800FB0A30614B00281A8892
:1045A0000B88306008FB02339BB20B800AFB093397
:1045B000B8BFC6F800B09BB223805C4B3068196866
:1045C0004911FEF7FDFB8146FEF714FB49465220D8
:1045D000FDF778FE31685020FDF77CFE208880B220
:1045E000FEF724FB524B46481A681C46FA401A60F4
:1045F0005A68FA405A609A6822FA07F79F60B9F140
:10460000000F02D0B8F1000F02D101F049FA01E029
:1046100001F041FA22680021394801F02CFA626861
:104620000221374801F027FAA268042155E0DA1E7A
:10463000012A17D8364B522019783C4B1A6864234C
:104640008A40521192FBF3F201238B40A3F16301E4
:104650008A42A8BFA3F1640222EAE2742146FDF770
:1046600031FE38E0062B3BD12C4B2D4918682A4BE4
:1046700009881E461C88274A2144002889B21980CF
:10468000B8BF00231060B8BF136011685020FDF759
:1046900021FE308880B2FEF74BFA0446308880B2A3
:1046A000FEF746FA214B40421B68002103FB04F24F
:1046B0004343642492FBF4F293FBF4F41D4B521138
:1046C0001B7802F50042641104F500441A410C48BD
:1046D0001C4101F0D0F922460221094801F0CBF932
:1046E000074801F003FA401B0028B8BF40424821A8
:1046F00090FBF1F1BDE8F84F6720FDF7E3BD00BF87
:10470000002C0140102C0140180700204C750008B7
:10471000280700202C070020140700201007002085
:1047200024070020260700200C0700202007002077
:10473000B40200201C07002010B50D4C00212046BB
:1047400001F02AF92046022101F026F92046042131
:1047500001F022F92046012101F01EF92046032133
:1047600001F01AF92046BDE81040052101F014B906
:10477000002C014010B50D4C0021204601F031F90C
:104780002046022101F02DF92046042101F029F9EB
:104790002046012101F025F92046032101F021F9ED
:1047A0002046BDE81040052101F01BB9002C014056
:1047B00008B5154B18600138052804D8DFE800F06B
:1047C0001F1F13171F07BDE80840FFF7D3BFFFF7F0
:1047D000B3FF04210D4801F004F9BDE808400521AC
:1047E0000A4801F0FEB8FFF7C5FF032102E0FFF71A
:1047F000C1FF02210548BDE8084001F0CDB8BDE881
:104800000840FFF799BF00BF18070020002C0140A7
:10481000F8B55F4B07465F481C780E4600F00CFF6A
:104820005C4800F079FF20215A4800F05CFF5948AD
:1048300000F054FF46F66802574B01251A606822C3
:1048400005FA04F45A60CEB10021524801F07FF815
:104850000221504801F07BF804214E4801F077F81E
:1048600029464C4801F073F803214A4801F06FF8DB
:104870000521484801F06BF8032518E0314645480A
:1048800001F040F80221434801F03CF8042141487E
:1048900001F038F829463F4801F034F803213D483B
:1048A00001F030F805213B4801F02CF80225394889
:1048B00001F0FBF8374801F0EEF8364801F0FAF85D
:1048C000344801F0FCF8334801F0FEF8314801F0BB
:1048D00000F939462F4801F001F900212D4801F077
:1048E000A5F802212B4801F0A1F80421294801F084
:1048F0009DF80121274801F099F80321254801F08E
:1049000095F80521234801F091F80121214801F093
:10491000E9F880211F4800F0DEFE01211D4800F06B
:10492000CBFE80211B4800F0C7FEA4B2002119482D
:1049300000F0FCFE2146174800F0FCFE012115485E
:1049400000F0F6FE00221146124801F094F8002211
:104950000221104801F08FF8002204210D4801F0D7
:104960008AF80C4800F0D3FE2A464FF4E063032196
:104970000A4800F0A1FB4FF460432A46032108488F
:1049800000F09AFB0748B0FBF4F080B2F8BD00BF1E
:1049900028070020002C0140182C0140000801408D
:1049A000000C01400051250238B50F20FDF778FCBE
:1049B0000F4C0B3020701120FDF772FC05461020C3
:1049C000FDF76EFC0146A8B2FFF722FF094B1880E5
:1049D000094B1A68094B1B68934093FBF0F0084B96
:1049E000401118802378D21A064B1A7038BD00BFC8
:1049F00028070020260700204C750008100700201B
:104A0000240700201C0700208368DB075EBF836843
:104A100043F00103836070478368DB0742BF83680C
:104A200043F0010383607047836823F4E043194334
:104A30008160836843F4004383607047836800F1BA
:104A4000080243F00803836013681B07FCD4704717
:104A5000836843F00403836070478068C0F380007C
:104A6000704708B50246FFF7F3FF1046FFF7F5FF62
:104A70000028FAD108BD092910B50BD8046901EB4B
:104A8000410107238B4024EA030302FA01F1194391
:104A9000016110BD0A39C46801EB410107238B4055
:104AA00024EA030302FA01F11943C16010BD002298
:104AB000134610B501FA02F403321E2A43EA040336
:104AC000F8D10361002201FA02F40332182A43EA02
:104AD0000403F8D1C36010BD836823F00103836031
:104AE0007047436843F4805343607047436843F41E
:104AF000807343607047836823F40063836070476A
:104B0000013903290CD8DFE801F002040608C06B64
:104B100004E0006C02E0406C00E0806C00B2704782
:104B200000207047836843F00203836070471029B8
:104B3000F0B537D8002426462746254601238B4268
:104B40002AD8062B98BF92F800E002F101029CBF20
:104B50000EFA04FE46EA0E06A3F1070EBEF1050F9B
:104B60009FBF12F801ECA4F11E0C0EFA0CFE47EAEE
:104B70000E07A3F10D0EBEF1050F9EBF12F801EC5A
:104B8000A4F13C0C0EFA0CFE03F1010398BF45EAB8
:104B90000E05DBB20534D2E7013945EA0155C5629D
:104BA00007634663F0BD042970B50EDC54180F2569
:104BB0000023944205D014F8016DAE403343053D07
:104BC000F7E7013943EA0153836370BD01390329D3
:104BD0000AD8DFE801F002040608426170478261EA
:104BE0007047C261704702627047836800F1080233
:104BF00043F48003836013685B02FCD470478368CE
:104C000000F1080243F40013836013689B02FCD494
:104C10007047836843F4807383607047044B984205
:104C20000CBF40F2192040F21A2001F051B800BF29
:104C3000006400402DE9F34104689DF820C024F091
:104C40000204046004689DF824E044F00104046058
:104C50004FF6FF749DF828709DF83C509DF8406019
:104C60000194019C013C019414B14468E407F8D517
:104C7000D0F80480041D18F0010F69D04FF000082F
:104C8000C0F81C8019B1016841F0800102E00168A0
:104C900021F0800101601AB1026842F0400202E096
:104CA000026822F0400202601BB1036843F0200357
:104CB00002E0036823F0200303600368BCF1000FE7
:104CC00002D043F0100301E023F0100303600368F7
:104CD000BEF1000F02D043F0080301E023F0080307
:104CE0000360036817B143F0040301E023F00403F9
:104CF0000360C36916B143F0004301E023F00043B1
:104D0000C361C36915B143F0804301E023F08043E0
:104D1000C3610E9B0D99013BC3F309030B430C992F
:104D2000C2690B430B990B431343C361036823F020
:104D3000010303604FF6FF730193019B013B019355
:104D400013B12368DB07F8D4406800F0010000E0ED
:104D5000012002B0BDE8F081F0B5D0F80052012486
:104D600045F001058C40C0F80052E543D0F81C62C4
:104D70009DF820702E40C0F81C621AB1D0F80C22A9
:104D8000224302E0D0F80C222A40C0F80C221BB1CA
:104D9000D0F80432234302E0D0F804322B40C0F8AC
:104DA0000432059B00EBC101C1F84032069BC1F8FB
:104DB0004432079B2BB1D0F814322343C0F814328D
:104DC00004E0D0F814321D40C0F8145227B1D0F8D6
:104DD0001C321C43C0F81C42D0F8003223F00103FF
:104DE000C0F80032F0BD1FB59DF81C400394069C2E
:104DF0008DE81C0000230122FFF7AEFF04B010BDB8
:104E00004369194341617047F0B5044680689DF8D5
:104E100014E04001069D08D4A068000109D4A068F0
:104E2000C0000AD44FF0FF30F0BD4FF4C07C00202A
:104E300006E04FF4C87C012002E04FF4D07C022051
:104E40001AB1C90041F0040100E0490544F80C1012
:104E50002BB154F80C2042F0020244F80C2004EB71
:104E60000C035A680EF00F0122F00F025A605A68C4
:104E70000EF1FF3E0A435A60BEF1070F1FD8DFE86C
:104E80000EF01B1815110E0B0804EA79002762F3C7
:104E90001F67AA7962F317476A7962F30F272A79A5
:104EA00062F30707EA78002662F31F66AA7862F3C6
:104EB00017466A7862F30F262A7862F307069E6027
:104EC000DF601A6842F001021A60F0BD21B9C368C0
:104ED00043F02003C3607047036943F0200303617C
:104EE000704700002DE9F3470E4605462F490DF1A6
:104EF000080A03C90AE903000AEB860151F8081CF5
:104F0000DDF8289055F801A0DDF82CE01AF0040A2D
:104F10001BBF4FF0010A89F800A089F800A055F8DE
:104F200001900ABF55F801904FEAD9094FEA595943
:104F3000C3F800906B58681813F0020318BF0123E0
:104F40008EF800304368DDF830801B0A88F80030A6
:104F50004368DDF834C00F9F03F00F030E9C8CF8FC
:104F6000003017B143681B0C3B808168C368C1F3F4
:104F7000072021706070C1F30740C1F30761E17041
:104F8000C3F3072123716171C3F30741C3F30763BF
:104F9000A070A171E37132B13146284602B0BDE87C
:104FA000F047FFF793BF02B0BDE8F0871488000810
:104FB000064B1868064B1B889BB2B3F5007F82BF77
:104FC000044B1B68184300F0350070470C2002406A
:104FD000E0F7FF1F4C20024038B504460D4600F0B4
:104FE00039FF124B1B889BB2B3F5007F04D9104BDD
:104FF0009C4201D90F4A00E00F4A136843F00103B5
:105000001360258000F026FF084B1B889BB2B3F588
:10501000007F04D9064B9C4201D9064A00E0064AAB
:10502000136823F00103136038BD00BFE0F7FF1FD2
:10503000FFFF0708502002401020024010B5044630
:1050400000F008FF164B1B889BB2B3F5007F09D90F
:10505000144B9C4206D9144B1A6842F002021A60A3
:10506000124A05E0124B1A6842F002021A60114A15
:1050700014601A6842F040021A6000F0EBFE084B20
:105080001B889BB2B3F5007F04D9064B9C4201D923
:10509000054A00E0064A136823F00203136010BDBE
:1050A000E0F7FF1FFFFF0708502002405420024096
:1050B00010200240142002402DE9F0434FF6E07723
:1050C00096469C460268436800254FF00F084CFA4C
:1050D00005F4E40719D5072DACB28BBF3C46164644
:1050E0001E46A40098BFA4B208FA04F926EA0906ED
:1050F00004F102090EFA09F901FA04F449EA040478
:105100003443082D2CBF2346224601350437102D89
:10511000BFB2DCD102604360BDE8F083024A13688D
:1051200043F080731360704700100240062822D8B5
:10513000DFE800F004090E13181A1C000F4B186862
:10514000C0F3406070470D4B1868C0F3C0607047F3
:105150000A4B1868C0F340707047084B1868C0F3DA
:1051600040407047054B02E0054B00E0054B1868D6
:10517000C0F3400070470020704700BF001002409D
:105180002010024024100240024608B51046FFF7E6
:10519000CDFF0028FAD008BD06281FD8DFE800F0B0
:1051A00004060B1015171900FFF7B8BF0C4A136857
:1051B00043F0806311E00A4A136843F080530CE027
:1051C000074A136843F4803307E0054A02E0054AC2
:1051D00000E0054A136843F001031360704700BF05
:1051E000001002402010024024100240034A1368BD
:1051F00023F0030318431060704700BF04100240FF
:10520000034A136823F4701343EA80401060704728
:1052100004100240034A136823F4803343EA004039
:105220001060704704100240034A136823F40033EF
:1052300043EA40401060704704100240024B186877
:1052400000F40040704700BF20100240024A13687B
:1052500043F40043136070472010024006283ED8F4
:10526000DFE800F038383826380415001C4B1A687F
:1052700042F001021A601968194A8807FBD51368C1
:1052800023F440731360136843F4807326E0154BD6
:105290001A6842F001021A601A689107FCD5104B97
:1052A0001A6822F440721A601A6842F400720FE021
:1052B0000D4B1A6842F480321A601A689203FCD5CA
:1052C000074B1A6822F440721A601A6842F440725E
:1052D0001A607047024A136823F4407313607047E2
:1052E000201002402410024000100240034A1368BC
:1052F00023F4404343EA80301060704704100240BA
:10530000034A136823F4605343EAC02010607047D7
:1053100004100240034A136823F4E06343EA0020C8
:105320001060704704100240034A136823F0F00332
:1053300043EA0010106070470410024008B50420D2
:10534000FFF72AFF0420FFF71FFF0020FFF74EFFA3
:105350000320FFF721FF0320FFF716FF0120FFF7CF
:1053600045FF0020FFF7E0FF0320FFF7BFFF042009
:10537000FFF7D0FF0020FFF7C3FF022000F046FD3B
:105380000720FFF73DFF0120FFF744FF0020FFF754
:105390004BFFFFF7C3FE0020FFF7F6FE0220FFF7EA
:1053A00025FF044B044A05491360054A1160054A6C
:1053B000136008BD00A24A04D0010020005125025C
:1053C000D4010020D801002004490B68034A9B0641
:1053D000FBD5136843F010031360704704280040A6
:1053E000044B1A6822F010021A601A689206FCD563
:1053F000704700BF0428004038B504464FF467707A
:1054000000F058FC40F29B3000F054FC00F00CF926
:105410002046FFF723FF0E4C0E4B00251D60256034
:10542000FFF714FFFFF7D0FF0B4B0C4A1D605D60C8
:105430001D615D614FF6FF7313605360FFF7D0FF8E
:10544000236823F00803236023681B07FCD538BDBD
:105450000428004000280040082800402028004080
:1054600008B5FFF7B1FF054B82B2C0F303401A60E5
:1054700043F8040CBDE80840FFF7B2BF0C28004019
:10548000034B186804331B6843EA0040704700BFB1
:105490001828004008B5FFF797FF044B020C80B2B4
:1054A0001A605860BDE80840FFF79ABF182800400E
:1054B00008B54FF4677000F0FDFB40F29B3000F040
:1054C000F9FB00F0B1F8064B1A6822F008021A60E6
:1054D0001A681107FCD51A689206FCD508BD00BFF2
:1054E0000428004038B505464FF467700C4600F0BC
:1054F000E1FB40F29B3000F0DDFBFFF79FFE18B1AF
:10550000BDE83840FFF7D4BF2846FFF775FF2046B7
:10551000BDE83840FFF7A4BF024A136843F0010317
:105520001360704708300240014B186018687047DC
:105530000030024010B5064A00238B4204DA50F8CE
:10554000234001331460F8E7014B186810BD00BF19
:105550000030024014230139594308300B5823F41A
:1055600040630B500B581A430A50704714230139FB
:10557000594308300B5823F440730B500B581A430F
:105580000A50704714230139594308300B5843F02F
:1055900080030B50704714230139594308300B58CE
:1055A00043F020030B500B5823F480430B507047FB
:1055B00014230139594308300B5843F001030B50B1
:1055C000704714230139594308300B5823F0010365
:1055D0000B5070471423013903FB01008368DB077C
:1055E00058BF026170471423013903FB010083682F
:1055F000DB0758BF426170470139142359430C300F
:105600000A50704701617047090401617047806862
:1056100008407047C36803EA010221EA030141EA36
:105620000241016170470000024A136843F480732D
:1056300013607047007000401C4B984228D00DD872
:10564000A3F5006398421DD003F5806398421CD0F7
:10565000B0F1804F29D14FF4007024E0144B9842F0
:105660001CD004D8A3F58063984214D07047114B26
:10567000984204D003F50063984212D0704740F27C
:105680008B1010E040F201200DE040F202200AE011
:1056900040F2032007E04FF4017004E040F20520DF
:1056A00001E040F28D1000F013BB7047000C004089
:1056B00000140040002C0140C3681943C1607047CA
:1056C000C36823EA0101C160704703690B4214BF3C
:1056D000012000207047C94301617047036843F00F
:1056E000800303607047036801F0600123F06003EA
:1056F000036003680B4303607047036823F01003E3
:1057000003607047036843F0080303607047036851
:1057100043F0010303607047036823F00103036053
:105720007047436823F00803436070478162704705
:1057300001637047C1627047062900F2C880DFE844
:1057400011F00700C6003600C6006800C6009600CB
:10575000836923F00303836183698361836923F091
:1057600070038361072A00F2B280DFE802F033049D
:10577000080C1014181C836943F0100347E0836978
:1057800043F0200343E0836943F030033FE0836943
:1057900043F040033BE0836943F0500337E0836903
:1057A00043F0600333E0836943F070032FE08369C3
:1057B00023F44073836183698361836923F4E04345
:1057C0008361072A00F28380DFE802F004060A0EF4
:1057D00012161A1E83691AE0836943F4805316E097
:1057E000836943F4005312E0836943F440530EE0AD
:1057F000836943F480430AE0836943F4A04306E0ED
:10580000836943F4C04302E0836943F4E043836166
:105810007047C36923F00303C361C369C361C369EC
:1058200023F07003C361072A51D8DFE802F0320485
:10583000080C1014181CC36943F0100346E0C36938
:1058400043F0200342E0C36943F030033EE0C36904
:1058500043F040033AE0C36943F0500336E0C369C4
:1058600043F0600332E0C36943F070032EE0C36984
:1058700023F44073C361C369C361C36923F4E04384
:10588000C361072A23D8DFE802F004060A0E1216C5
:105890001A1EC3691AE0C36943F4805316E0C36952
:1058A00043F4005312E0C36943F440530EE0C3696C
:1058B00043F480430AE0C36943F4A04306E0C369AC
:1058C00043F4C04302E0C36943F4E043C36170475B
:1058D000062916D8DFE801F0041508150D1511008A
:1058E000836943F0080302E0836943F40063836142
:1058F0007047C36943F0080302E0C36943F40063DF
:10590000C3617047062921D8DFE801F004140818A4
:105910000C1C1000036A23F0020316E0036A23F054
:10592000200312E0036A23F400730EE0036A23F4F9
:1059300000530AE0036A23F0080306E0036A23F039
:10594000800302E0036A23F40063036270470629C0
:1059500021D8DFE801F0041408180C1C1000036AB9
:1059600043F0020316E0036A43F0200312E0036AE7
:1059700043F400730EE0036A43F400530AE0036A41
:1059800043F0080306E0036A43F0800302E0036A81
:1059900043F4006303627047062921D8DFE801F071
:1059A000041408180C1C1000036A43F0010316E0ED
:1059B000036A43F0100312E0036A43F480730EE0BD
:1059C000036A43F480530AE0036A43F0040306E0E9
:1059D000036A43F0400302E0036A43F48063036216
:1059E0007047062921D8DFE801F0041408180C1CC0
:1059F0001000036A23F0010316E0036A23F010038A
:105A000012E0036A23F480730EE0036A23F48053E8
:105A10000AE0036A23F0040306E0036A23F040036C
:105A200002E0036A23F4806303627047062921D8E9
:105A3000DFE801F004080C1014181C00436823F47C
:105A4000807316E0436823F4007312E0436823F484
:105A500080630EE0436823F400630AE0436823F4A4
:105A6000805306E0436823F4005302E0436823F4C4
:105A700080434360704706290CD8DFE801F0040B2F
:105A8000060B080B0A004263704782637047C263CB
:105A9000704702647047436C43F4004343647047AB
:105AA000436C23F4004343647047436C23F4804306
:105AB00043647047436C43F4005343647047436C42
:105AC00043F4805343647047436C43F4006343647E
:105AD0007047436C43F4806343647047436C1943DD
:105AE000416470474369194341617047406A704798
:105AF00041627047032924D8DFE801F0020A131B32
:105B0000836923F0F0038361836943EA021206E0AC
:105B1000836923F470438361836943EA02328261BB
:105B20007047C36923F0F003C361C36943EA0212FB
:105B300006E0C36923F47043C361C36943EA0232D8
:105B4000C261704701F0FD03012B02F0030204D192
:105B5000531E012B98BF82F00302032922D8DFE8ED
:105B600001F002091219836923F003038361836939
:105B70001A4306E0836923F440738361836943EA2F
:105B8000022282617047C36923F00303C361C369C2
:105B90001A4306E0C36923F44073C361C36943EA4F
:105BA0000222C2617047036A8900012202FA01F1F0
:105BB0000B4303627047836823F4706383608368D8
:105BC00043EA012181607047836811B143F40043C7
:105BD00001E023F4004383607047836823F00703E8
:105BE00083608368194381607047836823F0700382
:105BF000836083681943816070470000064A074B41
:105C000090421B6804BF064B1B6801EB430349002D
:105C1000B3FBF1F38360704700380140D4010020EA
:105C2000D8010020C36808290CBF23F4805343F433
:105C30008053C3607047036923F4405319430161E3
:105C40007047C36823F4C0631943C1607047C368D9
:105C500023F00C031943C1607047436923F4407378
:105C6000194341617047C36843F40053C3607047F0
:105C700038B504460D4600F013F829462046BDE825
:105C8000384000F005B8436943F040034361704772
:105C9000C1F30801416070474068C0F308007047D5
:105CA00003681B06FCD5704703680B4214BF012034
:105CB00000207047430903F1804303F504331A6859
:105CC00000F01F00012101FA00F010431860704736
:105CD000430903F1804303F504331968012200F0FE
:105CE0001F0002FA00F040EA01021A601A6822EA74
:105CF000000018607047000001290BD002D3022970
:105D00000DD070470A4A136803431360536823EAAF
:105D100000000AE0064A136823EA000302E0044A8E
:105D2000136803431360536818435060704700BF03
:105D300008040140034A136803431360536818437F
:105D40005060704700040140C043044A1368034098
:105D50001360536818405060704700BF0004014052
:105D6000014B1860704700BF140401402DE9F04F4B
:105D7000DFF888C0DFF88880DFF88890DFF888A037
:105D800000224FF0010E0F270EFA02F303422AD031
:105D9000174B994211D005D849450CD0514512D125
:105DA000022311E0134B994209D0614509D04145C6
:105DB00009D1042308E0012306E0032304E00523BE
:105DC00002E0062300E000230B4C22F003063444DB
:105DD00002F00305AD00266807FA05FB26EA0B066C
:105DE000AB401E4326600132102ACDD1BDE8F08FB2
:105DF00000140140001C0140080001400020014047
:105E000000180140000C014000100140034A1368D3
:105E100023F0070318431060704700BF00200240C2
:105E2000054A136843F080031360044B044A1A6068
:105E300002F188321A6070471020024004200240AC
:105E400023016745024A136843F0800313607047DB
:105E50001020024008B5FFF7ABF8C307FBD408BD1C
:105E600038B505460C4689B2FFF7B6F8210CA81CD8
:105E7000BDE83840FFF7B0B8FEE77047184C194945
:105E8000194800225318834203D213595350043245
:105E9000F8E7164A0021934202D219600433FAE768
:105EA000134A144C1368144D43F400731360AC424E
:105EB00003D254F8043B9847F9E7104C104DAC421C
:105EC00003D254F8043B9847F9E7FBF7BBFF0D4CAE
:105ED0000D4DAC4203D254F8043B9847F9E700BF9C
:105EE0002088000800000020DC010020300700208E
:105EF00014ED00E01C8800081C8800081C880008BD
:105F0000208800082088000820880008014A024BE9
:105F10001A60FEE70400FA050CED00E043099B005F
:105F200003F1604300F01F00012203F5614302FA10
:105F300000F0186070470000432893BF00F16040F4
:105F4000044B00F00F0000F564408CBFC154017099
:105F5000704700BF14ED00E0000204064D6F746F3F
:105F60007200626F6F7374006469670066776561C1
:105F70006B007564636E6F6D006670636F6E737433
:105F80000066736C69706D696E0066736C69706D24
:105F9000617800706F6C65706169727300616D701B
:105FA0006D696E002500656E63666C7400656E63D6
:105FB0006D6F646500303D53696E676C652C2031F0
:105FC0003D41422C20323D41425A2C20333D53501A
:105FD000492C20343D5265736F6C76657200666D96
:105FE000696E00666D6178006E756D696D7000494F
:105FF0006D702F7265760073796E636F66730073D0
:106000006E736D00323D4B545938332D3131302C85
:1060100020333D4B545938342D31333000496E769E
:1060200065727465720070776D66727100303D3113
:10603000372E366B487A2C20313D382E386B487A13
:106040002C20323D342E344B487A2C20333D322ED6
:10605000326B487A2C20343D312E316B487A0070F7
:10606000776D706F6C00303D414354484947482C70
:1060700020313D4143544C4F57006465616474695D
:106080006D65006F6375726C696D006D696E70751A
:106090006C736500696C316761696E006469672FB4
:1060A0004100696C326761696E007564636761699C
:1060B0006E006469672F56007564636F66730075C0
:1060C00064636C696D00736E73687300303D4A439E
:1060D000757276652C20313D53656D696B726F6EFC
:1060E0000043686172676572006368617267656D1D
:1060F0006F646500303D4F66662C20333D426F6F04
:1061000073742C20343D4275636B00636861726761
:1061100065637572006368617267656B70006368C0
:1061200061726765666C74006368617267656D6152
:1061300078005468726F74746C6500706F746D6968
:106140006E00706F746D617800706F74326D696E7F
:1061500000706F74326D617800706F746D6F64657C
:1061600000303D53696E676C65526567656E2C2023
:10617000313D4475616C4368616E6E656C2C2032F4
:106180003D43414E007468726F7472616D700025FA
:106190002F31306D7300526567656E0062726B6EF1
:1061A0006F6D706564616C0062726B706564616CC8
:1061B00072616D700062726B6E6F6D0062726B6DFA
:1061C00061780062726B72616D70737472006272DA
:1061D0006B6F7574004175746F6D6174696F6E00DB
:1061E00069646C6573706565640072706D006964E4
:1061F0006C657468726F746C696D0069646C656D50
:106200006F646500303D616C776179732C20313D9E
:106210006E6F6272616B652C20323D6372756973BB
:10622000650073706565646B7000737065656466A6
:106230006C74006372756973656D6F646500303DE1
:10624000427574746F6E2C20313D537769746368A6
:10625000004465726174696E6700626D736C696D8C
:106260006869676800626D736C696D6C6F77007543
:1062700064636D696E007564636D617800436F6E71
:10628000746163746F7220436F6E74726F6C00750B
:10629000646373770075646373776275636B004141
:1062A00075782050574D0070776D66756E630030BD
:1062B0003D746D706D2C20313D746D7068732C20B1
:1062C000323D73706565640070776D6761696E005B
:1062D0006469672F430070776D6F66730073706534
:1062E00065646761696E0072706D2F6B487A004358
:1062F0006F6D6D756E69636174696F6E0063616E59
:10630000737065656400303D3235306B2C20313D53
:106310003530306B2C20323D3830306B2C20333D03
:10632000314D0054657374696E670066736C6970F3
:1063300073706E7400616D706E6F6D007665727350
:10634000696F6E006F706D6F646500303D4F6666FB
:106350002C20313D52756E2C20323D4D616E7561A1
:106360006C52756E2C20333D426F6F73742C203449
:106370003D4275636B2C20353D53696E652C20368C
:106380003D4163486561740075646300696463003E
:10639000696C3100696C320075616300696C31723F
:1063A0006D7300696C32726D7300626F6F7374632A
:1063B000616C6300646967697400667765616B632B
:1063C000616C63006964006971006B57006B564132
:1063D000007066004E6D00667374617400706F74B7
:1063E00000706F743200706F746E6F6D006469724C
:1063F000002D313D5245562C20303D4E45555452CE
:10640000414C2C20313D46574400746D7068730038
:10641000C2B04300746D706D007561757800636182
:106420006E696F00313D4372756973652C20323D92
:1064300053746172742C20343D4272616B652C2060
:10644000383D4677642C2031363D5265762C20331A
:10645000323D426D730064696E5F63727569736586
:106460000064696E5F73746172740064696E5F6268
:1064700072616B650064696E5F6D70726F74006449
:10648000696E5F666F72776172640064696E5F72D5
:106490006576657273650064696E5F656D637973B7
:1064A000746F700064696E5F6F6375720064696E0B
:1064B0005F64657361740064696E5F626D7300642C
:1064C0006F75745F7072656300646F75745F646389
:1064D000737700746D5F6D65617300757300616E35
:1064E000676C6500C2B000005C5F0008625F000876
:1064F000685F000800000000A076120080D4000051
:10650000010000005C5F00086C5F0008EC6200089E
:1065100000000000007D0000400B000002000000B1
:106520005C5F0008725F0008B660000800000000B1
:10653000007D0000000000004E0000005C5F0008CD
:10654000795F0008EC62000800000000007D000098
:10655000007D00003C0000005C5F0008815F0008D7
:10656000EC62000800000000400100002000000074
:10657000250000005C5F00088A5F0008EC620008EC
:106580000000000040010000600000002100000049
:106590005C5F0008935F000859720008200000004B
:1065A0000002000040000000200000005C5F0008C6
:1065B0009D5F0008A45F000800000000800C000040
:1065C00040010000040000005C5F0008A65F0008B6
:1065D00059720008000000000002000020000000C6
:1065E000060000005C5F0008AD5F0008B55F0008B2
:1065F0000000000080000000000000004B000000D0
:106600005C5F0008DE5F0008EC620008000000002C
:106610000032000020000000220000005C5F000843
:10662000E35F0008EC62000800000000007D00004D
:1066300000190000090000005C5F0008E85F000826
:10664000EF5F000800010000000004008007000068
:106650000F0000005C5F0008F75F0008685F00083B
:1066600000000000E0FF1F000000000046000000E6
:106670005C5F0008FF5F0008046000084000000045
:1066800060000000400000002E0000001D600008B7
:10669000266000082D600008000000008000000057
:1066A000200000000D0000001D6000085F60000871
:1066B00066600008000000002000000000000000EC
:1066C000340000001D6000087A600008685F000860
:1066D00000000000E01F0000E00700000E000000C6
:1066E0001D60000883600008A06000080000E0FF53
:1066F00000002000800C0000160000001D60000853
:106700008B600008685F000800000000E0FF0100E7
:10671000007D0000180000001D6000089460000863
:106720009C60000880F3FFFF800C000096000000D2
:106730001B0000001D600008A26000089C600008AB
:1067400080F3FFFF800C0000960000001C0000009A
:106750001D600008AA600008B26000080000000088
:10676000E0FF0100C50000001D0000001D600008E2
:10677000B8600008685F000800000000E0FF01004A
:10678000000000004D0000001D600008BF60000810
:10679000B660000800000000007D0000804300009B
:1067A000300000001D600008C6600008CC600008D2
:1067B0000000000020000000000000002D0000008C
:1067C000E1600008E9600008F460000800000000D3
:1067D00080000000000000004A000000E1600008A6
:1067E0000B610008A06000080000000040060000E7
:1067F0000000000047000000E1600008156100088B
:10680000685F000800000000800C0000000A000023
:1068100048000000E16000081E610008685F000891
:1068200000000000400100000001000049000000DD
:10683000E160000828610008A45F00080000000073
:10684000600C0000400B00004F00000032610008A7
:106850003B610008685F000800000000E0FF0100E5
:1068600000000000110000003261000842610008D1
:10687000685F000800000000E0FF0100E0FF010089
:10688000120000003261000849610008685F0008DA
:1068900000000000E0FF0100E0FF01003F000000F9
:1068A0003261000851610008685F000800000000C4
:1068B000E0FF0100E0FF010040000000326100083D
:1068C00059610008616100080000000040000000FC
:1068D00000000000520000003261000885610008DD
:1068E0008F61000820000000800C0000800C000078
:1068F00051000000966100089C610008A45F000838
:1069000080F3FFFF00000000C0F9FFFF2600000039
:1069100096610008A86100088F610008200000004F
:10692000800C0000800C000044000000966100080C
:10693000B5610008A45F000800000000800C0000A2
:10694000C00300001300000096610008BC6100084D
:10695000A45F000800000000800C0000C0030000DD
:106960003100000096610008C3610008EC62000875
:10697000000000000032000040010000270000007D
:1069800096610008CE610008A45F000880F3FFFF55
:10699000E0FFFFFFC0F9FFFF43000000D5610008E2
:1069A000E0610008EA61000880F3FFFF007D00005D
:1069B00080F3FFFF36000000D5610008EE6100089B
:1069C000A45F000800000000800C000040060000EA
:1069D00041000000D5610008FB6100080462000866
:1069E0000000000040000000000000004200000025
:1069F000D5610008226200085972000800000000FA
:106A0000800C00000800000035000000D56100087F
:106A10002A6200085972000800000000000200000D
:106A2000A000000039000000D561000833620008B2
:106A30003E6200080000000020000000000000008E
:106A40003E000000516200085A620008A45F00087E
:106A500000000000800C000040060000370000002D
:106A60005162000865620008A45F000880F3FFFF20
:106A700000000000E0FFFFFF380000005162000846
:106A80006F620008B660000800000000007D000092
:106A9000403800002A0000005162000876620008B9
:106AA000B660000800000000007D0000004100000A
:106AB0002B0000007D6200088F620008B6600008AD
:106AC00000000000007D00004029000014000000CC
:106AD0007D62000895620008B660000800000000B2
