:020000040800F2
:100000000050002055080008530800085108000857
:1000100051080008510800085108000800000000BD
:10002000000000000000000000000000530800086D
:100030005308000800000000530800085308000897
:10004000510800085108000851080008510800082C
:10005000510800085108000851080008510800081C
:10006000510800085108000851080008510800080C
:1000700051080008510800085108000851080008FC
:1000800051080008510800085108000851080008EC
:1000900051080008510800085108000851080008DC
:1000A00051080008510800085108000851080008CC
:1000B00051080008510800085108000851080008BC
:1000C00051080008510800085108000851080008AC
:1000D000510800085108000851080008510800089C
:1000E000510800085108000851080008510800088C
:1000F000510800085108000851080008510800087C
:10010000510800085108000851080008510800086B
:10011000510800085108000851080008510800085B
:10012000510800085108000851080008510800084B
:10013000510800085108000851080008510800083B
:10014000510800085108000851080008510800082B
:1001500082B04FF480130193019B13B1019B013BCB
:10016000F9E702B0704700002DE9F043ADF2044D0D
:1001700000F08AFA042000F073FA7C48042100F0B1
:100180002CFB7A48082100F028FB7848102100F069
:1001900024FB7648202100F020FB7448402100F029
:1001A0001CFB73484FF4802100F017FB71480121BC
:1001B00000F013FB6F48402100F00FFB02224FF4C8
:1001C00080636D48032100F073F96C484FF4E1310E
:1001D00000F0A0FA6948082100F0B0FA67484FF42F
:1001E000005100F0B4FA65480C2100F0BCFA6348F5
:1001F000002100F0B2FA0021604800F0BAFA5F482E
:1002000000F0BDFA5E4B5F4A5F4C1A6000AA5A606C
:1002100023685E4F236023682360236843F08003D4
:100220002360236843F002032360FFF791FF53210B
:10023000524800F0AEFAFFF78BFF504800F0C1FAC9
:10024000C6B200F0D9FA022000F0CCFA002E77D026
:100250004F4B504D1A68502142F001021A60474836
:1002600000F097FA2B684FF4806243F040032B6054
:10027000494B4FF400711A602268984642F001021F
:100280002260464A11604FF40013454A12689205F5
:1002900012D4013BF9D13948542100F07AFA23688D
:1002A00023F0010323604FF48063C8F80030236813
:1002B00043F001032360E6E7236823F00103236092
:1002C0002B6823F040032B6000235DF80320354D9D
:1002D0000433B3F5806F2A60F7D14321274800F03B
:1002E00058FA264800F060FA8146244800F05CFA8B
:1002F0008046224800F058FA000440EA08281F48C7
:1003000000F052FA48EA09082B6848EA0060834284
:1003100011D1384600F090F80025E8195DF8051075
:10032000043500F089FAB5F5806FF6D1013EF6B2DA
:1003300007F580678AE71148452100F02AFA85E72A
:1003400044210E4800F025FAFFF702FF0B4800F0A9
:100350001BFA00F063FA0D49134A144B1B68116035
:10036000984730460DF2044DBDE8F0831810024066
:100370001C10024014100240000C014000480040D4
:1003800038000240044800403000024000100008DD
:10039000083002401448004034000240040002408B
:1003A000000002400030024008ED00E004100008A8
:1003B000064B1868064B1B68B3F5007F82BF054BE0
:1003C0001B68184300F03500704700BF0C20024046
:1003D000E0F7FF1F4C20024038B504460D4600F000
:1003E00025FA114B1B68B3F5007F04D90F4B9C42D3
:1003F00001D90F4B00E00F4B1A6842F001021A605E
:10040000258000F013FA084B1B68B3F5007F04D970
:10041000064B9C4201D9064B00E0064B1A6822F0BD
:1004200001021A6038BD00BFE0F7FF1FFFFF070899
:10043000502002401020024010B5044600F0F6F9AA
:10044000154B1B68B3F5007F09D9144B9C4206D9A4
:10045000134B1A6842F002021A60124A05E0124B6E
:100460001A6842F002021A60104A14601A6842F0D8
:1004700040021A6000F0DAF9074B1B68B3F5007F01
:1004800004D9064B9C4201D9054B00E0064B1A6883
:1004900022F002021A6010BDE0F7FF1FFFFF0708FD
:1004A00050200240542002401020024014200240FC
:1004B0002DE9F047066845684FF6E07C002443FAD2
:1004C00004F7FF0721D51FFA84F8B8F1070F04D805
:1004D0004FEA8807BFB2B14601E06746A9464FF030
:1004E0000F0A0AFA07FA29EA0A0907F1020A02FAC8
:1004F0000AFA01FA07F74AEA070747EA0907B8F1D3
:10050000070F98BF3E4688BF3D4601340CF1040CEE
:10051000102C1FFA8CFCD2D106604560BDE8F08734
:10052000024B1A6842F080721A6070470010024055
:10053000062827D8DFE800F004090E13181D220052
:10054000114B1B689901FBD570470F4B1B681A01B3
:10055000FBD570470C4B1B689B00FBD570470A4BC3
:100560001B689803FBD57047074B1B689907FBD5A1
:100570007047064B1B689A07FBD57047044B1B68F6
:100580009B07FBD5704700BF0010024020100240BF
:100590002410024006281FD8DFE800F004060B10E4
:1005A00015171900FFF7BCBF0C4B1A6842F08062A8
:1005B00011E00A4B1A6842F080520CE0074B1A68AF
:1005C00042F4803207E0054B02E0054B00E0054BAA
:1005D0001A6842F001021A60704700BF0010024022
:1005E0002010024024100240034B1A6822F003023C
:1005F00010431860704700BF04100240034B1A6894
:1006000022F4701242EA80401860704704100240E1
:10061000034B1A6822F4803242EA004018607047A7
:1006200004100240034B1A6822F4003242EA4040B0
:100630001860704704100240034B1A6822F44042CD
:1006400042EA80301860704704100240034B1A6879
:1006500022F4605242EAC020186070470410024041
:10066000034B1A6822F4E06242EA002018607047E7
:1006700004100240034B1A6822F0F00242EA001014
:10068000186070470410024008B50420FFF782FF8D
:100690000420FFF74DFF0020FFF7A6FF0320FFF720
:1006A00079FF0320FFF744FF0120FFF79DFF0020A3
:1006B000FFF7E0FF0320FFF7BFFF0420FFF7D0FFA5
:1006C0000020FFF7C3FF022000F08CF80720FFF79F
:1006D00095FF0120FFF79CFF0020FFF7A3FFFFF726
:1006E0001FFF0020FFF724FF0220FFF77DFF044BD0
:1006F000044A05491360054A1160054A136008BDA4
:1007000000A24A040000002000512502040000203D
:1007100008000020064A074B90421B6804BF064BA6
:100720001B6801EB43034900B3FBF1F3836070479F
:10073000003801400400002008000020C368082998
:100740000CBF23F4805343F48053C36070470369A4
:1007500023F44053194301617047C36823F4C06315
:100760001943C1607047C36823F00C031943C1608B
:100770007047436923F44073194341617047C3686C
:1007800043F40053C3607047C36823F40053C3604D
:10079000704738B504460D4600F017F82046294644
:1007A000BDE8384000F009B810B5044600F011F873
:1007B0002046BDE8104000F004B8C1F308014160D4
:1007C00070474068C0F30800704703681B06FCD5FB
:1007D000704703689B06FCD57047036819430160A6
:1007E00070470000034B1A6822F00702104318609C
:1007F000704700BF00200240064B1A6842F080029A
:100800001A60054A43F80C2C02F1883243F80C2C8C
:10081000704700BF1020024023016745024B1A6851
:1008200042F080021A6070471020024008B5FFF7BE
:10083000BFFDC307FBD408BD38B505460C4689B2D9
:10084000FFF7CAFDA81C210CBDE83840FFF7C4BD66
:10085000FEE770470022154915485318834204D219
:10086000144BD35853500432F5E7134A934203D242
:1008700000221A600433F8E7104C114B9C4203D25B
:1008800054F8043B9847F8E70E4C0F4B9C4203D2B8
:1008900054F8043B9847F8E7FFF766FC0B4C0C4B09
:1008A0009C4203D254F8043B9847F8E7000000202C
:1008B0000C000020D40800080C000020D408000818
:1008C000D4080008D4080008D4080008D408000898
:0408D000D408000840
:0C08D40000127A0000127A0000127A0074
:040000050800085592
:00000001FF
