:020000040800F2
:1000000000500020BD080008BB080008B90800081F
:10001000B9080008B9080008B90800080000000085
:10002000000000000000000000000000BB08000805
:10003000BB08000800000000BB080008BB0800085F
:10004000B9080008B9080008B9080008B90800088C
:10005000B9080008B9080008B9080008B90800087C
:10006000B9080008B9080008B9080008B90800086C
:10007000B9080008B9080008B9080008B90800085C
:10008000B9080008B9080008B9080008B90800084C
:10009000B9080008B9080008B9080008B90800083C
:1000A000B9080008B9080008B9080008B90800082C
:1000B000B9080008B9080008B9080008B90800081C
:1000C000B9080008B9080008B9080008B90800080C
:1000D000B9080008B9080008B9080008B9080008FC
:1000E000B9080008B9080008B9080008B9080008EC
:1000F000B9080008B9080008B9080008B9080008DC
:10010000B9080008B9080008B9080008B9080008CB
:10011000B9080008B9080008B9080008B9080008BB
:10012000B9080008B9080008B9080008B9080008AB
:10013000B9080008B9080008B9080008B90800089B
:10014000B9080008B9080008B9080008B90800088B
:1001500082B04FF480130193019B13B1019B013BCB
:10016000F9E702B0704700002DE9F04FADF2044D01
:1001700000F0A6FA042000F08FFA0421894800F06C
:1001800060FB0821874800F05CFB1021854800F0E7
:1001900058FB2021834800F054FB4021814800F0A7
:1001A00050FB4FF4E063022203217F4800F09EF9E8
:1001B0004FF46043022203217C4800F097F94FF48A
:1001C00080217B4800F03DFB01217A4800F039FB9B
:1001D0004021784800F035FB4FF480630222032170
:1001E000724800F083F94FF4E131734800F0C6FA29
:1001F0000821714800F0D6FA4FF400516E4800F023
:10020000DAFA0C216C4800F0E2FA00216A4800F0AA
:10021000D8FA0021684800F0E0FA674800F0E3FAF5
:10022000664A674B674C1A60C3F804D023682360A2
:1002300023682360236843F080032360236843F02E
:1002400002032360FFF784FF32215B4800F0D5FAF8
:10025000FFF77EFF584800F0E8FAC0B2AA2840F045
:100260008C805321544800F0C8FAFFF771FF5248C0
:1002700000F0DBFADFF86881C5B200F0F1FA022085
:1002800000F0E4FAC146504F002D74D000F05EFA41
:10029000D8F800304D4A43F04003C8F800304FF41E
:1002A0008063136023684FF4007243F001032360FE
:1002B000474B50211A60404800F09FFADFF80CB11C
:1002C000444E4FF400133268920512D4013BFAD128
:1002D0002368542123F0010323604FF48063CBF89B
:1002E00000302368344843F00103236000F085FAAE
:1002F000E7E723684FF4807123F001032360D9F806
:100300000030684623F04003C9F8003000F026FAB8
:1003100043218246284800F070FA274800F078FA16
:100320008346254800F074FA0646234800F070FA28
:10033000000440EA0626204800F06AFA46EA0B0666
:1003400046EA0060824511D1384600F091F8002657
:100350005DF80610B819043600F0A2FAB6F5806F01
:10036000F6D1013DEDB207F580678DE745211248D2
:1003700000F043FA88E700F085FA44210E4800F0C7
:100380003CFAFFF7E5FE0C4800F032FA0E49124A3B
:10039000124B1B681160984700200DF2044DBDE818
:1003A000F08F00BF1810024000080140000C01400F
:1003B0001C10024014100240004800400448004055
:1003C00038000240300002400010000834000240B3
:1003D000040002400000024008ED00E004100008A4
:1003E00014480040064B1868064B1B889BB2B3F5B7
:1003F000007F82BF044B1B68184300F03500704734
:100400000C200240E0F7FF1F4C20024038B50446A4
:100410000D4600F03FFA124B1B889BB2B3F5007FEC
:1004200004D9104B9C4201D90F4A00E00F4A1368CF
:1004300043F001031360258000F02CFA084B1B8861
:100440009BB2B3F5007F04D9064B9C4201D9064A02
:1004500000E0064A136823F00103136038BD00BFB3
:10046000E0F7FF1FFFFF0708502002401020024066
:1004700010B5044600F00EFA164B1B889BB2B3F57C
:10048000007F09D9144B9C4206D9144B1A6842F0DC
:1004900002021A60124A05E0124B1A6842F0020288
:1004A0001A60114A14601A6842F040021A6000F0A3
:1004B000F1F9084B1B889BB2B3F5007F04D9064BBA
:1004C0009C4201D9054A00E0064A136823F0020362
:1004D000136010BDE0F7FF1FFFFF07085020024028
:1004E0005420024010200240142002402DE9F04325
:1004F0004FF6E07796469C460268436800254FF029
:100500000F084CFA05F4E40719D5072DACB28BBFE0
:100510003C4616461E46A40098BFA4B208FA04F949
:1005200026EA090604F102090EFA09F901FA04F4AF
:1005300049EA04043443082D2CBF234622460135E2
:100540000437102DBFB2DCD102604360BDE8F083F8
:10055000024A136843F08073136070470010024032
:10056000062822D8DFE800F004090E13181A1C0030
:100570000F4B1868C0F3406070470D4B1868C0F30C
:10058000C06070470A4B1868C0F340707047084B52
:100590001868C0F340407047054B02E0054B00E08F
:1005A000054B1868C0F3400070470020704700BF3B
:1005B000001002402010024024100240024608B5FC
:1005C0001046FFF7CDFF0028FAD008BD06281FD837
:1005D000DFE800F004060B1015171900FFF7B8BF8D
:1005E0000C4A136843F0806311E00A4A136843F031
:1005F00080530CE0074A136843F4803307E0054A50
:1006000002E0054A00E0054A136843F00103136065
:10061000704700BF0010024020100240241002402A
:10062000034A136823F0030318431060704700BFA8
:1006300004100240034A136823F4701343EA804015
:100640001060704704100240034A136823F480339B
:1006500043EA00401060704704100240034A1368E8
:1006600023F4003343EA4040106070470410024016
:10067000034A136823F4404343EA80301060704714
:1006800004100240034A136823F4605343EAC02075
:100690001060704704100240034A136823F4E063BB
:1006A00043EA00201060704704100240034A1368B8
:1006B00023F0F00343EA001010607047041002407A
:1006C00008B50420FFF782FF0420FFF777FF002022
:1006D000FFF7A6FF0320FFF779FF0320FFF76EFF68
:1006E0000120FFF79DFF0020FFF7E0FF0320FFF749
:1006F000BFFF0420FFF7D0FF0020FFF7C3FF022059
:1007000000F0A4F80720FFF795FF0120FFF79CFFFA
:100710000020FFF7A3FFFFF71BFF0020FFF74EFFAE
:100720000220FFF77DFF044B044A05491360054A88
:100730001160054A136008BD00A24A0400000020B1
:10074000005125020400002008000020024A13681E
:1007500043F00103136070470830024010B5064AA9
:1007600000238B4204DA50F8234001331460F8E789
:10077000014B186810BD00BF00300240064A074B0D
:1007800090421B6804BF064B1B6801EB4303490002
:10079000B3FBF1F383607047003801400400002090
:1007A00008000020C36808290CBF23F4805343F4D9
:1007B0008053C3607047036923F4405319430161B8
:1007C0007047C36823F4C0631943C1607047C368AE
:1007D00023F00C031943C1607047436923F440734D
:1007E000194341617047C36843F40053C3607047C5
:1007F000C36823F40053C360704738B504460D4600
:1008000000F017F829462046BDE8384000F009B846
:1008100010B5044600F011F82046BDE8104000F085
:1008200004B8C1F30801416070474068C0F3080094
:10083000704703681B06FCD5704703689B06FCD510
:10084000704703681943016070470000034A13684A
:1008500023F0070318431060704700BF00200240D8
:10086000054A136843F080031360044B044A1A607E
:1008700002F188321A6070471020024004200240C2
:1008800023016745024A136843F0800313607047F1
:100890001020024008B5FFF7A5FDC307FBD408BD33
:1008A00038B505460C4689B2FFF7B0FD210CA81CEF
:1008B000BDE83840FFF7AABDFEE77047184C19495C
:1008C000194800225318834203D21359535004325B
:1008D000F8E7164A0021934202D219600433FAE77E
:1008E000134A144C1368144D43F400731360AC4264
:1008F00003D254F8043B9847F9E7104C104DAC4232
:1009000003D254F8043B9847F9E7FFF72DFC0D4C50
:100910000D4DAC4203D254F8043B9847F9E700BFB1
:100920004C090008000000200C0000200C000020F2
:1009300014ED00E04C0900084C0900084C090008BF
:0C0940004C0900084C0900084C09000894
:0C094C0000127A0000127A0000127A00FB
:04000005080008BD2A
:00000001FF
